:020000040800F2
:1000000010040020410D0008170A0008190A000812
:100010001B0A00081D0A00081F0A00080000000053
:10002000000000000000000000000000210A00089D
:10003000230A000800000000250A0008270A00081B
:10004000750D0008790D00087D0D0008810D000870
:10005000850D0008890D00088D0D0008910D000820
:10006000950D0008990D00089D0D0008A10D0008D0
:10007000A50D0008A90D0008AD0D0008B10D000880
:10008000B50D0008B90D0008BD0D00080000000006
:10009000000000000000000000000000C10D00088A
:1000A000C50D0008C90D0008CD0D0008D10D0008D0
:1000B000D50D00080000000000000000D90D000868
:1000C000DD0D0008E10D0008E50D0008E90D000850
:1000D000ED0D0008F10D0008F50D0008F90D000800
:1000E000FD0D0008010E00080000000000000000E7
:1000F0000000000000000000000000000000000000
:1001000000000000000000000000000000000000EF
:100110000000000000000000050E000800000000C4
:10012000090E00080D0E0008110E0008150E00083B
:10013000190E000800000000000000000000000090
:100140001D0E0008210E0008250E0008290E0008CB
:100150002D0E0008310E0008350E0008390E00087B
:100160003D0E0008410E00080000000000000000E5
:1001700000000000450E0008000000000000000024
:10018000490E00084D0E0008510E0008DFF8A413B8
:1001900001E0DFF8A41381B00A6802430A6009682D
:1001A00008400090009801B07047F0B5DFF88C036C
:1001B000DFF88C438DB0016841F0010101604FF41C
:1001C0000055006800F0010000904FF08050009949
:1001D000FFF7DFFFDB4ADC4813684FF6FF010B40F7
:1001E0000343136000F027F90C22002106A800F059
:1001F000D5F900F015F90420FFF7C8FF8020FFF7BC
:10020000C5FF0120FFF7C2FF0220FFF7BFFF4FF03D
:100210009041B0208862A5620122CC48016821F09B
:10022000F00141F0200101608DF820200021022220
:1002300007918DF821108DF82220069506A800F070
:10024000B7F9C348C16821F04061C160012102686B
:1002500022F040620260B0200090019100220292E0
:10026000039200F0E2F84020002100900191012269
:1002700000F0DBF801210191002202920392049226
:1002800000956946204600F031FA1C22002106A89C
:1002900000F084F900F0C4F84FF40030FFF779FF64
:1002A0000120FFF773FF022201920C21009100222E
:1002B00003920492032102910722059200F0B6F8FE
:1002C0004FF4E13000210C2206900791089109912A
:1002D0000A920B910C9106A99E4C9F4E9F4F20466F
:1002E00000F098FA606820F4904060600C22A068EA
:1002F00020F02A00A0606846216841F001012160D9
:10030000002100F04BF91822002103A800F046F963
:100310001022002109A800F041F92846FFF736FF16
:10032000002000900190029069468D4C8D4D204632
:1003300000F0E7FA002103910491059106910791DD
:100340000891204603A900F0EFFA8748874A8168A0
:1003500021F0E07141F400018160A1683140A160A9
:10036000A168294041F08051A1600A211368B3FBC4
:10037000F7F74F43B7FBF1F1002900E0491EFDD12B
:100380004FF4E012002309920A9309A900F09AFAA7
:10039000206B20F4F8602063606920F4E06040F492
:1003A00000706061724801680160A0680640A66044
:1003B000A1687048294041F08051A160A1680140C6
:1003C00041F00041A160A068C00FFCD1A0680540C9
:1003D00045F00105A5602068C007FCD54FF48051A9
:1003E000654D664E69806427287808B10021297020
:1003F00000F080F8206C688040F6E442012028700C
:1004000040F6B833308869885143B1FBF3F3718CFF
:100410001B1A7B43081A93FBF0F01E30A880E3E719
:1004200018220021684600F0B9B8049269464FF0DE
:10043000904000F05BB910B551480168C908C90087
:1004400041F004010160016801F007010429FAD1BB
:100450004C48016821F4C06141F4007101604A49CF
:10046000086840F00100086008688007FCD50A6849
:1004700042F008020A60086820F0F00040F06000D6
:100480000860486820F47F404860CA683F480240DE
:1004900042F4205242F00102CA60C86840F0807005
:1004A000C8600A6842F080720A6008688001FCD562
:1004B0008A6842F003028A60886800F00C000C2809
:1004C000FAD18868324C20F0F0008860886820F407
:1004D000E060886020468A6822F460528A6000F0FA
:1004E00053FA204600F05CFA2A48016821F00C011A
:1004F000016010BD10B51A481A498268D20710D59C
:10050000826892070DD4826852070AD48368194022
:1005100041F00401816001684907FCD504220260B2
:1005200010BD1D4C012323608268114041F0100171
:10053000F0E700004C1002405810024060100240EA
:10054000000400480CED00E00003FA05140001402F
:100550000008004800440040C0FFFF5F400D03005A
:1005600000000450C0FFFF7F000304500000002083
:10057000B0000450C0FFFF3F08000020A875FF1F17
:100580000020024000700040001002408C80FFF903
:1005900000B4C404881002400400002010B50446D2
:1005A00010460A460146204600F002FA204610BDD9
:1005B00030B5027A03684C4C0021002A00F080809C
:1005C000002B3CD0427A1AB1022A0ED009D314E093
:1005D000656825EA030363602368026813432360A8
:1005E0000CE0256825EA030301E025682B4323601E
:1005F000636802681343636000E00121827AF2B10C
:10060000012A04D019D3032A0ED009D315E0E368D8
:1006100002689343E360A36802681343A3600EE09B
:10062000A3680268934302E0A36802681343A360CF
:10063000E36802681343E36001E041F002014268AD
:10064000002A4DD0437A1BB1022B0ED009D314E0FF
:10065000656A25EA02026262236A426813432362E2
:100660000DE0236A23EA020201E0236A1A432262B0
:10067000656A42681543656201E041F00401827ACF
:1006800072B3012A04D019D3032A0ED009D315E07E
:10069000E36A42689343E362A36A40680343A36248
:1006A0001EE0A36A4268934302E0A36A42681343D0
:1006B000A362E36A40680343E36211E001210FE0B3
:1006C000256825EA03032360636802689343636037
:1006D000236A426893432362636A40688343636288
:1006E000084630BD0000000000040140F0B50B4694
:1006F0000246186890FAA0F0B0FA80F60F2403259D
:100700003EE0090A00F04DF8576A00F051F85062D7
:1007100035E00120B040014031D05868176800F042
:1007200053F84FEA4C0E00FA0EF038431060586848
:10073000012818BF022809D19868976800F044F88A
:100740004FEA4C0E00FA0EF03843906091FAA1FC8B
:100750001869D76800F03AF84FEA4C0E00FA0EF02C
:100760003843D0605868022809D15869B1F5807FB4
:10077000C7D200F016F8176A00F01AF81062761C5B
:10078000196831FA06F0C4D15868012818BF022848
:1007900005D15468D8688C434143214351600020FF
:1007A000F0BD91FAA1FCBCFA8CFC91FAA1F1704762
:1007B0004FEA8C0CB1FA81F104FA0CFC890027EAAB
:1007C0000C0788403843704791FAA1FCBCFA8CFCB6
:1007D0004FEA4C0C05FA0CFC27EA0C0791FAA1FC35
:1007E000BCFA8CFC704730B40EE0026843680244E7
:1007F0000830DC0744BFA9F10104E31852F8045B98
:1008000043F8045B091FF9D150F8041B0029ECD10F
:1008100030BC704770B504460E4620680125C107FC
:1008200044D42268264871680240F0680A4331695E
:100830000243B0690A43024322606168B06821F450
:10084000405101436160A168706921F44071014326
:10085000A16018498C4208BF032008D016498C4279
:1008600008BF0C2003D0154884421FD1302000F06F
:10087000DBF800281CBF3168002917D0B3690025B8
:100880004A08B3F5004F0CD102EB4002B2FBF1F085
:1008900080B24FF6F0710140C0F342000143E160C5
:1008A00004E01018B0FBF1F080B2E060284670BDA3
:1008B00000000000003801400044004000480040B3
:1008C000F369FFEF70B52B4B2B4C1B68246800229B
:1008D0002343DB0712D44B680C68284D4BB1866864
:1008E00035402C4323438C68C96823430B43836002
:1008F00005E081680D402C43846000E00122104631
:1009000070BD70B5024600209368DB070AD4D66834
:100910001B4D0C684B6889682E4026431E430E43CE
:10092000D66070BD012070BDF0B583680022DC0781
:100930001DD44C690D69CE680F684B68DFF844C060
:1009400033B1C3680CEA03031F438B681F4303E002
:10095000C3680CEA03031F433E4335432C43C46082
:10096000036B49681B0941EA0313036300E001229A
:100970001046F0BD0800045008010450E030C0FFEC
:10098000C7BFFFFF3CC0F0FF4FF47A720649B0FBCF
:10099000F2F0401E486000238B600520086070471D
:1009A000024908607047000010E000E000000020ED
:1009B00062F30F2262F31F42401810F0030308D0C5
:1009C000C91A1FD3DB0748BF00F8012D28BF20F844
:1009D000022D130030B414461546103928BF20E903
:1009E0003C00FAD8490728BF20E90C0048BF40F86E
:1009F000042D890028BF20F8022D48BF00F8012DE2
:100A000030BC7047C91818BF00F8012DCB0728BFAC
:100A100000F8012D70477047FEE7FEE7FEE7FEE7AE
:100A2000704770477047704770B501460020032932
:100A3000DFF8C021DFF8B441DFF8AC514FF40043D8
:100A400015D1296801F0030141F440314FF44036DB
:100A5000891B05D0491E2DD0491E2ED0491E16E0F7
:100A600000F03DF800F068F8BDE8704072E00C2935
:100A70000FD1296801F00C0141F440214FF44026C8
:100A8000891B24D0091F15D0091F16D0091F19D0A2
:100A900070BD302922D1296801F0300141F44011A4
:100AA0004FF44016891B12D0103903D0103904D0EE
:100AB0001039ECE7BDE8704011E0216849050DD51B
:100AC000104670BDA968890708D5184670BD00F0AA
:100AD00006F800F031F8BDE8704033E070BD4349DE
:100AE00045488B68424A13F00C030BD0042B04D00A
:100AF000082B04D00C2B04D004E03E4870473F483C
:100B000070472DE00B681B070B6809D41B0747BF14
:100B1000096801F0F001116801F47061090A08E048
:100B20001B0747BF096801F0F001116801F470610B
:100B3000090950F8210070473149324A0968C1F368
:100B4000031104E02E49304A0968C1F30221515CC7
:100B5000C84070472A492C4A0968C1F3C221F6E708
:100B600010B500F038F807D006D3032B02D003D21B
:100B700020491AE0214918E003681B07036809D4DB
:100B80001B0747BF026802F0F002126802F47062AD
:100B9000120A08E01B0747BF026802F0F002126861
:100BA00002F47062120951F8221000F008F8C4F340
:100BB0004160FFE7401C4000B1FBF0F010BDC2688F
:100BC000C368C468C2F30210401CB1FBF0F1C3F368
:100BD00006204143704705480749C368044A03F0AB
:100BE0000303012B704700008810024000100240F0
:100BF000941002400024F400680C000800127A00EF
:100C000008100240580C00086C0D00080E480168DE
:100C100041F47001016000220C49086840F00100B5
:100C200008608A604FF480520B68094803400B60EB
:100C3000CA6000200B68074A23F480230B60886198
:100C40004FF000611160704788ED00E00010024035
:100C5000FFFFF6EA08ED00E00000000000000000E1
:100C60000102030406070809A0860100400D0300E5
:100C7000801A060000350C0040420F0080841E00E0
:100C800000093D0000127A000024F40000366E01D5
:100C90000048E801006CDC0210B5074979441831BE
:100CA000064C7C44163404E00A68081D1144884749
:100CB0000146A142F8D110BD2C0000003C0000000C
:100CC0004EF68851CEF20001086840F470000860CA
:100CD000BFF34F8FBFF36F8F4FF00070E1EE100A3C
:100CE0007047000003FBFFFF1000000064000000DD
:100CF000000000200000000000F00DF8002801D0E6
:100D0000FFF7CAFFAFF300800020AFF30080FFF7CA
:100D10004CFA00F002F80120704700F001B8000022
:100D20000746384600F002F8FBE7000080B5AFF355
:100D30000080024A11001820ABBEFBE7260002002B
:100D400001488047014800470D0C0008610D00086C
:100D500000093D000000000002000010000000003B
:100D6000AFF30080FFF7ACFFFFF7C6FF0000000005
:100D700001020304FFF7FEBFFFF7FEBFFFF7FEBF50
:100D8000FFF7FEBFFFF7FEBFFFF7FEBFFFF7FEBF97
:100D9000FFF7FEBFFFF7FEBFFFF7FEBFFFF7FEBF87
:100DA000FFF7FEBFFFF7FEBFFFF7FEBFFFF7FEBF77
:100DB000FFF7FEBFFFF7FEBFFFF7FEBFFFF7FEBF67
:100DC000FFF7FEBFFFF7FEBFFFF7FEBFFFF7FEBF57
:100DD000FFF7FEBFFFF7FEBFFFF7FEBFFFF7FEBF47
:100DE000FFF7FEBFFFF7FEBFFFF7FEBFFFF7FEBF37
:100DF000FFF7FEBFFFF7FEBFFFF7FEBFFFF7FEBF27
:100E0000FFF7FEBFFFF7FEBFFFF7FEBFFFF7FEBF16
:100E1000FFF7FEBFFFF7FEBFFFF7FEBFFFF7FEBF06
:100E2000FFF7FEBFFFF7FEBFFFF7FEBFFFF7FEBFF6
:100E3000FFF7FEBFFFF7FEBFFFF7FEBFFFF7FEBFE6
:100E4000FFF7FEBFFFF7FEBFFFF7FEBFFFF7FEBFD6
:040E5000FFF7FEBFEB
:0400000508000D6181
:00000001FF
