:020000040800F2
:10000000100400206D0E0008A70C0008A90C0008C1
:10001000AB0C0008AD0C0008AF0C0008000000009D
:10002000000000000000000000000000B10C00080B
:10003000B30C000800000000B50C0008B70C000865
:100040009D0E0008A10E0008A50E0008A90E0008CC
:10005000AD0E0008B10E0008B50E0008B90E00087C
:10006000BD0E0008C10E0008C50E0008C90E00082C
:10007000CD0E0008D10E0008D50E0008D90E0008DC
:10008000DD0E0008E10E0008E50E0008000000008B
:10009000000000000000000000000000E90E000861
:1000A000ED0E0008F10E0008F50E0008F90E00082C
:1000B000FD0E00080000000000000000010F000815
:1000C000050F0008090F00080D0F0008110F0008A8
:1000D000150F0008190F00081D0F0008210F000858
:1000E000250F0008290F0008000000000000000094
:1000F0000000000000000000000000000000000000
:1001000000000000000000000000000000000000EF
:1001100000000000000000002D0F0008000000009B
:10012000310F0008350F0008390F00083D0F000897
:10013000410F000800000000000000000000000067
:10014000450F0008490F00084D0F0008510F000827
:10015000550F0008590F00085D0F0008610F0008D7
:10016000650F0008690F0008000000000000000093
:10017000000000006D0F00080000000000000000FB
:10018000710F0008750F0008790F00088B0910B572
:10019000303003F00C03181801F01F0104681F230E
:1001A0008B40C2F384629C4302FA01F12143016057
:1001B00010BDCB0D10B5143003F004031818090D51
:1001C00001F01F01036807248C40A34302FA01F1E8
:1001D0001943016010BD30B5D0F8B040784D02F041
:1001E0001802C1F31203D5409C4329402143C0F8B3
:1001F000B01030BD70472DE9F8418FB0002100915B
:10020000009180468DF800100C2201A800F010F932
:100210001822002108A800F00BF91022002104A8E0
:1002200000F006F96748684D0168684E684F41F470
:10023000005101600021006800F400500090009817
:10024000019102910391284601A900F01AF90021B9
:10025000089109910A910B910C914FF480520D92E3
:1002600008A9284600F020F9B0685A4B20F0E07049
:1002700040F48000B060A96857480140A960A868B0
:100280005649384040F08050A8600A200A68B2FB06
:10029000F3F34343B3FBF0F0002800E0401EFDD130
:1002A0004FF4001104910022059204A9304600F099
:1002B000C9F84B4C2246062100F0A8F8022221463C
:1002C0002846FFF776FF7F2221462846FFF783FF67
:1002D000A9684448014041F00041A960A868C00FE6
:1002E000FCD1A868384040F00100A8602868C00729
:1002F000FCD5A968394041F00401A96000F07AF802
:1003000000F086F8286C384CADF8000040F6B830A4
:100310006188BDF800204143B1FBF2F20E925FEA22
:100320000801B06820F0E07008D040F08070B06044
:1003300006212E4E00F069F8032207E040F4000089
:10034000B06006212A4E00F060F8042231462846AB
:10035000FFF72FFF7F2231462846FFF73CFF00F0D2
:1003600057F8A868074047F00407AF6000F042F86C
:10037000B8F1000F286CADF800000AD0BDF80010ED
:100380000E98414340F6FF72B1FBF2F101EB4101DF
:1003900010E0BDF8000022880E99484340F6B833BB
:1003A000B0FBF3F3618C9B1A642043438A1A93FBDE
:1003B000F2F11E310091009810B0BDE8F08100000C
:1003C000FFFF07004C1002400000045000030450DF
:1003D000C0FFFF7F400D0300C0FFFF5F0000002053
:1003E00001000080C0FFFF3FA875FF1F000084CB05
:1003F000000052C7A868800810F00100FAD1A86870
:10040000000910F00100FAD1704732462846BDE6D7
:10041000A868384040F00400A860A868800810F080
:100420000100FAD1A868000910F00100FAD1704764
:1004300010B5044610460A460146204600F064F80E
:10044000204610BD70B52B4B2B4C1B682468002236
:100450002343DB0712D44B680C68284D4BB18668E8
:1004600035402C4323438C68C96823430B43836086
:1004700005E081680D402C43846000E001221046B5
:1004800070BD70B5024600209368DB070AD4D668B9
:100490001B4D0C684B6889682E4026431E430E4353
:1004A000D66070BD012070BDF0B583680022DC0706
:1004B0001DD44C690D69CE680F684B68DFF844C0E5
:1004C00033B1C3680CEA03031F438B681F4303E087
:1004D000C3680CEA03031F433E4335432C43C46007
:1004E000036B49681B0941EA0313036300E001221F
:1004F0001046F0BD0800045008010450E030C0FF71
:10050000C7BFFFFF3CC0F0FF62F30F2262F31F4240
:10051000401810F0030308D0C91A1FD3DB0748BFE7
:1005200000F8012D28BF20F8022D130030B4144626
:100530001546103928BF20E93C00FAD8490728BFE2
:1005400020E90C0048BF40F8042D890028BF20F89E
:10055000022D48BF00F8012D30BC7047C91818BFE4
:1005600000F8012DCB0728BF00F8012D704730B4EB
:100570000EE00268436802440830DC0744BFA9F17A
:100580000104E31852F8045B43F8045B091FF9D136
:1005900050F8041B0029ECD130BC704770B50146FF
:1005A00000200329DFF8C021DFF8B441DFF8AC51A7
:1005B0004FF4004315D1296801F0030141F44031A3
:1005C0004FF44036891B05D0491E2DD0491E2ED030
:1005D000491E16E000F03DF800F068F8BDE87040F4
:1005E00072E00C290FD1296801F00C0141F440217F
:1005F0004FF44026891B24D0091F15D0091F16D09F
:10060000091F19D070BD302922D1296801F03001AD
:1006100041F440114FF44016891B12D0103903D019
:10062000103904D01039ECE7BDE8704011E02168C2
:1006300049050DD5104670BDA968890708D518462B
:1006400070BD00F006F800F031F8BDE8704033E00E
:1006500070BD434945488B68424A13F00C030BD0E8
:10066000042B04D0082B04D00C2B04D004E03E480B
:1006700070473F4870472DE00B681B070B6809D493
:100680001B0747BF096801F0F001116801F47061B0
:10069000090A08E01B0747BF096801F0F00111686B
:1006A00001F47061090950F8210070473149324A5C
:1006B0000968C1F3031104E02E49304A0968C1F307
:1006C0000221515CC84070472A492C4A0968C1F38D
:1006D000C221F6E710B500F038F807D006D3032B97
:1006E00002D003D220491AE0214918E003681B0711
:1006F000036809D41B0747BF026802F0F0021268C2
:1007000002F47062120A08E01B0747BF026802F099
:10071000F002126802F47062120951F8221000F01F
:1007200008F8C4F34160FFE7401C4000B1FBF0F063
:1007300010BDC268C368C468C2F30210401CB1FB9C
:10074000F0F1C3F306204143704705480749C368E9
:10075000044A03F00303012B704700008810024095
:1007600000100240941002400024F400B80D00086C
:1007700000127A0008100240A80D0008940E00082C
:100780001CB54448444C816841F001018160816896
:1007900001F0010100910099026842F0805202606C
:1007A0004FF6FF0100683D4A00F08050009000982D
:1007B00013683B480B400343136000F00BF800F054
:1007C00088F8FFF717FD00F0EDF82078FFF713FD2C
:1007D0006060FEE710B533480168C908C90041F000
:1007E00004010160016801F007010429FAD12E48D3
:1007F000016821F4C06141F4007101602B4908686F
:1008000040F00100086008688007FCD50A6842F0E3
:1008100008020A60086820F0F00040F060000860FC
:10082000486820F47F404860CA682148024042F48A
:10083000205242F00102CA60C86840F08070C8606F
:100840000A6842F080720A6008688001FCD58A68F4
:1008500042F003028A60886800F00C000C28FAD18C
:100860008868144C20F0F0008860886820F4E0600C
:10087000886020468A6822F460528A6000F0E4F8BA
:10088000204600F0EDF80C48016821F00C010160F1
:1008900010BD000058100240040000200CED00E0E4
:1008A0000003FA05002002400070004000100240E2
:1008B0008C80FFF900B4C40488100240324981B032
:1008C0000A6802430A60096808400090009801B075
:1008D000704730B589B00C22002106A8FFF7A8FDAB
:1008E000182200216846FFF7A3FD0420FFF7E6FF6A
:1008F0008020FFF7E3FF0120FFF7E0FF0220FFF772
:10090000DDFF4FF09041B020204C88624FF400553D
:100910001F48A5620122016821F0F00141F0200189
:1009200001608DF820200021022207918DF821100E
:100930008DF82220069506A800F09AF81548C1689F
:1009400021F04061C1600121026822F04062026032
:10095000B0200090019100220292039200F01CF856
:100960004020002100900191012200F015F80121A2
:10097000019100220292039204920095694620465A
:1009800000F014F909B030BD4C10024000040048DA
:100990001400014000080048049269464FF090405E
:1009A00000F004B910B58EB01C22002107A8FFF793
:1009B0003FFD1822002101A8FFF73AFD2048214CF5
:1009C000C16841F40031C1600223C16801F4003103
:1009D00000910099026842F0010202600C22006856
:1009E00000F0010000904FF0904000990192032127
:1009F000002204920592039107220293069201A914
:100A000000F0D4F84FF4E1300021079008910991EB
:100A10000A910C220C910D910B9207A9204600F02F
:100A20004BF9606820F490406060A06820F02A00D4
:100A3000A060216841F0010121600EB010BD00BF2F
:100A40004C100240004400404FF47A720649B0FB5B
:100A5000F2F0401E486000238B600520086070475C
:100A6000024908607047000010E000E0000000202C
:100A700030B5027A03684C4C0021002A00F08080D7
:100A8000002B3CD0427A1AB1022A0ED009D314E0CE
:100A9000656825EA030363602368026813432360E3
:100AA0000CE0256825EA030301E025682B43236059
:100AB000636802681343636000E00121827AF2B147
:100AC000012A04D019D3032A0ED009D315E0E36814
:100AD00002689343E360A36802681343A3600EE0D7
:100AE000A3680268934302E0A36802681343A3600B
:100AF000E36802681343E36001E041F002014268E9
:100B0000002A4DD0437A1BB1022B0ED009D314E03A
:100B1000656A25EA02026262236A4268134323621D
:100B20000DE0236A23EA020201E0236A1A432262EB
:100B3000656A42681543656201E041F00401827A0A
:100B400072B3012A04D019D3032A0ED009D315E0B9
:100B5000E36A42689343E362A36A40680343A36283
:100B60001EE0A36A4268934302E0A36A426813430B
:100B7000A362E36A40680343E36211E001210FE0EE
:100B8000256825EA03032360636802689343636072
:100B9000236A426893432362636A406883436362C3
:100BA000084630BD0000000000040140F0B50B46CF
:100BB0000246186890FAA0F0B0FA80F60F240325D8
:100BC0003EE0090A00F04DF8576A00F051F8506213
:100BD00035E00120B040014031D05868176800F07E
:100BE00053F84FEA4C0E00FA0EF038431060586884
:100BF000012818BF022809D19868976800F044F8C6
:100C00004FEA4C0E00FA0EF03843906091FAA1FCC6
:100C10001869D76800F03AF84FEA4C0E00FA0EF067
:100C20003843D0605868022809D15869B1F5807FEF
:100C3000C7D200F016F8176A00F01AF81062761C96
:100C4000196831FA06F0C4D15868012818BF022883
:100C500005D15468D8688C4341432143516000203A
:100C6000F0BD91FAA1FCBCFA8CFC91FAA1F170479D
:100C70004FEA8C0CB1FA81F104FA0CFC890027EAE6
:100C80000C0788403843704791FAA1FCBCFA8CFCF1
:100C90004FEA4C0C05FA0CFC27EA0C0791FAA1FC70
:100CA000BCFA8CFC70477047FEE7FEE7FEE7FEE704
:100CB000704770477047704770B504460E4620680D
:100CC0000125C10744D42268264871680240F068B3
:100CD0000A4331690243B0690A43024322606168F2
:100CE000B06821F4405101436160A168706921F44A
:100CF00040710143A16018498C4208BF032008D00D
:100D000016498C4208BF0C2003D0154884421FD1DD
:100D10003020FFF743FC00281CBF3168002917D0A2
:100D2000B36900254A08B3F5004F0CD102EB40022D
:100D3000B2FBF1F080B24FF6F0710140C0F3420017
:100D40000143E16004E01018B0FBF1F080B2E06014
:100D5000284670BD000000000038014000440040FB
:100D600000480040F369FFEF0C49086840F00100BB
:100D7000086000228A604FF480520B6808480340E4
:100D80000B60CA6000200B68064A23F480230B60C6
:100D900088614FF000611160704700000010024050
:100DA000FFFFF6EA08ED00E0000000000000000090
:100DB0000102030406070809A0860100400D030094
:100DC000801A060000350C0040420F0080841E008F
:100DD00000093D0000127A000024F40000366E0184
:100DE0000048E801006CDC0210B50749794418316D
:100DF000064C7C44163404E00A68081D11448847F8
:100E00000146A142F8D110BD080000001800000002
:100E10005FF7FFFF0C0000007000000000000020E2
:100E20000000000000F00DF8002801D0FFF7DCFF03
:100E3000AFF300800020AFF30080FFF7A1FC00F0CB
:100E400002F80120704700F001B80000074638465C
:100E500000F002F8FBE7000080B5AFF30080024A23
:100E600011001820ABBEFBE72600020001488047B6
:100E700001480047690D00087D0E0008AFF30080AF
:100E8000AFF30080FFF7CEFF00093D000000000037
:100E9000000000000000000001020304FFF7FEBF95
:100EA000FFF7FEBFFFF7FEBFFFF7FEBFFFF7FEBF76
:100EB000FFF7FEBFFFF7FEBFFFF7FEBFFFF7FEBF66
:100EC000FFF7FEBFFFF7FEBFFFF7FEBFFFF7FEBF56
:100ED000FFF7FEBFFFF7FEBFFFF7FEBFFFF7FEBF46
:100EE000FFF7FEBFFFF7FEBFFFF7FEBFFFF7FEBF36
:100EF000FFF7FEBFFFF7FEBFFFF7FEBFFFF7FEBF26
:100F0000FFF7FEBFFFF7FEBFFFF7FEBFFFF7FEBF15
:100F1000FFF7FEBFFFF7FEBFFFF7FEBFFFF7FEBF05
:100F2000FFF7FEBFFFF7FEBFFFF7FEBFFFF7FEBFF5
:100F3000FFF7FEBFFFF7FEBFFFF7FEBFFFF7FEBFE5
:100F4000FFF7FEBFFFF7FEBFFFF7FEBFFFF7FEBFD5
:100F5000FFF7FEBFFFF7FEBFFFF7FEBFFFF7FEBFC5
:100F6000FFF7FEBFFFF7FEBFFFF7FEBFFFF7FEBFB5
:0C0F7000FFF7FEBFFFF7FEBFFFF7FEBF5C
:0400000508000E7D64
:00000001FF
