:020000040800F2
:1000000028050020192900083D2800083F2800087D
:100010004128000843280008452800080000000087
:100020000000000000000000000000004728000859
:1000300049280008000000004B2800084D2800084F
:10004000492900084D2900085129000855290008B0
:10005000592900085D290008612900086529000860
:10006000692900086D290008712900087529000810
:10007000792900087D2900088129000885290008C0
:10008000892900088D290008912900080000000036
:10009000000000000000000000000000952900089A
:1000A000992900089D290008A1290008A529000810
:1000B000A92900080000000000000000AD29000888
:1000C000B1290008B5290008B9290008BD29000890
:1000D000C1290008C5290008C9290008CD29000840
:1000E00055280008D1290008000000000000000089
:1000F0000000000000000000000000000000000000
:1001000000000000000000000000000000000000EF
:100110000000000000000000D529000800000000D9
:10012000D9290008DD290008E1290008E52900088F
:10013000E9290008000000000000000000000000A5
:10014000ED290008F1290008F5290008F92900081F
:10015000FD290008012A0008052A0008092A0008CC
:100160000D2A0008112A000800000000000000000D
:1001700000000000152A0008000000000000000038
:10018000192A00081D2A0008212A00082DE9FC4729
:100190000500002D01D101203FE3DFF8A488D8F845
:1001A000004014F00C04DFF820793E6816F00306D6
:1001B0002878C00640F1AC80002C03D00C2C76D1FE
:1001C000012E74D1DFF87498D9F80000800704D5A7
:1001D000E869002801D101201FE3D9F800000007D9
:1001E00004D5D9F8000010F0F00005E0DFF8DC08D5
:1001F0000068000910F0F000696A884237D2686A26
:1002000000F024FC002801D0012006E3D9F800000A
:1002100050F00800C9F80000D9F8001031F0F001E2
:10022000686A0143C9F80010DFF8A408016831F4D6
:100230007F412A6A51EA0221016000F095FBDFF854
:100240009418D8F80020C2F30312895C11F01F0142
:10025000C840DFF8F0170860DFF8EC07006800F02E
:100260004FFC0100C9B2002952D0C0B2D5E2D9F882
:10027000000050F00800C9F80000D9F8001031F073
:10028000F001686A0143C9F80010DFF8440801680A
:1002900031F47F412A6A51EA02210160002CCCD15D
:1002A000686A00F0D3FB0028C7D00120B5E2E869F6
:1002B000002840D0DFF88487D8F8000050F0010013
:1002C000C8F8000000F04AFC8146D8F8000080071A
:1002D00007D400F043FCB0EB09000328F5D303205A
:1002E0009BE2D8F8000050F00800C8F80000D8F8E9
:1002F000001031F0F001686A0143C8F80010DFF81F
:10030000D007016831F47F412A6A51EA0221016075
:100310002878C0076DD5082C03D00C2C22D1032ED1
:1003200020D1DFF818070068800362D568680028CC
:100330005FD1012071E2DFF80487D8F8000040089F
:100340004000C8F8000000F009FC8146D8F8000021
:100350008007DDD500F002FCB0EB09000328F5D3DF
:1003600003205AE26868B0F5803F06D1DFF8CC067A
:10037000016851F48031016018E06868B0F5A02F81
:100380000AD1DFF8B806016851F4802101600168E4
:1003900051F48031016009E0DFF8A006016831F412
:1003A00080310160016831F48021016068680028B3
:1003B0000FD000F0D3FB8046DFF880060068800392
:1003C00017D400F0CBFBB0EB08006528F4D3032072
:1003D00023E200F0C3FB8046DFF86006006880037C
:1003E00007D500F0BBFBB0EB08006528F4D3032071
:1003F00013E22878800718D5042C03D00C2C29D1BF
:10040000022E27D1DFF834060068400504D5E868DD
:10041000002801D1012000E2DFF8B406016831F0C4
:10042000FE412A6951EA026101602878000740F123
:100430008C806869002872D0DFF890663068A969FE
:1004400010F01002914258D010F0030102293AD165
:100450000120E2E1E86800281FD0DFF8E085D8F845
:10046000000050F48070C8F8000000F077FB060030
:10047000D8F80000400506D400F070FB801B03286C
:10048000F6D30320C9E1DFF84806016831F0FE41E8
:100490002A6951EA02610160C7E7DFF8A085D8F850
:1004A000000030F48070C8F8000000F057FB060030
:1004B000D8F800004005B8D500F050FB801B032899
:1004C000F6D30320A9E1C00711D5306840084000E9
:1004D000306000F043FB80463068800707D500F0AD
:1004E0003DFBB0EB08001228F6D3032095E13168FC
:1004F00031F01001A86901433160306850F001000B
:10050000306000F02BFB8046306880071DD400F07F
:1005100025FBB0EB08001228F6D303207DE1DFF8BD
:10052000AC85D8F8000040084000C8F8000000F092
:1005300015FB0600D8F80000800706D500F00EFB7A
:10054000801B1228F6D3032067E12878400740F18A
:1005500089805FF00008DFF880653068C0000AD449
:10056000306850F080503060306810F0805000905B
:1005700000985FF00108DFF86495D9F80000C00525
:1005800014D4D9F8000050F48070C9F8000000F0CD
:10059000E5FA8246D9F80000C00507D400F0DEFA7B
:1005A000B0EB0A000328F5D3032036E1287AC00710
:1005B0001AD5DFF82C05016831F080012A7A12F093
:1005C000800211430160297A490708D5016851F07A
:1005D00004010160016851F0010101600EE0016851
:1005E00051F00101016009E0DFF8F40401684908F5
:1005F00049000160016831F004010160A868002829
:1006000011D000F0ABFA8146DFF8D404006880070F
:100610001FD400F0A3FAB0EB090041F289318842FF
:10062000F2D30320F9E000F099FA8146DFF8B00434
:100630000168890709D500F091FAB0EB090041F291
:1006400089318842F2D30320E7E0016831F080016C
:1006500001605FFA88F8B8F1010F03D1306830F01B
:1006600080503060287880062ED5A86A002815D0E2
:10067000DFF87084D8F8000050F00100C8F80000DE
:1006800000F06CFA0600D8F8000080071CD400F0D7
:1006900065FA801B0328F6D30320BEE0DFF844840C
:1006A000D8F8000040084000C8F8000000F056FAF2
:1006B0000600D8F80000800706D500F04FFA801B2E
:1006C0000328F6D30320A8E0E86A002800F0A480FD
:1006D000E86A022840F08180386810F003012A6B34
:1006E00091421CD110F070016A6B521EB1EB021FD7
:1006F00015D110F4FE41AA6BB1EB022F0FD110F40B
:10070000C001EA6B5208521EB1EB425F07D110F0F4
:10071000C060296C4908491EB0EB416F43D00C2CD6
:100720003FD0DFF81843206830F08070206000F080
:1007300015FA06002068800106D500F00FFA801B2C
:100740000328F7D3032068E03968DFF89C030140F1
:10075000286B0143686B401E51EA0011A86B51EAF7
:100760000021E86B4008401E51EA4051286C4008C7
:10077000401E51EA40613960206850F0807020606E
:10078000386850F08070386000F0E8F905002068A3
:10079000800141D400F0E2F9401B0328F7D3032085
:1007A0003BE0012039E0DFF894422068800133D437
:1007B000206850F080702060386850F08070386099
:1007C00000F0CCF905002068800125D400F0C6F9BE
:1007D000401B0328F7D303201FE00C2C1AD0DFF8AE
:1007E0005C52286830F0807028603868800880008B
:1007F0003860386830F08870386000F0AFF9040075
:100800002868800108D500F0A9F9001B0328F7D358
:10081000032002E0012000E00020BDE8F6872DE97A
:10082000F04104000E00002C01D101209AE0DFF815
:10083000BC52286810F00700B0420BD22868C008EC
:10084000C00030432860286810F00700B04201D093
:10085000012087E02078C00740D56068032806D1D2
:10086000DFF8D801006880011CD401207AE06068BC
:10087000022806D1DFF8C4010068800312D40120E9
:1008800070E06068002806D1DFF8B00100688007DA
:1008900008D4012066E0DFF8A4010068400501D417
:1008A00001205FE0DFF89871396889088900606885
:1008B0000143396000F052F98046386810F00C00AE
:1008C0006168B0EB810F09D000F048F9B0EB080087
:1008D00041F289318842F0D3032043E02078800739
:1008E00007D5DFF85C110A6832F0F002A068024315
:1008F0000A60286810F0070086420BD22868C008FA
:10090000C00030432860286810F00700B04201D0D2
:10091000012027E02078400706D549490A6832F4CB
:10092000E062E06802430A602078000707D5444887
:10093000016831F46051226951EAC201016000F09E
:1009400013F8DFF890113E4A1268C2F30312895C73
:1009500011F01F01C8403B4908603B48006800F0A7
:10096000CFF8C0B2BDE8F08110B4002300213448B4
:10097000006810F00C00544A146814F003040028B6
:1009800003D00C2814D1012C12D12C4B1C68240745
:1009900004D44E4B1B68C3F3032302E01B68C3F36C
:1009A0000313534C54F82330002808D1190006E0F3
:1009B000042801D14F4902E0082800D14E490C28F3
:1009C0001CD1106810F00300022802D0032802D0C6
:1009D00003E0484B01E0484BFFE71068C0F3021109
:1009E000491C1068C0F306204343B3FBF1F01168C3
:1009F000C1F34161491C4900B0FBF1F1080010BC92
:100A0000704710480068704780B5FFF7FAFF3B4910
:100A10000B4A1268C2F30222895C11F01F01C84020
:100A200002BD80B5FFF7EDFF3449054A1268C2F3F5
:100A3000C222895C11F01F01C84002BD00100240B3
:100A40000810024004000020000000207CB50500D2
:100A50000024214E3068C00002D500F085F80EE079
:100A6000306850F080503060306810F08050009056
:100A7000009800F079F8316831F080513160B0F5BC
:100A8000007F07D1812D10D3A12D01D302240CE0CA
:100A900001240AE0812D01D3032406E0802D01D139
:100AA000022402E0702D00D1012410480168C90819
:100AB000C90021430160006810F00700A04201D086
:100AC000012000E0002076BD0C100240941002408E
:100AD000041002400829000858100240007000402D
:100AE00090100240981002408C809FF90020024034
:100AF000E42700080024F400001BB7004029000888
:100B000038B5040000251249087800281BD04FF49E
:100B10007A700978B0FBF1F00E490968B1FBF0F08A
:100B200000F0EBF800280CD1102C08D20022210094
:100B30005FF0FF3000F0CBF80748046004E00125C7
:100B400002E0012500E001252800C0B232BD00BF4F
:100B50000800002004000020000000200148006878
:100B6000704700BF24010020DFF87C00006810F40B
:100B7000C0607047B0F5007F25D1DFF86C000168D8
:100B800011F4C061B1F5007F2BD0016831F4C06170
:100B900051F400710160DFF85400016832204143D4
:100BA000DFF84C00B1FBF0F0401C00E0401EDFF825
:100BB00044100A68520501D50028F7D1086840059D
:100BC0000FD503200EE0DFF82000016811F4C061AA
:100BD000B1F5806F05D0016831F4C06151F48061D6
:100BE00001600020704700000070004004000020F9
:100BF00040420F001470004010F00700414B1A688B
:100C00004FF6FF010A40404951EA00210A431A60A9
:100C100070473C480068C0F302207047010049B2A9
:100C2000002908D4012210F01F018A40374940B240
:100C3000400941F820207047020052B2002A04D433
:100C40000901334A40B2115407E00901314A40B268
:100C500010F00F00104400F8041C704710B410F09E
:100C60000700D0F10703052B01D3042301E0D0F1E5
:100C70000703041D072C01D2002000E0C01E012440
:100C800014FA03F35B1E1940814014FA00F0401E71
:100C90001040084310BC704780B5411EB1F1807F01
:100CA00001D301200EE0401E1B4908600F215FF0B8
:100CB000FF30FFF7C1FF00201849086007201849DE
:100CC0000860002002BD80B5FFF796FF01BD70B53A
:100CD00004000D0016000020FFF79BFF32002900E2
:100CE000FFF7BCFF0100200040B2FFF7A5FF70BD79
:100CF00080B540B2FFF792FF01BD80B5FFF7CCFF92
:100D000002BD00000CED00E00000FA0500E100E08B
:100D100000E400E018ED00E014E000E018E000E07E
:100D200010E000E010B50400002C01D1012035E0F6
:100D300094F83D00002805D1002084F83C002000F4
:100D400000F04CFB022084F83D00211D206800F0DB
:100D500083F9012084F84800012084F83E00012036
:100D600084F83F00012084F84000012084F841000D
:100D7000012084F84200012084F84300012084F817
:100D80004400012084F84500012084F84600012039
:100D900084F84700012084F83D00002010BD10B504
:100DA0000400002C01D1012035E094F83D0000281A
:100DB00005D1002084F83C00200000F0FEFA02205B
:100DC00084F83D00211D206800F046F9012084F8D8
:100DD0004800012084F83E00012084F83F000120F3
:100DE00084F84000012084F84100012084F842008A
:100DF000012084F84300012084F84400012084F895
:100E00004500012084F84600012084F847000120B5
:100E100084F83D00002010BD38B504000D0094F8A2
:100E20003C00012801D10220A0E0012084F83C0010
:100E3000002A0AD0042A1FD0082A35D00C2A4AD00A
:100E4000102A60D0142A75D08CE02900206800F0A8
:100E50003AF92068806950F00800216888612068AC
:100E6000806930F004002168886120688169286900
:100E700001432068816175E02900206800F05EF977
:100E80002068806950F4006021688861206880696A
:100E900030F480602168886120688069296950EA9F
:100EA0000120216888615DE02900206800F07DF95B
:100EB0002068C06950F008002168C8612068C069D6
:100EC00030F004002168C8612068C16928690143C5
:100ED0002068C16146E02900206800F09CF9206884
:100EE000C06950F400602168C8612068C06930F4AE
:100EF00080602168C8612068C069296950EA0120C2
:100F00002168C8612EE02900206800F0AEF9206851
:100F1000406D50F00800216848652068406D30F051
:100F20000400216848652068416D286901432068F4
:100F3000416517E02900206800F0BDF92068406D88
:100F400050F40060216848652068406D30F480608E
:100F5000216848652068406D296950EA01202168B0
:100F60004865FFE7002084F83C00002032BD10B542
:100F7000040094F83C00012801D102206BE001201C
:100F800084F83C00022084F83D0020688268DFF885
:100F90007403024032F47F422068826008680028AF
:100FA0004DD010284BD0202849D0302847D0402899
:100FB0003BD0502825D060282DD0702807D0B0F520
:100FC000805F03D0B0F5005F0ED03DE03CE0CB6821
:100FD0004A688968206800F0CEF92068806850F07F
:100FE0007700216888602FE0CB684A6889682068AC
:100FF00000F0C1F92068806850F480402168886062
:1010000022E0CA684968206800F088F95021206809
:1010100000F0A9F918E0CA684968206800F090F962
:101020006021206800F09FF90EE0CA6849682068D6
:1010300000F074F94021206800F095F904E0096897
:10104000206800F090F9FFE7012084F83D000020BF
:1010500084F83C00002010BD10B40368DFF8A842FB
:10106000A04202D0B0F1804F03D133F070034A6840
:101070001343A0420AD0B0F1804F07D0DFF88C2292
:10108000904203D0DFF88822904203D133F44073BA
:10109000CA68134333F080034A69134303608A68C4
:1010A000C2620A688262A04207D0DFF860229042E2
:1010B00003D0DFF85C22904201D10969016301216C
:1010C000416110BC704770B4026A5208520002625B
:1010D000056A43688469DFF83C221440A408A40030
:1010E0000A68144335F002058A681543DFF8186270
:1010F000B04206D0DFF81422904202D0844A9042D7
:1011000005D135F00805CA68154335F00405B0422D
:1011100005D07E4A904202D07D4A904207D133F4F6
:10112000807333F400734A6913438A69134343603D
:10113000846149684163056270BC704770B4026A9B
:1011400032F010020262036A45688469724A1440F0
:1011500034F440740A6854EA022433F020038A68A5
:1011600053EA0213684A904206D133F08003CE68F6
:1011700053EA061333F04003904205D0634A90428D
:1011800002D0634A904209D135F4806535F4006598
:101190004A6955EA82058A6955EA82054560846193
:1011A00049688163036270BC704770B4026A32F4AC
:1011B00080720262036A4568C469564A1440A408F2
:1011C000A4000A68144333F400738A6853EA0223C4
:1011D0004D4A904206D133F40063CE6853EA0623A9
:1011E00033F48063904205D0484A904202D0484A86
:1011F000904209D135F4805535F400554A6955EAD5
:1012000002158A6955EA02154560C4614968C163DF
:10121000036270BC704730B4026A32F480520262DA
:10122000046A4568C3693C4A134033F440730A6852
:1012300053EA022334F400548A6854EA0234324AEE
:10124000904205D0314A904202D0314A904204D1B6
:1012500035F480454A6955EA82154560C36149689D
:101260000164046230BC7047000030B4026A32F49A
:1012700080320262046A4568436D264A13400A6858
:10128000134334F400348A6854EA02441E4A9042FC
:1012900005D01E4A904202D01D4A904204D135F436
:1012A00080354A6955EA022545604365496881658C
:1012B000046230BC704730B4026A32F480120262B9
:1012C000046A4568436D144A13400A6853EA0223CE
:1012D00034F400148A6854EA02540B4A904205D050
:1012E0000A4A904202D00A4A904204D135F480253D
:1012F0004A6955EA8225456043654968C1650462CB
:1013000030BC704788FFFEFF002C014000400140C8
:10131000004401408FFFFEFFFF8FFFFE10B4046A00
:10132000036A5B085B000362836933F0F00353EAEE
:10133000021334F00A0421438361016210BC704738
:1013400010B4036A33F0100303628369046A33F450
:10135000704353EA023334F0A00454EA0114836169
:10136000046210BC7047826832F0700251F00701CD
:1013700011438160704710B4846834F47F44114392
:1013800051EA03212143816010BC704781B063485A
:10139000016851F001010160006810F00100009047
:1013A00000985F48016851F080510160006810F0BA
:1013B00080500090009801B0704781B00068594992
:1013C000884209D15548016851F400610160006804
:1013D00010F400600090009801B0704781B0006880
:1013E000B0F1804F09D14E48016851F00101016010
:1013F000006810F001000090009801B0704710B52F
:1014000086B0040014220021684600F093F820689A
:101410004449884232D14448016851F002010160D8
:10142000016811F0020105910599016851F001016F
:101430000160006810F00100059005984FF400501D
:1014400000900220019000200290002003900120D3
:1014500004906946354800F077F84FF480700090AA
:1014600002200190002002900020039001200490AF
:1014700069465FF0904000F067F81CE02068B0F12A
:10148000804F18D12848016851F0010101600068BF
:1014900010F00100059005980220009002200190B4
:1014A00000200290002003900120049069465FF024
:1014B000904000F049F806B010BD10B586B00400A9
:1014C0001422002101A800F035F82068184988424C
:1014D00022D11348016851F400310160006810F412
:1014E0000030009000981048016851F0010101603F
:1014F000006810F00100009000980C20019002207C
:10150000029000200390032004900720059001A979
:101510005FF0904000F018F806B010BD6010024077
:1015200058100240002C01404C10024000040048BA
:101530000044004010B5044610460A4601462046C5
:1015400000F018F9204610BDF8B40200002432E083
:10155000072704E0DFF8B8319A42F9D1032714F0E5
:101560000303DBB29B009F403E4323009B0845F8EA
:101570002360684D2B6883434E68F60300D5034310
:101580002B60654D2B6883434E68B60300D503433B
:101590002B60624D2B6883434E68F60200D50343EF
:1015A0002B605F4D2B6883434E68B60201D518430C
:1015B00003002B60641C0868E040002800F08F8066
:1015C0000125086815FA04F318400028F2D04B688A
:1015D000012B08D04B68022B05D04B68112B02D091
:1015E0004B68122B16D1966803272300DBB25B00F1
:1015F0009F40BE43CF682300DBB25B009F403E4369
:1016000096605368A540AB434D68C5F30015A540EF
:101610002B435360D66803252300DBB25B0015FA29
:1016200003F39E438F682300DBB25B009F403E4381
:10163000D6604B68022B02D04B68122B17D12300C7
:10164000DB0802EB83031E6A0F2714F00703DBB2EB
:101650009B009F40BE430F6914F00703DBB29B0061
:101660009F403E432300DB0802EB83031E621668A3
:101670002300DBB25B009D40AE430D7915F00305FE
:101680002300DBB25B009D402E4316604B68DB00FD
:1016900090D5244B1D6855F001051D601B6813F0A3
:1016A00001030093009B204D23009B0855F8236005
:1016B0000F2714F00303DBB29B009F40BE43B2F13F
:1016C000904F01D100274AE7184B9A4201D10127D8
:1016D00045E7174B9A427FF43DAF02273FE7F1BC45
:1016E0007047D2B2002A02D089B2816101E089B28A
:1016F0008162704780B50F490A6803009BB21A42A5
:1017000005D0020092B20A6080B200F015F801BD67
:10171000000C00480004014004040140080401409A
:101720000C04014060100240080001400004004821
:101730000008004814040140704730B4002513E04D
:1017400050F8042BD30744BFA9F101039A18091FCD
:10175000042942F8045BFAD213468C0744BF158073
:101760009B1CC90748BF1D7050F8041B0029E7D116
:1017700030BC704762F30F2262F31F42401810F032
:10178000030308D0C91A1FD3DB0748BF00F8012D97
:1017900028BF20F8022D130030B414461546103926
:1017A00028BF20E93C00FAD8490728BF20E90C00EF
:1017B00048BF40F8042D890028BF20F8022D48BFFB
:1017C00000F8012D30BC7047C91818BF00F8012D72
:1017D000CB0728BF00F8012D704730B40EE0026837
:1017E000436802440830DC0744BFA9F10104E31850
:1017F00052F8045B43F8045B091FF9D150F8041B4D
:101800000029ECD130BC704710B50400002C01D188
:10181000012035E0A0690028FFD1606F002805D1C4
:10182000002084F870002000FFF747FE2420606746
:10183000206800684008400021680860200000F02F
:1018400020F8012801D101201AE0606A002802D0A6
:10185000200000F071F92068406830F49040216861
:1018600048602068806830F02A002168886020681D
:10187000006850F0010021680860200000F0C9F9FC
:1018800010BD38B504000025A34920688842FFD068
:10189000A2682069024360690243E069024320684C
:1018A00003689E4803401A4320680260206842682B
:1018B00032F44052E068024320684260A269206826
:1018C000884201D0206A02432068806830F430608A
:1018D0000243206882602068914A904215D1914865
:1018E000006810F00300002805D0022805D006D3B8
:1018F000032806D007E001205BE0022059E0042025
:1019000057E0082055E0102053E02068864A9042B6
:1019100016D18448006810F00C00002806D0042876
:1019200008D0082804D00C2806D007E0002040E0AA
:1019300002203EE004203CE008203AE0102038E09D
:1019400020687A4A904216D17648006810F030003C
:10195000002806D0102808D0202804D0302806D02F
:1019600007E0002025E0022023E0042021E00820F9
:101970001FE010201DE02068884219D169480068E6
:1019800010F44060002809D0B0F5806F0AD0B0F59F
:10199000006F05D0B0F5406F06D007E0002008E0EA
:1019A000022006E0042004E0082002E0102000E00D
:1019B000102022688A423DD1C0B2002806D00228F9
:1019C00008D0042808D008280AD00CE0FFF71CF83B
:1019D00002000AE0564A08E0FEF7C6FF020004E0F3
:1019E0004FF4004201E000220125002A00F08B8024
:1019F0006168032041438A4205D361684FF48050F7
:101A00004143914201D201257DE04FF4807360682B
:101A100040080021E3FB02016268002300F086F920
:101A2000B0F54071434A914202D22168C8606AE031
:101A3000012568E0E169B1F5004F35D1C0B2002859
:101A400008D0012809D002280AD004280AD0082882
:101A50000BD00DE0FEF7D8FF0CE0FEF7E2FF09E047
:101A6000334807E0FEF780FF04E04FF4004001E058
:101A700000200125002846D06168490811EB40018B
:101A80006068B1FBF0F080B24FF6F071B0F1100277
:101A90008A4207D20140C0F34200014389B2206864
:101AA000C16030E001252EE0C0B2002808D0012836
:101AB00009D002280AD004280AD008280BD00DE04B
:101AC000FEF7A2FF0CE0FEF7ACFF09E0184807E0C4
:101AD000FEF74AFF04E04FF4004001E0002001253A
:101AE000002810D0616810EB51006168B0FBF1F084
:101AF00080B2B0F110014FF6F072914202D221682B
:101B0000C86000E0012500202066002060662800F3
:101B1000C0B232BD0000000000800040F369FFEF5A
:101B20000038014088100240004400400048004056
:101B30000024F40000FD0F0090F82410C90707D519
:101B400001684A6832F40032816A0A4301684A60D7
:101B500090F82410890707D501684A6832F480326A
:101B6000C16A0A4301684A6090F82410490707D502
:101B700001684A6832F48022016B0A4301684A60B6
:101B800090F82410090707D501684A6832F400422A
:101B9000416B0A4301684A6090F82410C90607D5D2
:101BA00001688A6832F48052816B0A4301688A6056
:101BB00090F82410890607D501688A6832F400522B
:101BC000C16B0A4301688A6090F82410490613D556
:101BD00001684A6832F48012016C0A4301684A6065
:101BE000016CB1F5801F07D101684A6832F4C00268
:101BF000416C0A4301684A6090F82410090607D531
:101C000001684A6832F40022816C0A43006842602D
:101C1000704738B504000020E067FEF79FFF05001D
:101C20002068006800070DD57FF07E4000902B00F3
:101C300000225FF40011200000F01FF8002801D0FE
:101C4000032019E02068006840070DD57FF07E4032
:101C500000902B0000225FF48001200000F00DF8BE
:101C6000002801D0032007E0202060672020A06723
:101C7000002084F87000002032BD2DE9F0410500FD
:101C80000E0090461F00069C2868C0693040B04294
:101C900001D1012000E000204146C9B2884241D173
:101CA00014F1010FF0D0FEF759FFC01B844201D39D
:101CB000002C14D12868006830F4D07029680860BE
:101CC000286880684008400029688860202068678C
:101CD0002020A867002085F87000032023E02868F2
:101CE00000684007D0D52868C0690005CCD54FF4FE
:101CF0000060296808622868006830F4D07029689C
:101D000008602868806840084000296888602020B2
:101D100068672020A8672020E867002085F8700009
:101D2000032000E00020BDE8F0810000BBBBE1B172
:101D3000B2F5803F80F07E80022A1ED98C46B1FB2E
:101D4000F2F102FB11C31B0443EA1043B3FBF2FCA4
:101D500002FB1C3380B240EA0343B3FBF2F002FB08
:101D6000103240EA0C4000237047022A05D984460D
:101D7000B0FBF2F002FB10C270474AB105D100F08F
:101D8000010249085FEA30007047002200237047D3
:101D900000F0E4B80B0002000021002070479042E0
:101DA00071EB030CF6D3B3F5803F2FD2F0B5B3FA45
:101DB00083F7B1FA81F4A7F10F0E3D1B5340CEF12A
:101DC000200602FA0EF2F3415340B5F10F0746D850
:101DD0000F3C2C444140C4F12006A040F141414059
:101DE000B1FBF3F603FB1611A2FB0645001BA9414C
:101DF00002D2761E8018594180EA010221FA0EF3C0
:101E000062FA0EF200215A403046F0BD30B4B1FB08
:101E1000F3FC03FB1C11A2FB0C45001BA94103D2E0
:101E2000ACF1010C8018594130BC02460B466046AB
:101E300000217047B2F1807F65D3F0B5B2FA82F726
:101E4000B1FA81F4C7F10F063D1B22FA06F307F140
:101E5000110EF24120355A40B5F10F07B8D9414073
:101E6000C4F12006A040F1414140B1FBF3FC03FB6B
:101E70001C11A2FB0C45001BA94103D2BCF1010CB3
:101E8000801859410F2F12D30F3FC90341EA504127
:101E9000B1FBF3F603FB1611A2FB0645D4EBC030F1
:101EA000A94102D2761E8018594146EACC3C07B3BC
:101EB0004140C7F12006B840F1414140B1FBF3F683
:101EC00003FB1611A2FB0645001BA94102D2761E98
:101ED0008018594180EA010221FA0EF3C7F120046B
:101EE00062FA0EF20CFA07F05A402CFA04F1304371
:101EF000F0BD80EA010221FA0EF3002162FA0EF22F
:101F000060465A40F0BD8C46B1FBF2F102FB11C3B2
:101F10001B0243EA1063B3FBF2FC02FB1C331B02FF
:101F20004CEA002043EA1063B3FBF2FC02FB1C33D3
:101F30001B024CEA002043EA1063B3FBF2FC02FBF5
:101F40001C331B024CEA002043EA1063B3FBF2FC93
:101F500002FB1C324CEA002000237047704700004F
:101F600080B500F0E9F900F011F800F042F900F056
:101F700022F900F053F800F0C4F80021E34800F023
:101F8000EDF900200020ADF80000FEE700B5A3B099
:101F90004422002112A8FFF7CDFA1422002168463E
:101FA000FFF7C8FA3422002105A8FFF7C3FA4FF45F
:101FB0000070FEF7DFFD002801D000F0BBF9022021
:101FC00012904FF4807015904020169000201D90C4
:101FD00012A8FEF7DBF8002801D000F0ABF90F20C3
:101FE000009001200190002002900020039000202A
:101FF000049000216846FEF712FC002801D000F092
:1020000099F9022005900020079005A800F0A2FA97
:10201000002801D000F08EF923B000BD18B595B0AE
:102020000C2200216846FFF785FA1C2200210EA829
:10203000FFF780FA2C22002103A8FFF77BFAB34CAC
:10204000B3482060002060600020A0604EF6602051
:10205000E06000202061002060610020A06120007D
:10206000FEF79DFE002801D000F064F900200090EA
:1020700000200190002002906946200000F0D4F971
:10208000002801D000F056F960200E904FF4FA605D
:102090000F9000201090002011900020129000203E
:1020A00013900020149000220EA92000FEF7B4FE29
:1020B000002801D000F03EF9002003900020049099
:1020C0000020059000200690002007904FF400505B
:1020D00008900020099000200A905FF000700B909B
:1020E00000200C9000200D9003A9200000F0D5F9ED
:1020F000002801D000F01EF92000FFF780F916B08B
:1021000010BD10B58EB0102200210AA8FFF712FAF8
:102110000C2200216846FFF70DFA1C22002103A8BB
:10212000FFF708FA7B4C5FF0804020604020606041
:102130000020A060FF20E060002020610020A0615E
:102140002000FEF7EFFD002801D000F0F3F84FF477
:1021500080500A900AA92000FEF709FF002801D04C
:1021600000F0E8F82000FEF71AFE002801D000F089
:10217000E1F800200090002002906946200000F065
:1021800053F9002801D000F0D5F86020039080209A
:1021900004900020059000200790042203A920004D
:1021A000FEF73AFE002801D000F0C4F82000FFF747
:1021B00026F90EB010BD80B55748584901605FF44C
:1021C000E1314160002181600021C1600021016195
:1021D0000C214161002181610021C1610021016266
:1021E00000214162FFF710FB002801D000F0A2F8A7
:1021F00001BD10B586B0142200216846FFF79AF998
:102200004748016851F004010160016811F00401C0
:1022100005910599016851F080010160016811F094
:10222000800105910599016851F001010160016883
:1022300011F0010105910599016851F00201016059
:10224000006810F00200059005980022B0215FF0B0
:102250009040FFF746FA4FF400500090314801904B
:1022600000200290304C69462000FFF76DF941F6DE
:10227000DF7000900320019000200290694620004A
:10228000FFF762F949F601600090032001900020F9
:10229000029069465FF09040FFF756F9B020009039
:1022A00001200190002002900020039069465FF019
:1022B0009040FFF749F94020009000200190012054
:1022C000029069465FF09040FFF73EF94DF6F770D7
:1022D0000090032001900020029069461348FFF708
:1022E00033F90820009003200190002002906946F5
:1022F0000F48FFF729F9002200212820FEF7E7FC0C
:102300002820FEF7F5FC06B010BD00008C00002070
:10231000002C0140D80000200C00002000440040A8
:102320004C10024000002110000800480004004842
:10233000001C00487047000010B500240320FEF781
:10234000C2FC0020FEF7DCFB002801D0012401E0E4
:10235000FFF71CF82000C0B210BD000010B504004B
:10236000002902D194F844000BE0042902D194F82A
:10237000450006E0082902D194F8460001E094F8EF
:102380004700012801D0012046E0002904D10220A5
:1023900084F84400C0B211E0042904D1022084F87A
:1023A0004500C0B20AE0082904D1022084F84600A2
:1023B000C0B203E0022084F84700C0B204222068C3
:1023C00000F0B4F82068406C50F400402168486484
:1023D00020681249884207D02068B0F1804F03D0AE
:1023E00020680F49884210D120688168DFF83400E6
:1023F000014006290FD0B1F5803F0CD0206800685D
:1024000050F001002168086005E02068006850F085
:10241000010021680860002010BD0000002C014070
:10242000004001400700010030B490F83C20012A30
:1024300001D102202FE0012280F83C20022280F806
:102440003D200268546802689368364D0268AA42CB
:1024500003D134F470044A68144334F070040A68F9
:102460001443026854600268AA4207D00268B2F1BD
:10247000804F03D002682C4CA24205D133F0800378
:1024800089680B4301688B60012180F83D100021B1
:1024900080F83C10002030BC704710B4002390F846
:1024A0003C20012A01D102203AE0012280F83C20A0
:1024B0001B0A1B02CA68134333F440738A68134330
:1024C00033F480634A68134333F400630A681343A8
:1024D00033F480530A69134333F400534A691343B6
:1024E00033F480438A6A134333F470238A6953EACE
:1024F000024302680B4CA2420CD133F470034A6AC7
:1025000053EA025333F08073CA69134333F0007304
:10251000096A0B4301684B64002180F83C100020DD
:1025200010BC7047002C01400040014010B404244E
:1025300011F01F0314FA03F3046A34EA030303627D
:10254000036A11F01F0112FA01F11943016210BC74
:10255000704700002DE9FC47040000270025206893
:10256000800373D55FF00008DFF804623068C000B4
:102570000AD4306850F080503060306810F08050DD
:10258000009000985FF00108DFF8E891D9F80000AA
:1025900050F48070C9F80000FEF7E0FA8246D9F8DE
:1025A0000000C00506D4FEF7D9FAB0EB0A000328F4
:1025B000F5D303273800C0B200283DD1DFF8B89129
:1025C000D9F8000010F44070002814D0216B884224
:1025D00011D0D9F8000030F44070D9F8001051F44F
:1025E0008031C9F80010D9F8001031F48031C9F8F1
:1025F0000010C9F80000C0070FD5FEF7AFFA8246F9
:10260000D9F80000800708D4FEF7A8FAB0EB0A005A
:1026100041F289318842F3D303273800C0B2002841
:1026200008D1D9F8001031F44071206B0143C9F88A
:10263000001002E03D0000E03D005FFA88F8B8F1CC
:10264000010F03D1306830F0805030602078C0072F
:1026500007D5DFF828110A689208920060680243E3
:102660000A602078800707D5DFF810110A6832F079
:102670000C02A06802430A602078400707D5DFF803
:10268000FC100A6832F03002E06802430A602078E9
:10269000800607D5DFF8E4100A6832F4406220694A
:1026A00002430A602068800507D5DFF8D0100A6869
:1026B00032F44022206A02430A602068400507D5B0
:1026C000DFF8B8100A6832F44012606A02430A6008
:1026D0002078400607D5DFF8A4100A6832F440528B
:1026E000606902430A602078000607D5DFF88C1085
:1026F0000A6832F44042A06902430A602068C005BB
:1027000007D5DFF878100A6832F44032E0690243F6
:102710000A602068800411D5DFF860100A6832F082
:102720004062A06A02430A60A06AB0F1006F05D15E
:10273000DFF84C00016851F480110160206840030B
:1027400011D5DFF838100A6832F04062E06A0243BF
:102750000A60E06AB0F1006F05D1DFF8240001687B
:1027600051F4801101602800C0B2BDE8F687000076
:102770005810024000700040901002408810024043
:102780000C1002401048016851F4700101600F49BB
:10279000086850F00100086000200D4A10600A68C7
:1027A0000C4802400A604FF480500B4A10600868E1
:1027B00030F4802008600020084908605FF0006065
:1027C000074908607047000088ED00E000100240F3
:1027D00008100240FFFFF6EA0C10024018100240F9
:1027E00008ED00E0A0860100400D0300801A0600FD
:1027F00000350C0040420F0080841E0000093D009F
:1028000000127A000024F40000366E010048E8014E
:10281000006CDC0210B5074979441831064C7C4441
:10282000163404E00A68081D114488470146A14295
:10283000F8D110BD68000000880000007047FEE776
:10284000FEE7FEE7FEE770477047704780B500F08F
:1028500007F801BD80B54FF40050FEF74BFF01BDF6
:1028600003480168034A127889180160704700BF65
:1028700024010020080000204EF68851CEF200010D
:10288000086840F470000860BFF34F8FBFF36F8F8C
:102890004FF00070E1EE100A704700009FEEFFFF5E
:1028A0001C0100000C000020000000002FEFFFFFC3
:1028B0000C0000008000000000000020000000006C
:1028C00000F00DF8002801D0FFF7A4FFAFF300805F
:1028D0000020AFF30080FFF743FB00F002F8012077
:1028E000704700F001B800000746384600F002F8D3
:1028F000FBE7000080B5AFF30080024A110018200A
:10290000ABBEFBE726000200000000000000000054
:1029100001020304060708090148804701480047EF
:102920008527000829290008AFF30080FFF7A4FFDE
:10293000FFF7C6FF1000000000093D000100000085
:102940000000000001020304FFF7FEBFFFF7FEBF17
:10295000FFF7FEBFFFF7FEBFFFF7FEBFFFF7FEBFAB
:10296000FFF7FEBFFFF7FEBFFFF7FEBFFFF7FEBF9B
:10297000FFF7FEBFFFF7FEBFFFF7FEBFFFF7FEBF8B
:10298000FFF7FEBFFFF7FEBFFFF7FEBFFFF7FEBF7B
:10299000FFF7FEBFFFF7FEBFFFF7FEBFFFF7FEBF6B
:1029A000FFF7FEBFFFF7FEBFFFF7FEBFFFF7FEBF5B
:1029B000FFF7FEBFFFF7FEBFFFF7FEBFFFF7FEBF4B
:1029C000FFF7FEBFFFF7FEBFFFF7FEBFFFF7FEBF3B
:1029D000FFF7FEBFFFF7FEBFFFF7FEBFFFF7FEBF2B
:1029E000FFF7FEBFFFF7FEBFFFF7FEBFFFF7FEBF1B
:1029F000FFF7FEBFFFF7FEBFFFF7FEBFFFF7FEBF0B
:102A0000FFF7FEBFFFF7FEBFFFF7FEBFFFF7FEBFFA
:102A1000FFF7FEBFFFF7FEBFFFF7FEBFFFF7FEBFEA
:042A2000FFF7FEBFFF
:04000005080029299D
:00000001FF
