:020000040800F2
:1000000090040020AD1E0008591D00085B1D00086B
:100010005D1D00085F1D0008611D00080000000054
:10002000000000000000000000000000631D000848
:10003000651D000800000000671D0008691D00081C
:10004000DD1E0008E11E0008E51E0008E91E00088C
:10005000ED1E0008F11E0008F51E0008F91E00083C
:10006000FD1E0008011F0008051F0008091F0008E9
:100070000D1F0008111F0008151F0008191F000898
:100080001D1F0008211F0008251F00080000000098
:10009000000000000000000000000000291F000810
:1000A0002D1F0008311F0008351F0008391F0008E8
:1000B0003D1F00080000000000000000411F000874
:1000C000451F0008491F00084D1F0008511F000868
:1000D000551F0008591F00085D1F0008611F000818
:1000E000711D0008651F00080000000000000000EE
:1000F0000000000000000000000000000000000000
:1001000000000000000000000000000000000000EF
:100110000000000000000000691F0008000000004F
:100120006D1F0008711F0008751F0008791F000867
:100130007D1F00080000000000000000000000001B
:10014000811F0008851F0008891F00088D1F0008F7
:10015000911F0008951F0008991F00089D1F0008A7
:10016000A11F0008A51F00080000000000000000FB
:1001700000000000A91F00080000000000000000AF
:10018000AD1F0008B11F0008B51F00082DE9FC478E
:100190000500002D01D101203FE3DFF8A488D8F845
:1001A000004014F00C04DFF820793E6816F00306D6
:1001B0002878C00640F1AC80002C03D00C2C76D1FE
:1001C000012E74D1DFF87498D9F80000800704D5A7
:1001D000E869002801D101201FE3D9F800000007D9
:1001E00004D5D9F8000010F0F00005E0DFF8DC08D5
:1001F0000068000910F0F000696A884237D2686A26
:1002000000F024FC002801D0012006E3D9F800000A
:1002100050F00800C9F80000D9F8001031F0F001E2
:10022000686A0143C9F80010DFF8A408016831F4D6
:100230007F412A6A51EA0221016000F095FBDFF854
:100240009418D8F80020C2F30312895C11F01F0142
:10025000C840DFF8F0170860DFF8EC07006800F02E
:100260004FFC0100C9B2002952D0C0B2D5E2D9F882
:10027000000050F00800C9F80000D9F8001031F073
:10028000F001686A0143C9F80010DFF8440801680A
:1002900031F47F412A6A51EA02210160002CCCD15D
:1002A000686A00F0D3FB0028C7D00120B5E2E869F6
:1002B000002840D0DFF88487D8F8000050F0010013
:1002C000C8F8000000F04AFC8146D8F8000080071A
:1002D00007D400F043FCB0EB09000328F5D303205A
:1002E0009BE2D8F8000050F00800C8F80000D8F8E9
:1002F000001031F0F001686A0143C8F80010DFF81F
:10030000D007016831F47F412A6A51EA0221016075
:100310002878C0076DD5082C03D00C2C22D1032ED1
:1003200020D1DFF818070068800362D568680028CC
:100330005FD1012071E2DFF80487D8F8000040089F
:100340004000C8F8000000F009FC8146D8F8000021
:100350008007DDD500F002FCB0EB09000328F5D3DF
:1003600003205AE26868B0F5803F06D1DFF8CC067A
:10037000016851F48031016018E06868B0F5A02F81
:100380000AD1DFF8B806016851F4802101600168E4
:1003900051F48031016009E0DFF8A006016831F412
:1003A00080310160016831F48021016068680028B3
:1003B0000FD000F0D3FB8046DFF880060068800392
:1003C00017D400F0CBFBB0EB08006528F4D3032072
:1003D00023E200F0C3FB8046DFF86006006880037C
:1003E00007D500F0BBFBB0EB08006528F4D3032071
:1003F00013E22878800718D5042C03D00C2C29D1BF
:10040000022E27D1DFF834060068400504D5E868DD
:10041000002801D1012000E2DFF8B406016831F0C4
:10042000FE412A6951EA026101602878000740F123
:100430008C806869002872D0DFF890663068A969FE
:1004400010F01002914258D010F0030102293AD165
:100450000120E2E1E86800281FD0DFF8E085D8F845
:10046000000050F48070C8F8000000F077FB060030
:10047000D8F80000400506D400F070FB801B03286C
:10048000F6D30320C9E1DFF84806016831F0FE41E8
:100490002A6951EA02610160C7E7DFF8A085D8F850
:1004A000000030F48070C8F8000000F057FB060030
:1004B000D8F800004005B8D500F050FB801B032899
:1004C000F6D30320A9E1C00711D5306840084000E9
:1004D000306000F043FB80463068800707D500F0AD
:1004E0003DFBB0EB08001228F6D3032095E13168FC
:1004F00031F01001A86901433160306850F001000B
:10050000306000F02BFB8046306880071DD400F07F
:1005100025FBB0EB08001228F6D303207DE1DFF8BD
:10052000AC85D8F8000040084000C8F8000000F092
:1005300015FB0600D8F80000800706D500F00EFB7A
:10054000801B1228F6D3032067E12878400740F18A
:1005500089805FF00008DFF880653068C0000AD449
:10056000306850F080503060306810F0805000905B
:1005700000985FF00108DFF86495D9F80000C00525
:1005800014D4D9F8000050F48070C9F8000000F0CD
:10059000E5FA8246D9F80000C00507D400F0DEFA7B
:1005A000B0EB0A000328F5D3032036E1287AC00710
:1005B0001AD5DFF82C05016831F080012A7A12F093
:1005C000800211430160297A490708D5016851F07A
:1005D00004010160016851F0010101600EE0016851
:1005E00051F00101016009E0DFF8F40401684908F5
:1005F00049000160016831F004010160A868002829
:1006000011D000F0ABFA8146DFF8D404006880070F
:100610001FD400F0A3FAB0EB090041F289318842FF
:10062000F2D30320F9E000F099FA8146DFF8B00434
:100630000168890709D500F091FAB0EB090041F291
:1006400089318842F2D30320E7E0016831F080016C
:1006500001605FFA88F8B8F1010F03D1306830F01B
:1006600080503060287880062ED5A86A002815D0E2
:10067000DFF87084D8F8000050F00100C8F80000DE
:1006800000F06CFA0600D8F8000080071CD400F0D7
:1006900065FA801B0328F6D30320BEE0DFF844840C
:1006A000D8F8000040084000C8F8000000F056FAF2
:1006B0000600D8F80000800706D500F04FFA801B2E
:1006C0000328F6D30320A8E0E86A002800F0A480FD
:1006D000E86A022840F08180386810F003012A6B34
:1006E00091421CD110F070016A6B521EB1EB021FD7
:1006F00015D110F4FE41AA6BB1EB022F0FD110F40B
:10070000C001EA6B5208521EB1EB425F07D110F0F4
:10071000C060296C4908491EB0EB416F43D00C2CD6
:100720003FD0DFF81843206830F08070206000F080
:1007300015FA06002068800106D500F00FFA801B2C
:100740000328F7D3032068E03968DFF89C030140F1
:10075000286B0143686B401E51EA0011A86B51EAF7
:100760000021E86B4008401E51EA4051286C4008C7
:10077000401E51EA40613960206850F0807020606E
:10078000386850F08070386000F0E8F905002068A3
:10079000800141D400F0E2F9401B0328F7D3032085
:1007A0003BE0012039E0DFF894422068800133D437
:1007B000206850F080702060386850F08070386099
:1007C00000F0CCF905002068800125D400F0C6F9BE
:1007D000401B0328F7D303201FE00C2C1AD0DFF8AE
:1007E0005C52286830F0807028603868800880008B
:1007F0003860386830F08870386000F0AFF9040075
:100800002868800108D500F0A9F9001B0328F7D358
:10081000032002E0012000E00020BDE8F6872DE97A
:10082000F04104000E00002C01D101209AE0DFF815
:10083000BC52286810F00700B0420BD22868C008EC
:10084000C00030432860286810F00700B04201D093
:10085000012087E02078C00740D56068032806D1D2
:10086000DFF8D801006880011CD401207AE06068BC
:10087000022806D1DFF8C4010068800312D40120E9
:1008800070E06068002806D1DFF8B00100688007DA
:1008900008D4012066E0DFF8A4010068400501D417
:1008A00001205FE0DFF89871396889088900606885
:1008B0000143396000F052F98046386810F00C00AE
:1008C0006168B0EB810F09D000F048F9B0EB080087
:1008D00041F289318842F0D3032043E02078800739
:1008E00007D5DFF85C110A6832F0F002A068024315
:1008F0000A60286810F0070086420BD22868C008FA
:10090000C00030432860286810F00700B04201D0D2
:10091000012027E02078400706D549490A6832F4CB
:10092000E062E06802430A602078000707D5444887
:10093000016831F46051226951EAC201016000F09E
:1009400013F8DFF890113E4A1268C2F30312895C73
:1009500011F01F01C8403B4908603B48006800F0A7
:10096000CFF8C0B2BDE8F08110B4002300213448B4
:10097000006810F00C00544A146814F003040028B6
:1009800003D00C2814D1012C12D12C4B1C68240745
:1009900004D44E4B1B68C3F3032302E01B68C3F36C
:1009A0000313534C54F82330002808D1190006E0F3
:1009B000042801D14F4902E0082800D14E490C28F3
:1009C0001CD1106810F00300022802D0032802D0C6
:1009D00003E0484B01E0484BFFE71068C0F3021109
:1009E000491C1068C0F306204343B3FBF1F01168C3
:1009F000C1F34161491C4900B0FBF1F1080010BC92
:100A0000704710480068704780B5FFF7FAFF3B4910
:100A10000B4A1268C2F30222895C11F01F01C84020
:100A200002BD80B5FFF7EDFF3449054A1268C2F3F5
:100A3000C222895C11F01F01C84002BD00100240B3
:100A40000810024004000020000000207CB50500D2
:100A50000024214E3068C00002D500F085F80EE079
:100A6000306850F080503060306810F08050009056
:100A7000009800F079F8316831F080513160B0F5BC
:100A8000007F07D1812D10D3A12D01D302240CE0CA
:100A900001240AE0812D01D3032406E0802D01D139
:100AA000022402E0702D00D1012410480168C90819
:100AB000C90021430160006810F00700A04201D086
:100AC000012000E0002076BD0C100240941002408E
:100AD000041002409C1E00085810024000700040A4
:100AE00090100240981002408C809FF90020024034
:100AF000B41D00080024F400001BB700D41E000839
:100B000038B5040000251249087800281BD04FF49E
:100B10007A700978B0FBF1F00E490968B1FBF0F08A
:100B200000F0EBF800280CD1102C08D20022210094
:100B30005FF0FF3000F0CBF80748046004E00125C7
:100B400002E0012500E001252800C0B232BD00BF4F
:100B50000800002004000020000000200148006878
:100B6000704700BF8C000020DFF87C00006810F4A4
:100B7000C0607047B0F5007F25D1DFF86C000168D8
:100B800011F4C061B1F5007F2BD0016831F4C06170
:100B900051F400710160DFF85400016832204143D4
:100BA000DFF84C00B1FBF0F0401C00E0401EDFF825
:100BB00044100A68520501D50028F7D1086840059D
:100BC0000FD503200EE0DFF82000016811F4C061AA
:100BD000B1F5806F05D0016831F4C06151F48061D6
:100BE00001600020704700000070004004000020F9
:100BF00040420F001470004010F00700414B1A688B
:100C00004FF6FF010A40404951EA00210A431A60A9
:100C100070473C480068C0F302207047010049B2A9
:100C2000002908D4012210F01F018A40374940B240
:100C3000400941F820207047020052B2002A04D433
:100C40000901334A40B2115407E00901314A40B268
:100C500010F00F00104400F8041C704710B410F09E
:100C60000700D0F10703052B01D3042301E0D0F1E5
:100C70000703041D072C01D2002000E0C01E012440
:100C800014FA03F35B1E1940814014FA00F0401E71
:100C90001040084310BC704780B5411EB1F1807F01
:100CA00001D301200EE0401E1B4908600F215FF0B8
:100CB000FF30FFF7C1FF00201849086007201849DE
:100CC0000860002002BD80B5FFF796FF01BD70B53A
:100CD00004000D0016000020FFF79BFF32002900E2
:100CE000FFF7BCFF0100200040B2FFF7A5FF70BD79
:100CF00080B540B2FFF792FF01BD80B5FFF7CCFF92
:100D000002BD00000CED00E00000FA0500E100E08B
:100D100000E400E018ED00E014E000E018E000E07E
:100D200010E000E010B50400002C01D1012035E0F6
:100D3000A0690028FFD1606F002805D1002084F849
:100D40007000200000F0B3FA24206067206800687B
:100D50004008400021680860200000F020F80128C9
:100D600001D101201AE0606A002802D0200000F0C2
:100D700071F92068406830F490402168486020682C
:100D8000806830F02A00216888602068006850F090
:100D9000010021680860200000F0C9F910BD38B5D5
:100DA00004000025A34920688842FFD0A26820697A
:100DB000024360690243E0690243206803689E4879
:100DC00003401A43206802602068426832F44052AF
:100DD000E068024320684260A2692068884201D02E
:100DE000206A02432068806830F430600243206843
:100DF00082602068914A904215D19148006810F0B5
:100E00000300002805D0022805D006D3032806D009
:100E100007E001205BE0022059E0042057E00820B1
:100E200055E0102053E02068864A904216D184484D
:100E3000006810F00C00002806D0042808D008280C
:100E400004D00C2806D007E0002040E002203EE05D
:100E500004203CE008203AE0102038E020687A4A7C
:100E6000904216D17648006810F03000002806D075
:100E7000102808D0202804D0302806D007E0002011
:100E800025E0022023E0042021E008201FE01020BC
:100E90001DE02068884219D16948006810F440605C
:100EA000002809D0B0F5806F0AD0B0F5006F05D0EA
:100EB000B0F5406F06D007E0002008E0022006E011
:100EC000042004E0082002E0102000E01020226846
:100ED0008A423DD1C0B2002806D0022808D004289A
:100EE00008D008280AD00CE0FFF78EFD02000AE0C7
:100EF000564A08E0FFF738FD020004E04FF40042D4
:100F000001E000220125002A00F08B8061680320A7
:100F100041438A4205D361684FF480504143914276
:100F200001D201257DE04FF4807360684008002104
:100F3000E3FB02016268002300F0F2F9B0F54071B2
:100F4000434A914202D22168C8606AE0012568E004
:100F5000E169B1F5004F35D1C0B2002808D00128B1
:100F600009D002280AD004280AD008280BD00DE0A6
:100F7000FFF74AFD0CE0FFF754FD09E0334807E0B6
:100F8000FFF7F2FC04E04FF4004001E000200125EF
:100F9000002846D06168490811EB40016068B1FB48
:100FA000F0F080B24FF6F071B0F110028A4207D231
:100FB0000140C0F34200014389B22068C16030E0C3
:100FC00001252EE0C0B2002808D0012809D002284F
:100FD0000AD004280AD008280BD00DE0FFF714FD32
:100FE0000CE0FFF71EFD09E0184807E0FFF7BCFC26
:100FF00004E04FF4004001E000200125002810D05B
:10100000616810EB51006168B0FBF1F080B2B0F1A3
:1010100010014FF6F072914202D22168C86000E0E0
:10102000012500202066002060662800C0B232BD85
:101030000000000000800040F369FFEF003801402D
:101040008810024000440040004800400024F400A2
:1010500000FD0F0090F82410C90707D501684A6801
:1010600032F40032816A0A4301684A6090F8241021
:10107000890707D501684A6832F48032C16A0A4399
:1010800001684A6090F82410490707D501684A684A
:1010900032F48022016B0A4301684A6090F8241000
:1010A000090707D501684A6832F40042416B0A43D8
:1010B00001684A6090F82410C90607D501688A685B
:1010C00032F48052816B0A4301688A6090F82410E0
:1010D000890607D501688A6832F40052C16B0A4359
:1010E00001688A6090F82410490613D501684A689F
:1010F00032F48012016C0A4301684A60016CB1F558
:10110000801F07D101684A6832F4C002416C0A436B
:1011100001684A6090F82410090607D501684A68FA
:1011200032F40022816C0A4300684260704738B58F
:1011300004000020E067FFF711FD0500206800684B
:1011400000070DD57FF07E4000902B0000225FF459
:101150000011200000F01FF8002801D0032019E042
:101160002068006840070DD57FF07E4000902B007E
:1011700000225FF48001200000F00DF8002801D06B
:10118000032007E0202060672020A067002084F86B
:101190007000002032BD2DE9F04105000E009046A0
:1011A0001F00069C2868C0693040B04201D1012070
:1011B00000E000204146C9B2884241D114F1010F3C
:1011C000F0D0FFF7CBFCC01B844201D3002C14D11C
:1011D0002868006830F4D070296808602868806842
:1011E0004008400029688860202068672020A867A0
:1011F000002085F87000032023E02868006840077D
:10120000D0D52868C0690005CCD54FF400602968A6
:1012100008622868006830F4D0702968086028687F
:101220008068400840002968886020206867202086
:10123000A8672020E867002085F87000032000E000
:101240000020BDE8F08130B4002513E050F8042BF5
:10125000D30744BFA9F101039A18091F042942F8D2
:10126000045BFAD213468C0744BF15809B1CC90748
:1012700048BF1D7050F8041B0029E7D130BC7047EF
:1012800081B02348016851F001010160006810F04D
:101290000100009000981F48016851F080510160E2
:1012A000006810F080500090009801B0704710B5B1
:1012B00086B004001422002101A800F049F920683A
:1012C0001549884222D11348016851F40031016068
:1012D000006810F40030009000981048016851F048
:1012E00001010160006810F00100009000980C20DE
:1012F0000190022002900020039003200490072018
:10130000059001A95FF0904000F02CF906B010BDE7
:101310006010024058100240004400404C1002404F
:10132000BBBBE1B1B2F5803F80F07E80022A1ED9BE
:101330008C46B1FBF2F102FB11C31B0443EA1043DC
:10134000B3FBF2FC02FB1C3380B240EA0343B3FB65
:10135000F2F002FB103240EA0C4000237047022AF0
:1013600005D98446B0FBF2F002FB10C270474AB1C7
:1013700005D100F0010249085FEA30007047002201
:101380000023704700F008BA0B0002000021002083
:101390007047904271EB030CF6D3B3F5803F2FD228
:1013A000F0B5B3FA83F7B1FA81F4A7F10F0E3D1B44
:1013B0005340CEF1200602FA0EF2F3415340B5F14C
:1013C0000F0746D80F3C2C444140C4F12006A040F2
:1013D000F1414140B1FBF3F603FB1611A2FB0645B8
:1013E000001BA94102D2761E8018594180EA0102F1
:1013F00021FA0EF362FA0EF200215A403046F0BD97
:1014000030B4B1FBF3FC03FB1C11A2FB0C45001B29
:10141000A94103D2ACF1010C8018594130BC0246FD
:101420000B46604600217047B2F1807F65D3F0B56E
:10143000B2FA82F7B1FA81F4C7F10F063D1B22FA26
:1014400006F307F1110EF24120355A40B5F10F07AE
:10145000B8D94140C4F12006A040F1414140B1FB60
:10146000F3FC03FB1C11A2FB0C45001BA94103D29A
:10147000BCF1010C801859410F2F12D30F3FC90343
:1014800041EA5041B1FBF3F603FB1611A2FB0645FE
:10149000D4EBC030A94102D2761E8018594146EAE9
:1014A000CC3C07B34140C7F12006B840F141414070
:1014B000B1FBF3F603FB1611A2FB0645001BA94185
:1014C00002D2761E8018594180EA010221FA0EF3F9
:1014D000C7F1200462FA0EF20CFA07F05A402CFA17
:1014E00004F13043F0BD80EA010221FA0EF300213D
:1014F00062FA0EF260465A40F0BD8C46B1FBF2F142
:1015000002FB11C31B0243EA1063B3FBF2FC02FBB4
:101510001C331B024CEA002043EA1063B3FBF2FCCD
:1015200002FB1C331B024CEA002043EA1063B3FBAE
:10153000F2FC02FB1C331B024CEA002043EA10635E
:10154000B3FBF2FC02FB1C324CEA00200023704784
:1015500010B5044610460A460146204600F01EF922
:10156000204610BDF8B40200002432E0072704E052
:10157000DFF8CC319A42F9D1032714F00303DBB230
:101580009B009F403E4323009B0845F823606D4D20
:101590002B6883434E68F60300D503432B606A4DE6
:1015A0002B6883434E68B60300D503432B60674D19
:1015B0002B6883434E68F60200D503432B60644DCD
:1015C0002B6883434E68B60201D5184303002B6095
:1015D000641C0868E040002800F08F80012508683E
:1015E00015FA04F318400028F2D04B68012B08D0FC
:1015F0004B68022B05D04B68112B02D04B68122B85
:1016000016D1966803272300DBB25B009F40BE43E0
:10161000CF682300DBB25B009F403E439660536877
:10162000A540AB434D68C5F30015A5402B4353605F
:10163000D66803252300DBB25B0015FA03F39E4353
:101640008F682300DBB25B009F403E43D6604B684F
:10165000022B02D04B68122B17D12300DB0802EBC0
:1016600083031E6A0F2714F00703DBB29B009F4021
:10167000BE430F6914F00703DBB29B009F403E435B
:101680002300DB0802EB83031E6216682300DBB233
:101690005B009D40AE430D7915F003052300DBB2DE
:1016A0005B009D402E4316604B68DB0090D5294BB4
:1016B0001D6855F001051D601B6813F001030093C0
:1016C000009B254D23009B0855F823600F2714F03D
:1016D0000303DBB29B009F40BE43B2F1904F01D1A8
:1016E00000274AE71D4B9A4201D1012745E71C4BD1
:1016F0009A427FF43DAF02273FE7F1BC7047D2B278
:10170000002A02D089B2816101E089B2816270470A
:1017100042690B009BB2134089B2914351EA0341E5
:101720008161704780B50F490A6803009BB21A4275
:1017300005D0020092B20A6080B200F015F801BD37
:10174000000C00480004014004040140080401406A
:101750000C040140601002400800014000040048F1
:101760000008004814040140704730B40EE00268DD
:10177000436802440830DC0744BFA9F10104E318C0
:1017800052F8045B43F8045B091FF9D150F8041BBD
:101790000029ECD130BC70477047000062F30F2283
:1017A00062F31F42401810F0030308D0C91A1FD378
:1017B000DB0748BF00F8012D28BF20F8022D1300D9
:1017C00030B414461546103928BF20E93C00FAD839
:1017D000490728BF20E90C0048BF40F8042D8900C4
:1017E00028BF20F8022D48BF00F8012D30BC7047FB
:1017F000C91818BF00F8012DCB0728BF00F8012D2C
:101800007047000010B500F039F900F01AF800F048
:1018100086F800F066F8914C01224FF40051200048
:10182000FFF76DFF4FF4FA7000F03AF900224FF421
:1018300000512000FFF763FF4FF4FA7000F030F919
:10184000E9E700B5A3B04422002105A8FFF780FE18
:10185000142200216846FFF77BFE3422002116A8DF
:10186000FFF776FE4FF40070FFF784F9002801D0EF
:1018700000F002F9012005905FF48030069002200C
:10188000109003201190012012900C201390022040
:1018900014900220159005A8FEF778FC002801D0CE
:1018A00000F0EAF80F200090032001900020029041
:1018B000002003900020049004216846FEF7AFFF4B
:1018C000002801D000F0D8F80220169000201890CF
:1018D00016A800F0F9F8002801D000F0CDF823B0E8
:1018E00000BD80B55E485F4901605FF4E131416051
:1018F000002181600021C160002101610C21416152
:10190000002181610021C161002101620021416249
:10191000FFF708FA002801D000F0AEF801BD70B55D
:1019200086B0142200216846FFF712FE4E48016877
:1019300051F004010160016811F00401059105995D
:10194000016851F080010160016811F0800105918A
:101950000599016851F001010160016811F0010170
:1019600005910599016851F002010160006810F0CD
:101970000200059005980022B0215FF09040FFF72B
:10198000BEFE364C00224FF400512000FFF7B7FE98
:101990004FF4005500953548019000200290344ED8
:1019A00069463000FFF7DEFD41F6DF70009003204E
:1019B00001900020029069463000FFF7D3FD49F600
:1019C00003700090032001900020029069465FF0B0
:1019D0009040FFF7C7FDB02000900120019000204B
:1019E00002900020039069465FF09040FFF7BAFD37
:1019F00040200090002001900120029069465FF095
:101A00009040FFF7AFFD4DF6F77000900320019076
:101A10000020029069462000FFF7A4FD00950120F8
:101A20000190002002900020039069462000FFF7FB
:101A300099FD082000900320019000200290694643
:101A40000C48FFF78FFD002200212820FFF73FF907
:101A50002820FFF74DF906B070BD000000040048D3
:101A60000C000020004400404C10024000002110F7
:101A700000080048001C00487047000010B5002412
:101A80000320FFF720F90020FFF73AF8002801D0E3
:101A9000012401E0FFF7F4FB2000C0B210BD0000FC
:101AA00038B50400FFF75AF8050014F1010F02D011
:101AB000044800782418FFF751F8401BA042FAD3DD
:101AC00031BD00BF080000202DE9FC4704000027BD
:101AD00000252068800373D55FF00008DFF80462FA
:101AE0003068C0000AD4306850F0805030603068F0
:101AF00010F08050009000985FF00108DFF8E89146
:101B0000D9F8000050F48070C9F80000FFF726F8FB
:101B10008246D9F80000C00506D4FFF71FF8B0EBE5
:101B20000A000328F5D303273800C0B200283DD1AE
:101B3000DFF8B891D9F8000010F44070002814D0F4
:101B4000216B884211D0D9F8000030F44070D9F8E8
:101B5000001051F48031C9F80010D9F8001031F4A8
:101B60008031C9F80010C9F80000C0070FD5FEF792
:101B7000F5FF8246D9F80000800708D4FEF7EEFF93
:101B8000B0EB0A0041F289318842F3D303273800D1
:101B9000C0B2002808D1D9F8001031F44071206B90
:101BA0000143C9F8001002E03D0000E03D005FFA8B
:101BB00088F8B8F1010F03D1306830F08050306000
:101BC0002078C00707D5DFF828110A68920892002C
:101BD000606802430A602078800707D5DFF810119B
:101BE0000A6832F00C02A06802430A6020784007BD
:101BF00007D5DFF8FC100A6832F03002E0680243D3
:101C00000A602078800607D5DFF8E4100A6832F40D
:101C10004062206902430A602068800507D5DFF82A
:101C2000D0100A6832F44022206A02430A60206819
:101C3000400507D5DFF8B8100A6832F44012606A30
:101C400002430A602078400607D5DFF8A4100A682E
:101C500032F44052606902430A602078000607D5DA
:101C6000DFF88C100A6832F44042A06902430A602F
:101C70002068C00507D5DFF878100A6832F44032D2
:101C8000E06902430A602068800411D5DFF8601023
:101C90000A6832F04062A06A02430A60A06AB0F1AA
:101CA000006F05D1DFF84C00016851F4801101602C
:101CB0002068400311D5DFF838100A6832F040621E
:101CC000E06A02430A60E06AB0F1006F05D1DFF814
:101CD0002400016851F4801101602800C0B2BDE801
:101CE000F68700005810024000700040901002403B
:101CF000881002400C1002401048016851F4700135
:101D000001600F49086850F00100086000200D4A8A
:101D100010600A680C4802400A604FF480500B4A79
:101D20001060086830F480200860002008490860CE
:101D30005FF00060074908607047000088ED00E030
:101D40000010024008100240FFFFF6EA0C100240AB
:101D50001810024008ED00E07047FEE7FEE7FEE7DE
:101D6000FEE770477047704780B500F017F801BD77
:101D700080B54FF40050FFF7D5FC4FF400510548F3
:101D8000FFF7C6FC002000E0401C03498842FBD35B
:101D900001BD000000040048A0252600034801689A
:101DA000034A127889180160704700BF8C00002038
:101DB00008000020A0860100400D0300801A0600E4
:101DC00000350C0040420F0080841E0000093D00D9
:101DD00000127A000024F40000366E010048E80189
:101DE000006CDC0210B5074979441831064C7C447C
:101DF000163404E00A68081D114488470146A142D0
:101E0000F8D110BD2C0000004C0000004EF68851A7
:101E1000CEF20001086840F470000860BFF34F8FF5
:101E2000BFF36F8F4FF00070E1EE100A70470000B3
:101E300017F4FFFF840000000C00002000000000E9
:101E40002BF9FFFF0C0000008000000000000020C4
:101E50000000000000F00DF8002801D0FFF7C2FFDD
:101E6000AFF300800020AFF30080FFF7CBFC00F061
:101E700002F80120704700F001B80000074638461C
:101E800000F002F8FBE7000080B5AFF30080024AE3
:101E900011001820ABBEFBE7260002000000000086
:101EA00000000000010203040607080901488047FA
:101EB00001480047F91C0008BD1E0008AFF3008070
:101EC000FFF7A4FFFFF7C6FF1000000000093D0068
:101ED000010000000000000001020304FFF7FEBF44
:101EE000FFF7FEBFFFF7FEBFFFF7FEBFFFF7FEBF26
:101EF000FFF7FEBFFFF7FEBFFFF7FEBFFFF7FEBF16
:101F0000FFF7FEBFFFF7FEBFFFF7FEBFFFF7FEBF05
:101F1000FFF7FEBFFFF7FEBFFFF7FEBFFFF7FEBFF5
:101F2000FFF7FEBFFFF7FEBFFFF7FEBFFFF7FEBFE5
:101F3000FFF7FEBFFFF7FEBFFFF7FEBFFFF7FEBFD5
:101F4000FFF7FEBFFFF7FEBFFFF7FEBFFFF7FEBFC5
:101F5000FFF7FEBFFFF7FEBFFFF7FEBFFFF7FEBFB5
:101F6000FFF7FEBFFFF7FEBFFFF7FEBFFFF7FEBFA5
:101F7000FFF7FEBFFFF7FEBFFFF7FEBFFFF7FEBF95
:101F8000FFF7FEBFFFF7FEBFFFF7FEBFFFF7FEBF85
:101F9000FFF7FEBFFFF7FEBFFFF7FEBFFFF7FEBF75
:101FA000FFF7FEBFFFF7FEBFFFF7FEBFFFF7FEBF65
:081FB000FFF7FEBFFFF7FEBFC3
:0400000508001EBD14
:00000001FF
