:020000040800F2
:1000000028040020AD130008511200085312000804
:10001000551200085712000859120008000000008D
:100020000000000000000000000000005B1200085B
:100030005D120008000000005F1200086112000855
:10004000D1130008D5130008D9130008DD130008E8
:10005000E1130008E5130008E9130008ED13000898
:10006000F1130008F5130008F913000863120008E3
:1000700075120008FD13000801140008051400089B
:10008000091400080D1400081114000800000000F5
:10009000000000000000000000000000151400082F
:1000A000191400081D140008211400082514000864
:1000B0002914000800000000000000002D140008B2
:1000C0003114000835140008391400083D140008E4
:1000D0004114000845140008491400084D14000894
:1000E0008912000851140008000000000000000000
:1000F0000000000000000000000000000000000000
:1001000000000000000000000000000000000000EF
:10011000000000000000000055140008000000006E
:10012000591400085D1400086114000865140008E3
:10013000691400080000000000000000000000003A
:100140006D14000871140008751400087914000873
:100150007D14000881140008851400088914000823
:100160008D14000891140008000000000000000039
:1001700000000000951400080000000000000000CE
:10018000991400089D140008A1140008010008D467
:10019000012200F01F01DFF854368A40400943F87D
:1001A000202070470901020003D4DFF8440681547F
:1001B0007047DFF8403602F00F021A4402F8041CC0
:1001C000704730B500F007000123C0F10704052C8B
:1001D0002EBF0F2403FA04F4641E051D072D34BF3F
:1001E0000020C01E2140814003FA00F0401E104054
:1001F000084330BDDFF8001601E0DFF8001681B0DB
:100200000A6802430A60096808400090009801B03B
:100210007047DFF8EC15F2E72DE9F8419DB00020BA
:10022000DFF8E0454FF4805524F81050401C1028AA
:10023000FAD30120FFF7EDFF4FF08050FFF7DDFF0D
:10024000DFF8C475DFF8C4053A684FF6FF010A40CD
:1002500002433A604FF4005600F069FA0C2200F0B5
:100260005DFA00F05FFA0420FFF7C4FF8020FFF77B
:10027000C1FF00F051FA0220FFF7BCFF4FF09041A0
:10028000B02088620021DFF88805026822F0F002C1
:1002900042F020020260079101228DF820208DF8A3
:1002A000211002228DF82220069606A800F0E4FA1A
:1002B000DFF86005C16821F04061C16041F6DF717F
:1002C000026822F040620260009103220023019242
:1002D0000493694600F06EFB49F60160032100902B
:1002E0000191002200F012FAB0200121009001914A
:1002F00000220292039200F009FA402000210090AF
:100300000191012200F002FA4FF6F77000F0F7F9C0
:10031000DFF8040500F04EFB082000F0F0F9DFF8EC
:10032000FC0400F047FB386800220021C0F30220E3
:10033000FFF747FF01462820FFF734FF2820FFF78B
:1003400025FF1C2200F0EAF900F0ECF94FF4003030
:10035000FFF753FF00F0E0F9022201920C21009117
:10036000002203920492032102910722059200F0D9
:10037000CEF94FF4E13000210690079108910991E0
:100380000C220B910C910A9206A9DFF89484404646
:1003900000F08EFBD8F8040020F49040C8F8040068
:1003A000D8F8080020F02A00C8F80800D8F8001093
:1003B000DFF8700441F00101C8F800100021026864
:1003C00042F0010202600022006800F0010000908B
:1003D00000983868C0F30220FFF7F3FE01460C20B6
:1003E000FFF7E0FEDFF804040560142200F096F940
:1003F0002022002115A800F0B3FB282200210BA821
:1004000000F0AEFB00F08EF9DFF81C04016821F06B
:10041000F00141F070010160DFF81004DFF8101402
:100420000A68024042F010020A600B6823F440534D
:1004300043F480530B60086840F0200008600A68AD
:1004400022F040020A60086840F0800008600A68F4
:1004500022F4407242F480720A600868DFF8D42304
:1004600020F4406040F4806008604868000C00049C
:1004700040F00100486004F12000C8608A6008680C
:1004800040F0020008600A6842F004020A6008684E
:1004900040F0080008600A6842F001020A604FF468
:1004A0000060FFF7B6FE0020ADF8180007904EF68A
:1004B000602209900A90089206A9DF4F384600F0A2
:1004C00059FB386820F0800038606022B96941F03B
:1004D0000801B961159200211691002247F23051AE
:1004E0001792189119921A921B921C92012115AA27
:1004F000384600F06EFBB86920F00400B8610021B6
:10050000B86820F00800B8600022B86820F4804085
:10051000B860B86820F43F40B860786820F0700098
:100520007860786820F470007860B86820F0800007
:10053000B8600B910D91ADF83A1010910C924FF0FC
:10054000007112918DF838201192139214920F9627
:100550000BA9384600F073FCF86840F40070F860AE
:10056000F86840F00100F86000F0D6F8022201922D
:100570004FF48071009100220392022102910491B4
:100580000122059200F0C3F8142200F0CCF80120FB
:10059000FFF733FE4021ADF800100022FF21029149
:1005A0000192039269464FF0804000F0E3FA4FF069
:1005B0008041086820F0800008608A689F480240F7
:1005C0008A604A6822F070024A600C22886820F033
:1005D0008000886000F0A7F81822002103A800F02E
:1005E000BFFA102200210FA800F0BAFA1822002149
:1005F00009A800F0B5FA3046FFF7FCFD00F08CF8D2
:100600000220032109900A9100220D9209A94FF0BE
:10061000904000F0CFF900200090019002906946D0
:10062000874C204600F069FC00210391049105915C
:10063000069601210791089503A9204600F070FC59
:10064000A068804E804D8149814B3040A060A068F9
:10065000284040F08050A0600A200A68B2FBF3F303
:100660004343B3FBF0F0002800E0401EFDD1002121
:100670000F9110910FA9774800F020FC206B20F417
:10068000F86040F4C0702063606940F4E01060617D
:100690007148016821F040010160386A40F00100B2
:1006A0003862786C40F400407864396841F00101A8
:1006B00039600021786940F001007861ADF80010E0
:1006C000A0680640A660A1686448294041F08051B6
:1006D000A160A168014041F00041A160A068C00F85
:1006E000FCD1A068284040F00100A0602068C0074D
:1006F000FCD5A1680D4045F00405A560FEE7032187
:100700000090019100220492694670470492694664
:100710004FF0904000F04EB901206BE5002106A893
:1007200000F01EBA18220021684600F019BA10B570
:100730004B480168C908C90041F003010160016824
:1007400001F007010329FAD14648016821F4C0618C
:1007500041F4007101604449086840F001000860FC
:1007600008688007FCD50A6842F008020A60086839
:1007700020F0F00040F060000860486820F47F40FE
:100780004860CA683948024042F4005242F001020F
:10079000CA60C86840F08070C8600A6842F0807221
:1007A0000A6008688001FCD58A6842F003028A600A
:1007B000886800F00C000C28FAD188682C4C20F0D6
:1007C000F0008860886820F4E060886020468A68CD
:1007D00022F460528A6000F0D3FB204600F0DCFB7C
:1007E0002448016821F00C01016010BD00E100E027
:1007F00000E400E018ED00E04C1002405810024008
:1008000060100240000000200CED00E00003FA053B
:10081000140001400008004800040048001C004883
:100820000044004048100240A8000240EFBFFFFF14
:100830001C000240342C0140002C0140F8BFFEFF98
:1008400000000450C0FFFF5FC0FFFF7F24000020B6
:10085000400D030000030450B0000450C0FFFF3FF0
:100860000020024000700040001002408C80FFF920
:100870000090D0038810024030B5027A03684C4CD7
:100880000021002A00F08080002B3CD0427A1AB16F
:10089000022A0ED009D314E0656825EA03036360D9
:1008A00023680268134323600CE0256825EA0303EC
:1008B00001E025682B43236063680268134363608B
:1008C00000E00121827AF2B1012A04D019D3032A6F
:1008D0000ED009D315E0E36802689343E360A36890
:1008E00002681343A3600EE0A3680268934302E02A
:1008F000A36802681343A360E36802681343E360DC
:1009000001E041F002014268002A4DD0437A1BB158
:10091000022B0ED009D314E0656A25EA0202626256
:10092000236A4268134323620DE0236A23EA02022A
:1009300001E0236A1A432262656A426815436562D0
:1009400001E041F00401827A72B3012A04D019D384
:10095000032A0ED009D315E0E36A42689343E362A9
:10096000A36A40680343A3621EE0A36A42689343FC
:1009700002E0A36A42681343A362E36A4068034348
:10098000E36211E001210FE0256825EA03032360FB
:100990006368026893436360236A426893432362F7
:1009A000636A406883436362084630BD000000000C
:1009B00000040140F0B50B460246186890FAA0F01A
:1009C000B0FA80F60F2403253EE0090A00F04DF846
:1009D000576A00F051F8506235E00120B040014004
:1009E00031D05868176800F053F84FEA4C0E00FAFF
:1009F0000EF0384310605868012818BF022809D14A
:100A00009868976800F044F84FEA4C0E00FA0EF030
:100A10003843906091FAA1FC1869D76800F03AF861
:100A20004FEA4C0E00FA0EF03843D06058680228A6
:100A300009D15869B1F5807FC7D200F016F8176A5E
:100A400000F01AF81062761C196831FA06F0C4D169
:100A50005868012818BF022805D15468D8688C430B
:100A60004143214351600020F0BD91FAA1FCBCFA42
:100A70008CFC91FAA1F170474FEA8C0CB1FA81F12C
:100A800004FA0CFC890027EA0C07884038437047B9
:100A900091FAA1FCBCFA8CFC4FEA4C0C05FA0CFC58
:100AA00027EA0C0791FAA1FCBCFA8CFC7047000005
:100AB00070B504460E4620680125C10744D422685B
:100AC000264871680240F0680A4331690243B06900
:100AD0000A43024322606168B06821F44051014337
:100AE0006160A168706921F440710143A1601849F7
:100AF0008C4208BF032008D016498C4208BF0C2046
:100B000003D0154884421FD1302000F04DFA002850
:100B10001CBF3168002917D0B36900254A08B3F516
:100B2000004F0CD102EB4002B2FBF1F080B24FF665
:100B3000F0710140C0F342000143E16004E010188D
:100B4000B0FBF1F080B2E060284670BD000000000C
:100B5000003801400044004000480040F369FFEFC6
:100B600010B5044610460A460146204600F00EFB2A
:100B7000204610BD70B5DFF828630368DFF828430E
:100B8000DFF82053B04218BFB0F1804F01BF23F00F
:100B900070034A681343B04205D0B0F1804F1CBFC8
:100BA000A842A04203D1CA6823F4407313430360F0
:100BB000B0428A68C2621CBFA842A0420A88826210
:100BC00001D109690163416941F0010141610020DE
:100BD00070BDF0B5034601200129DFF8D072DFF8BF
:100BE000D0C2DFF8C442DFF8BC52DFF8B46211D0E3
:100BF000102943D0B1F5807F77D0B1F5805F00F048
:100C0000A880B1F5803F00F0CC80B1F5801F00F0E6
:100C1000EF80F0BD186A400840001862D3F820C089
:100C2000D3F804E0996910680F40074311692CF06C
:100C30000200084341085068B3421CBFAB42A342C4
:100C400040EA410C12D150692CF0080141EA8000C1
:100C500020F00401906841EA800C90692EF48071C4
:100C60000843D16920F4007040EA410EC3F804E063
:100C70009F61D0685863C3F820C0DEE0186A20F096
:100C800010001862B342186A59689F69D2F800E0F0
:100C90000CEA070747EA0E2C176920F0200040EA0B
:100CA0000710576820F010001CBFAB42A34240EA77
:100CB000071013D1546920F0800040EA8410946832
:100CC00020F0400040EA8410946921F4806141EAF8
:100CD0008401D46921F4006141EAC4015960C3F878
:100CE00018C0D16899631862A7E0186A20F4807070
:100CF0001862196AD3F804C0D8690740106807431E
:100D0000106921F4007141EA00215068B34221F4D6
:100D100080711CBFAB42A34241EA002113D150694C
:100D200021F4006141EA8021906821F4806141EA68
:100D3000802190692CF4805444EA001020F400547F
:100D4000D06944EA401CC3F804C0DF61D068D863AE
:100D500025E0186A20F480501862B342196A586876
:100D6000DF69D2F800E00CEA070747EA0E2C1769A2
:100D700021F4005141EA0731576821F480511CBF2A
:100D8000AB42A34241EA073104D1946920F4804088
:100D900040EA84105860C3F81CC0D0681864196217
:100DA0004BE0186A434920F4803018621F6A586D7E
:100DB0000140106840EA010C1169506827F40037BF
:100DC00047EA0147B34227F480371CBFAB42A34236
:100DD00047EA004706D15868916920F4803040EA1C
:100DE00001205860C3F854C0D068996D986523E01D
:100DF000186A20F4801018621F6A596D2E4801404D
:100E0000106841EA0021106927F4001747EA0057EB
:100E10005068B34227F480171CBFAB42A34247EA95
:100E2000005706D15868946920F4802040EA842055
:100E300058605965D068D8651F620020F0BD30B594
:100E40000C7B8A684B684D6A144324F480641C430D
:100E50000A68CB8924F40064144324F480541C43AE
:100E60000A690F4B24F40054144324F480442C43A7
:100E700024F400442C4398420FD14A690B6A24F4AD
:100E80007024144324F470041C438A69C96924F053
:100E90008074144324F000740C434464002030BD7B
:100EA000002C014000400140004401408CFFFEFF47
:100EB000FF8CFFFE8FFFFEFFFF8FFFFE70B52B4BF9
:100EC0002B4C1B68246800222343DB0712D44B6899
:100ED0000C68284D4BB1866835402C4323438C6801
:100EE000C96823430B43836005E081680D402C43B0
:100EF000846000E00122104670BD70B502460020FB
:100F00009368DB070AD4D6681B4D0C684B68896868
:100F10002E4026431E430E43D66070BD012070BD97
:100F2000F0B583680022DC071DD44C690D69CE68DA
:100F30000F684B68DFF844C033B1C3680CEA0303A1
:100F40001F438B681F4303E0C3680CEA03031F437E
:100F50003E4335432C43C460036B49681B0941EA97
:100F60000313036300E001221046F0BD08000450A3
:100F700008010450E030C0FFC7BFFFFF3CC0F0FFD6
:100F80004FF47A720649B0FBF2F0401E486000232D
:100F90008B600520086070470249086070470000B8
:100FA00010E000E02400002070B501460020032975
:100FB000DFF8C021DFF8B441DFF8AC514FF4004353
:100FC00015D1296801F0030141F440314FF4403656
:100FD000891B05D0491E2DD0491E2ED0491E16E072
:100FE00000F03DF800F068F8BDE8704072E00C29B0
:100FF0000FD1296801F00C0141F440214FF4402643
:10100000891B24D0091F15D0091F16D0091F19D01C
:1010100070BD302922D1296801F0300141F440111E
:101020004FF44016891B12D0103903D0103904D068
:101030001039ECE7BDE8704011E0216849050DD595
:10104000104670BDA968890708D5184670BD00F024
:1010500006F800F031F8BDE8704033E070BD434958
:1010600045488B68424A13F00C030BD0042B04D084
:10107000082B04D00C2B04D004E03E4870473F48B6
:1010800070472DE00B681B070B6809D41B0747BF8F
:10109000096801F0F001116801F47061090A08E0C3
:1010A0001B0747BF096801F0F001116801F4706186
:1010B000090950F8210070473149324A0968C1F3E3
:1010C000031104E02E49304A0968C1F30221515C42
:1010D000C84070472A492C4A0968C1F3C221F6E783
:1010E00010B500F038F807D006D3032B02D003D296
:1010F00020491AE0214918E003681B07036809D456
:101100001B0747BF026802F0F002126802F4706227
:10111000120A08E01B0747BF026802F0F0021268DB
:1011200002F47062120951F8221000F008F8C4F3BA
:101130004160FFE7401C4000B1FBF0F010BDC26809
:10114000C368C468C2F30210401CB1FBF0F1C3F3E2
:1011500006204143704705480749C368044A03F025
:101160000303012B7047000088100240001002406A
:10117000941002400024F400D8120008001BB700AD
:101180000810024040120008C813000862F30F2242
:1011900062F31F42401810F0030308D0C91A1FD38E
:1011A000DB0748BF00F8012D28BF20F8022D1300EF
:1011B00030B414461546103928BF20E93C00FAD84F
:1011C000490728BF20E90C0048BF40F8042D8900DA
:1011D00028BF20F8022D48BF00F8012D30BC704711
:1011E000C91818BF00F8012DCB0728BF00F8012D42
:1011F000704700000E48016841F470010160002250
:101200000C49086840F0010008608A604FF4805281
:101210000B68094803400B60CA6000200B68074A4E
:1012200023F480230B6088614FF0006111607047E8
:1012300088ED00E000100240FFFFF6EA08ED00E054
:101240000000000000000000010203040607080976
:101250007047FEE7FEE7FEE7FEE77047704770471E
:1012600070470D480168890702D501224260704726
:101270000068704708480168890203D54FF480125E
:10128000426070470068704704480168890444BFA1
:101290004FF4005202607047000002401404014005
:1012A00030B5016884684218416802EB5103C907F0
:1012B00003D54C4401E0491C05D19A420AD012F9E9
:1012C000011B12F8015B002904F8015BF3D4491EED
:1012D000F7D5F2E70C3030BDA0860100400D0300C9
:1012E000801A060000350C0040420F0080841E006A
:1012F00000093D0000127A000024F40000366E015F
:101300000048E801006CDC0210B507497944183147
:10131000064C7C44163404E00A68081D11448847D2
:101320000146A142F8D110BD2C0000003800000099
:101330004EF68851CEF20001086840F47000086053
:10134000BFF34F8FBFF36F8F4FF00070E1EE100AC5
:10135000704700004DFFFFFF4C0100001600000029
:101360000000002000F00DF8002801D0FFF7CCFFAE
:10137000AFF300800020AFF30080FEF74DFF00F0D8
:1013800002F80120704700F001B800000746384617
:1013900000F002F8FBE7000080B5AFF30080024ADE
:1013A00011001820ABBEFBE7260002000148804771
:1013B00001480047F5110008BD130008AFF3008095
:1013C000FFF7B6FFFFF7CEFF0000000001020304A5
:1013D000FFF7FEBFFFF7FEBFFFF7FEBFFFF7FEBF41
:1013E000FFF7FEBFFFF7FEBFFFF7FEBFFFF7FEBF31
:1013F000FFF7FEBFFFF7FEBFFFF7FEBFFFF7FEBF21
:10140000FFF7FEBFFFF7FEBFFFF7FEBFFFF7FEBF10
:10141000FFF7FEBFFFF7FEBFFFF7FEBFFFF7FEBF00
:10142000FFF7FEBFFFF7FEBFFFF7FEBFFFF7FEBFF0
:10143000FFF7FEBFFFF7FEBFFFF7FEBFFFF7FEBFE0
:10144000FFF7FEBFFFF7FEBFFFF7FEBFFFF7FEBFD0
:10145000FFF7FEBFFFF7FEBFFFF7FEBFFFF7FEBFC0
:10146000FFF7FEBFFFF7FEBFFFF7FEBFFFF7FEBFB0
:10147000FFF7FEBFFFF7FEBFFFF7FEBFFFF7FEBFA0
:10148000FFF7FEBFFFF7FEBFFFF7FEBFFFF7FEBF90
:10149000FFF7FEBFFFF7FEBFFFF7FEBFFFF7FEBF80
:0F14A000FFF7FEBFE000018813FD0002093D00C9
:04000005080013BD1F
:00000001FF
