:020000040800F2
:1000000028040020691500089D1300089F130008AC
:10001000A1130008A3130008A513000800000000A6
:10002000000000000000000000000000A71300080E
:10003000A913000800000000AB130008AD1300086E
:100040008D150008911500089515000899150008F0
:100050009D150008A1150008A5150008A9150008A0
:10006000AD150008B1150008B5150008AF1300085C
:10007000C1130008B9150008BD150008C115000816
:10008000C5150008C9150008CD15000800000000BE
:10009000000000000000000000000000D115000872
:1000A000D5150008D5130008D9150008DD1500087E
:1000B000E11500080000000000000000E515000840
:1000C000E9150008ED150008F1150008F515000800
:1000D000F9150008FD1500080116000805160008AE
:1000E000E5130008091600080000000000000000E9
:1000F0000000000000000000000000000000000000
:1001000000000000000000000000000000000000EF
:1001100000000000000000000D16000800000000B4
:100120001116000815160008191600081D160008FB
:100130002116000800000000000000000000000080
:1001400025160008291600082D160008311600088B
:1001500035160008391600083D160008411600083B
:1001600045160008491600080000000000000000C5
:10017000000000004D160008000000000000000014
:10018000511600085516000859160008010008D439
:10019000012200F01F01DFF8F4378A40400943F8DC
:1001A000202070470901020003D4DFF8E4078154DE
:1001B0007047DFF8E03702F00F021A4402F8041C1F
:1001C000704730B500F007000123C0F10704052C8B
:1001D0002EBF0F2403FA04F4641E051D072D34BF3F
:1001E0000020C01E2140814003FA00F0401E104054
:1001F000084330BD10B50FF62003595C4118DFF8F5
:1002000098070C68044022430A6010BD10B500F046
:1002100017F824F0200404E010B500F011F824F0E1
:1002200040042243026010BD10B500F009F824F02C
:100230008004F6E710B500F003F824F44074F0E70A
:100240000FF2D473595C40180468704710B5FFF77B
:10025000F7FF24F44064E4E710B5FFF7F1FF24F45E
:100260004054DEE710B50FF2B073595C4018446893
:10027000240C42EA0442426010BD0FF29C73595CA8
:100280004018C26070470FF29073595C401882604A
:10029000704710B550F8A83F0F24890004FA01F107
:1002A0008B4391FAA1F1B1FA81F18A401A430260BD
:1002B00010BD0FF26472515C4018036843F00203F2
:1002C000036070470FF25072515C4018036843F0AE
:1002D0000403036070470FF24072515C40180368DA
:1002E00043F0080303607047DFF8B01601E0DFF861
:1002F000B01681B00A6802430A600968084000909D
:10030000009801B07047DFF89C16F2E72DE9F8413C
:100310009DB00020DFF890864FF4805728F81070C9
:10032000401C1028FAD30120FFF7EDFF4FF080505A
:10033000FFF7DDFFDFF87456DFF874062A684FF622
:10034000FF010A4002432A6000F0C1FA002040F693
:10035000B83110FB01F128F81010401C1028F6DB12
:100360000C22002106A800F05BFB00F0ABFA042091
:10037000FFF7BAFF8020FFF7B7FF0120FFF7B4FFB8
:100380000220FFF7B1FF4FF09041B02088624FF498
:100390000054DFF82006DFF82066026822F0F00241
:1003A00042F020020260069401228DF820200021F4
:1003B000022207918DF821108DF8222006A800F066
:1003C00039FBDFF8F805C16821F04061C16041F6F2
:1003D000DF71026822F04062026000910322002374
:1003E00001920493694600F0C3FB49F6017000F0E6
:1003F00062FA00F056FAB02001210090019100222B
:100400000292039200F051FA4020002100900191E5
:10041000012200F04AFA4DF6F77000F04CFA30462F
:1004200000F0A6FB082000F046FADFF8940500F083
:100430009FFB286800220021C0F30220FFF7C1FEC5
:1004400001462820FFF7AEFE2820FFF79FFEDFF8C9
:100450007405016841F0010101600022006800F0AC
:1004600001000090002100982868C0F30220FFF7E7
:10047000A8FE01460C20FFF795FEDFF81005076087
:10048000DFF84455002200212846FFF702FF002232
:1004900000212846FFF7AEFE224600212846FFF73E
:1004A000DBFE202200212846FFF7B0FE00220021BB
:1004B0002846FFF7B1FE802200212846FFF7B4FE50
:1004C0004FF4807200212846FFF7B4FE4FF480629B
:1004D00000212846FFF7BAFE102200212846FFF728
:1004E000C1FEDFF8E82400212846FFF7CCFE424693
:1004F00000212846FFF7C1FE00212846FFF7D9FE5C
:1005000000212846FFF7DEFE00212846FFF7E3FE24
:10051000072201212846FFF7BCFE102201212846B0
:10052000FFF768FE4FF4405201212846FFF794FE82
:10053000202201212846FFF769FE002201212846DA
:10054000FFF76AFE802201212846FFF76DFE4FF477
:10055000007201212846FFF76DFE4FF40062012171
:100560002846FFF773FE012201212846FFF77AFE95
:10057000DFF85C2401212846FFF785FE08F1200200
:1005800001212846FFF779FE01212846FFF791FE59
:1005900001212846FFF796FE01212846FFF79BFE22
:1005A000E86940F00100E8611C22002106A800F083
:1005B00037FA00F087F94FF40030FFF798FE01207A
:1005C000FFF792FE0C210091022203210192029179
:1005D00000220392049269460722059200F061F915
:1005E0004FF4E130002106900791089109910C2207
:1005F0000B910C910A9206A9DFF8D853284600F017
:1006000035FB686820F4904068601422A86820F0E8
:100610002A00A86006A800F03EF900F001FA2022A6
:10062000002115A800F0FCF9282200210BA800F0F9
:10063000F7F900F047F94FF40060FFF764FE4EF65B
:10064000602208920020ADF818000790099003225C
:100650000A9206A9E04D284600F060FB286820F0C9
:10066000800028606022A96941F00801A961159203
:1006700000211691002247F23051179218911992D9
:100680001A921B921C92012115AA284600F075FBB4
:10069000A86920F00400A8610021A86820F00800E3
:1006A000A8600022A86820F48040A860A86820F410
:1006B0003F40A860686820F070006860686820F4B7
:1006C00070006860A86820F08000A8600B910C9210
:1006D0000D918DF83820ADF83A100F9410911192C9
:1006E0004FF000711291139214920BA9284600F05A
:1006F0007AFCE86840F48070E860E86840F0010047
:10070000E8600220FFF7F0FD009402210191002231
:10071000012105910292039204926946304600F04D
:1007200027FA142200F0CFF80120FFF7E0FD402166
:10073000ADF800100022FF21029101920392694658
:100740004FF0804000F0EAFA4FF08041A34E086875
:1007500020F0800008608A68A14802408A604A68E8
:1007600022F070024A600C22886820F080008860C5
:1007700000F0A9F81822002103A800F051F9102276
:1007800000210FA800F04CF91822002109A800F060
:1007900047F92046FFF7A8FD0120FFF7A5FD02203D
:1007A000032109900A9100220D9209A900F079F81D
:1007B00000200090019002906946304600F071FCE4
:1007C0000021039104910591069403210791089754
:1007D00003A9304600F078FCB068824C824F834910
:1007E000834B2040B060B068384040F08050B0602B
:1007F0000A200A68B2FBF3F34343B3FBF0F000288E
:1008000000E0401EFDD100210F9110910FA9794801
:1008100000F028FC306B20F4F86040F4C0703063C6
:10082000706940F4E01070617348016821F0400184
:100830000160286A40F001002862686C40F40040C2
:10084000686400F028F8686940F001006861ADF85C
:100850000010B0680440B460B1686848394041F0A5
:100860008051B160B168014041F00041B160B068B1
:10087000C00FFCD1B068384040F00100B060306873
:10088000C007FCD5B1680F4047F00407B760B8F85F
:1008900002006863FEE7296841F001012960002138
:1008A00070474FF0904000F063B9049269464FF0F2
:1008B000904000F05DB90321009001910022049264
:1008C0006946704718220021684600F0A9B810B5A3
:1008D0004B480168C908C90041F003010160016883
:1008E00001F007010329FAD14648016821F4C061EB
:1008F00041F4007101604449086840F0010008605B
:1009000008688007FCD50A6842F008020A60086897
:1009100020F0F00040F060000860486820F47F405C
:100920004860CA683948024042F4005242F001026D
:10093000CA60C86840F08070C8600A6842F080727F
:100940000A6008688001FCD58A6842F003028A6068
:10095000886800F00C000C28FAD188682C4C20F034
:10096000F0008860886820F4E060886020468A682B
:1009700022F460528A6000F0D7FB204600F0E0FBD2
:100980002448016821F00C01016010BD00E100E085
:1009900000E400E018ED00E0EFBFFFFF4C10024064
:1009A0005810024060100240000000200CED00E0F2
:1009B0000003FA0514000140000400480008004844
:1009C000001C004848100240000002404000045053
:1009D000342C014000440040002C01400000045031
:1009E000F8BFFEFFC0FFFF5FC0FFFF7F24000020B5
:1009F000400D030000030450B0000450C0FFFF3F4F
:100A00000020024000700040001002408C80FFF97E
:100A10000090D00388100240081C3044586C8000BD
:100A200010B5044610460A460146204600F090FBE9
:100A3000204610BD30B5027A03684C4C0021002AD4
:100A400000F08080002B3CD0427A1AB1022A0ED0EE
:100A500009D314E0656825EA03036360236802682C
:100A6000134323600CE0256825EA030301E02568B1
:100A70002B432360636802681343636000E0012135
:100A8000827AF2B1012A04D019D3032A0ED009D3F5
:100A900015E0E36802689343E360A36802681343C8
:100AA000A3600EE0A3680268934302E0A3680268B3
:100AB0001343A360E36802681343E36001E041F07D
:100AC00002014268002A4DD0437A1BB1022B0ED09E
:100AD00009D314E0656A25EA02026262236A426869
:100AE000134323620DE0236A23EA020201E0236A32
:100AF0001A432262656A42681543656201E041F06B
:100B00000401827A72B3012A04D019D3032A0ED0C9
:100B100009D315E0E36A42689343E362A36A40683D
:100B20000343A3621EE0A36A4268934302E0A36A00
:100B300042681343A362E36A40680343E36211E03F
:100B400001210FE0256825EA03032360636802683A
:100B500093436360236A426893432362636A4068F5
:100B600083436362084630BD00000000000401407A
:100B7000F0B50B460246186890FAA0F0B0FA80F67D
:100B80000F2403253EE0090A00F04DF8576A00F0F3
:100B900051F8506235E00120B040014031D0586832
:100BA000176800F053F84FEA4C0E00FA0EF0384385
:100BB00010605868012818BF022809D19868976802
:100BC00000F044F84FEA4C0E00FA0EF03843906003
:100BD00091FAA1FC1869D76800F03AF84FEA4C0E78
:100BE00000FA0EF03843D0605868022809D15869DD
:100BF000B1F5807FC7D200F016F8176A00F01AF836
:100C00001062761C196831FA06F0C4D158680128C0
:100C100018BF022805D15468D8688C43414321434A
:100C200051600020F0BD91FAA1FCBCFA8CFC91FA55
:100C3000A1F170474FEA8C0CB1FA81F104FA0CFC77
:100C4000890027EA0C0788403843704791FAA1FCD5
:100C5000BCFA8CFC4FEA4C0C05FA0CFC27EA0C079A
:100C600091FAA1FCBCFA8CFC7047000070B50446F8
:100C70000E4620680125C10744D4226826487168C1
:100C80000240F0680A4331690243B0690A430243F3
:100C900022606168B06821F4405101436160A1683D
:100CA000706921F440710143A16018498C4208BF6A
:100CB000032008D016498C4208BF0C2003D01548E9
:100CC00084421FD1302000F077FA00281CBF316821
:100CD000002917D0B36900254A08B3F5004F0CD19D
:100CE00002EB4002B2FBF1F080B24FF6F07101402E
:100CF000C0F342000143E16004E01018B0FBF1F0E2
:100D000080B2E060284670BD00000000003801405D
:100D10000044004000480040F369FFEF70B5DFF881
:100D200028630368DFF82843DFF82053B04218BF78
:100D3000B0F1804F01BF23F070034A681343B04203
:100D400005D0B0F1804F1CBFA842A04203D1CA68B1
:100D500023F4407313430360B0428A68C2621CBF2D
:100D6000A842A0420A88826201D1096901634169EF
:100D700041F001014161002070BDF0B50346012042
:100D80000129DFF8D072DFF8D0C2DFF8C442DFF803
:100D9000BC52DFF8B46211D0102943D0B1F5807F86
:100DA00077D0B1F5805F00F0A880B1F5803F00F00A
:100DB000CC80B1F5801F00F0EF80F0BD186A4008CC
:100DC00040001862D3F820C0D3F804E09969106895
:100DD0000F40074311692CF0020008434108506896
:100DE000B3421CBFAB42A34240EA410C12D150694E
:100DF0002CF0080141EA800020F00401906841EAEB
:100E0000800C90692EF480710843D16920F4007041
:100E100040EA410EC3F804E09F61D0685863C3F80C
:100E200020C0DEE0186A20F010001862B342186A91
:100E300059689F69D2F800E00CEA070747EA0E2CD0
:100E4000176920F0200040EA0710576820F01000D2
:100E50001CBFAB42A34240EA071013D1546920F0F3
:100E6000800040EA8410946820F0400040EA84103A
:100E7000946921F4806141EA8401D46921F400611C
:100E800041EAC4015960C3F818C0D1689963186277
:100E9000A7E0186A20F480701862196AD3F804C0B9
:100EA000D869074010680743106921F4007141EACE
:100EB00000215068B34221F480711CBFAB42A342B1
:100EC00041EA002113D1506921F4006141EA8021F7
:100ED000906821F4806141EA802190692CF480546B
:100EE00044EA001020F40054D06944EA401CC3F8DE
:100EF00004C0DF61D068D86325E0186A20F4805010
:100F00001862B342196A5868DF69D2F800E00CEA47
:100F1000070747EA0E2C176921F4005141EA07310F
:100F2000576821F480511CBFAB42A34241EA07310C
:100F300004D1946920F4804040EA84105860C3F8DA
:100F40001CC0D068186419624BE0186A434920F449
:100F5000803018621F6A586D0140106840EA010C29
:100F60001169506827F4003747EA0147B34227F474
:100F700080371CBFAB42A34247EA004706D15868FE
:100F8000916920F4803040EA01205860C3F854C0D1
:100F9000D068996D986523E0186A20F48010186273
:100FA0001F6A596D2E480140106841EA00211069FE
:100FB00027F4001747EA00575068B34227F4801718
:100FC0001CBFAB42A34247EA005706D15868946958
:100FD00020F4802040EA842058605965D068D865A4
:100FE0001F620020F0BD30B50C7B8A684B684D6AEB
:100FF000144324F480641C430A68CB8924F40064FD
:10100000144324F480541C430A690F4B24F4005405
:10101000144324F480442C4324F400442C43984289
:101020000FD14A690B6A24F47024144324F4700429
:101030001C438A69C96924F08074144324F0007445
:101040000C434464002030BD002C014000400140AE
:10105000004401408CFFFEFFFF8CFFFE8FFFFEFF70
:10106000FF8FFFFE70B52B4B2B4C1B6824680022B2
:101070002343DB0712D44B680C68284D4BB18668BC
:1010800035402C4323438C68C96823430B4383605A
:1010900005E081680D402C43846000E00122104689
:1010A00070BD70B5024600209368DB070AD4D6688D
:1010B0001B4D0C684B6889682E4026431E430E4327
:1010C000D66070BD012070BDF0B583680022DC07DA
:1010D0001DD44C690D69CE680F684B68DFF844C0B9
:1010E00033B1C3680CEA03031F438B681F4303E05B
:1010F000C3680CEA03031F433E4335432C43C460DB
:10110000036B49681B0941EA0313036300E00122F2
:101110001046F0BD0800045008010450E030C0FF44
:10112000C7BFFFFF3CC0F0FF4FF47A720649B0FB27
:10113000F2F0401E486000238B6005200860704775
:10114000024908607047000010E000E02400002021
:1011500062F30F2262F31F42401810F0030308D01D
:10116000C91A1FD3DB0748BF00F8012D28BF20F89C
:10117000022D130030B414461546103928BF20E95B
:101180003C00FAD8490728BF20E90C0048BF40F8C6
:10119000042D890028BF20F8022D48BF00F8012D3A
:1011A00030BC7047C91818BF00F8012DCB0728BF05
:1011B00000F8012D7047000070B50146002003299A
:1011C000DFF8C021DFF8B441DFF8AC514FF4004341
:1011D00015D1296801F0030141F440314FF4403644
:1011E000891B05D0491E2DD0491E2ED0491E16E060
:1011F00000F03DF800F068F8BDE8704072E00C299E
:101200000FD1296801F00C0141F440214FF4402630
:10121000891B24D0091F15D0091F16D0091F19D00A
:1012200070BD302922D1296801F0300141F440110C
:101230004FF44016891B12D0103903D0103904D056
:101240001039ECE7BDE8704011E0216849050DD583
:10125000104670BDA968890708D5184670BD00F012
:1012600006F800F031F8BDE8704033E070BD434946
:1012700045488B68424A13F00C030BD0042B04D072
:10128000082B04D00C2B04D004E03E4870473F48A4
:1012900070472DE00B681B070B6809D41B0747BF7D
:1012A000096801F0F001116801F47061090A08E0B1
:1012B0001B0747BF096801F0F001116801F4706174
:1012C000090950F8210070473149324A0968C1F3D1
:1012D000031104E02E49304A0968C1F30221515C30
:1012E000C84070472A492C4A0968C1F3C221F6E771
:1012F00010B500F038F807D006D3032B02D003D284
:1013000020491AE0214918E003681B07036809D443
:101310001B0747BF026802F0F002126802F4706215
:10132000120A08E01B0747BF026802F0F0021268C9
:1013300002F47062120951F8221000F008F8C4F3A8
:101340004160FFE7401C4000B1FBF0F010BDC268F7
:10135000C368C468C2F30210401CB1FBF0F1C3F3D0
:1013600006204143704705480749C368044A03F013
:101370000303012B70470000881002400010024058
:10138000941002400024F40094140008001BB700DD
:10139000081002404C140008841500087047FEE74E
:1013A000FEE7FEE7FEE77047704770477047114859
:1013B0000168890702D501224260704700687047C2
:1013C0000C480168890203D54FF4801242607047CF
:1013D0000068704708480168C90744BF6FF0010200
:1013E0000260704705480168890444BF4FF4005209
:1013F0000260704700000240102C014014040140BC
:101400000E48016841F47001016000220C4908682F
:1014100040F0010008608A604FF480520B68094870
:1014200003400B60CA6000200B68074A23F4802346
:101430000B6088614FF000611160704788ED00E03B
:1014400000100240FFFFF6EA08ED00E00000000097
:1014500000000000010203040607080930B5016816
:1014600084684218416802EB5103C90703D54C4414
:1014700001E0491C05D19A420AD012F9011B12F869
:10148000015B002904F8015BF3D4491EF7D5F2E7AC
:101490000C3030BDA0860100400D0300801A06000C
:1014A00000350C0040420F0080841E0000093D0002
:1014B00000127A000024F40000366E010048E801B2
:1014C000006CDC0210B5074979441831064C7C44A5
:1014D000163404E00A68081D114488470146A142F9
:1014E000F8D110BD2C000000380000004EF68851E5
:1014F000CEF20001086840F470000860BFF34F8F1F
:10150000BFF36F8F4FF00070E1EE100A70470000DC
:101510004DFFFFFF48010000160000000000002002
:1015200000F00DF8002801D0FFF7CCFFAFF30080EA
:101530000020AFF30080FEF7E9FE00F002F8012082
:10154000704700F001B800000746384600F002F886
:10155000FBE7000080B5AFF30080024A11001820BD
:10156000ABBEFBE726000200014880470148004768
:101570000114000879150008AFF30080FFF7B6FFEB
:10158000FFF7CEFF0000000001020304FFF7FEBFDB
:10159000FFF7FEBFFFF7FEBFFFF7FEBFFFF7FEBF7F
:1015A000FFF7FEBFFFF7FEBFFFF7FEBFFFF7FEBF6F
:1015B000FFF7FEBFFFF7FEBFFFF7FEBFFFF7FEBF5F
:1015C000FFF7FEBFFFF7FEBFFFF7FEBFFFF7FEBF4F
:1015D000FFF7FEBFFFF7FEBFFFF7FEBFFFF7FEBF3F
:1015E000FFF7FEBFFFF7FEBFFFF7FEBFFFF7FEBF2F
:1015F000FFF7FEBFFFF7FEBFFFF7FEBFFFF7FEBF1F
:10160000FFF7FEBFFFF7FEBFFFF7FEBFFFF7FEBF0E
:10161000FFF7FEBFFFF7FEBFFFF7FEBFFFF7FEBFFE
:10162000FFF7FEBFFFF7FEBFFFF7FEBFFFF7FEBFEE
:10163000FFF7FEBFFFF7FEBFFFF7FEBFFFF7FEBFDE
:10164000FFF7FEBFFFF7FEBFFFF7FEBFFFF7FEBFCE
:10165000FFF7FEBFFFF7FEBFFFF7FEBFE000018808
:0716600013FD0002093D002B
:040000050800157961
:00000001FF
