:020000040800F2
:1000000028040020BD1300086112000863120008D4
:10001000651200086712000869120008000000005D
:100020000000000000000000000000006B1200084B
:100030006D120008000000006F1200087112000825
:10004000E1130008E5130008E9130008ED130008A8
:10005000F1130008F5130008F9130008FD13000858
:1000600001140008051400080914000873120008A0
:10007000851200080D14000811140008151400085A
:10008000191400081D1400082114000800000000C5
:10009000000000000000000000000000251400081F
:1000A000291400082D140008311400083514000824
:1000B0003914000800000000000000003D14000892
:1000C0004114000845140008491400084D140008A4
:1000D0005114000855140008591400085D14000854
:1000E00099120008611400080000000000000000E0
:1000F0000000000000000000000000000000000000
:1001000000000000000000000000000000000000EF
:10011000000000000000000065140008000000005E
:10012000691400086D1400087114000875140008A3
:10013000791400080000000000000000000000002A
:100140007D14000881140008851400088914000833
:100150008D140008911400089514000899140008E3
:100160009D140008A1140008000000000000000019
:1001700000000000A51400080000000000000000BE
:10018000A9140008AD140008B1140008010008D437
:10019000012200F01F01DFF864368A40400943F86D
:1001A000202070470901020003D4DFF8540681546F
:1001B0007047DFF8503602F00F021A4402F8041CB0
:1001C000704730B500F007000123C0F10704052C8B
:1001D0002EBF0F2403FA04F4641E051D072D34BF3F
:1001E0000020C01E2140814003FA00F0401E104054
:1001F000084330BDDFF8101601E0DFF8101681B0BB
:100200000A6802430A60096808400090009801B03B
:100210007047DFF8FC15F2E72DE9F8419DB00020AA
:10022000DFF8F0554FF4805625F81060401C102878
:10023000FAD30120FFF7EDFF4FF08050FFF7DDFF0D
:10024000DFF8D445DFF8D40522684FF6FF010A40F5
:10025000024322604FF4005800F071FA0C22002192
:1002600006A800F011FB00F065FA0420FFF7C2FFBA
:100270008020FFF7BFFF00F055FA0220FFF7BAFF1A
:100280004FF09041B02088620021DFF894050268A9
:1002900022F0F00242F020020260079101228DF864
:1002A00020208DF8211002228DF82220CDF8188010
:1002B00006A800F0F3FADFF86C05C16821F0406190
:1002C000C16041F6DF71026822F040620260009175
:1002D0000322002301920493694600F07DFB49F656
:1002E0000160032100900191002200F015FAB02076
:1002F00001210090019100220292039200F00CFA79
:100300004020002100900191012200F005FA4FF6F3
:10031000F77000F0FAF9DFF8100500F05DFB082037
:1003200000F0F3F9DFF8040500F056FB00F0FCF9EB
:1003300001462820FFF736FF2820FFF727FFDFF8C8
:10034000F004016841F001010160006800F0010063
:100350000090009800F0E8F901460B20FFF722FF1B
:100360000B20FFF713FF00F0DFF901460C20FFF729
:1003700019FFDFF88804DFF8BC4406601C22002166
:1003800006A800F081FA00F0D5F94FF40030FFF72D
:1003900034FF00F0C7F9022201920C2100910022E3
:1003A00003920492032102910722059200F0B5F90D
:1003B0004FF4E130002106900791089109910C2239
:1003C0000B910C910A9206A9204600F083FB60680D
:1003D00020F4904060601422A06820F02A00A06001
:1003E00006A8216841F001012160002100F04CFACB
:1003F0002022002115A800F047FA282200210BA88E
:1004000000F042FA00F096F94FF40060FFF701FFA8
:10041000DFF82404DFF82444016821F0F00141F002
:1004200070010160DFF818042168014041F01001FB
:100430002160226822F4405242F4805222602068F7
:1004400040F020002060216821F0400121602068F8
:1004500040F080002060216821F4407141F48071F7
:10046000216005F12001206820F4406040F48060A4
:1004700020606068000C000440F001006060DFF85C
:10048000C403A060E16000222068DFF8BC7340F084
:1004900002002060216841F00401216000212068F1
:1004A00040F008002060ADF8181007924EF6602169
:1004B000089109920A9206A9384600F063FB386851
:1004C00020F0800038606022B96941F00801B9610C
:1004D000159200211691002247F23051179218917F
:1004E00019921A921B921C92012115AA384600F00B
:1004F00078FBB86920F00400B8610021B86820F0EA
:100500000800B8600022B86820F48040B860B8687D
:1005100020F43F40B860786820F070007860786818
:1005200020F470007860B86820F08000B8600B910B
:100530000D91ADF83A1010910C924FF0007112919C
:100540008DF83820119213921492CDF83C800BA9AB
:10055000384600F07CFCF86840F48070F860F86879
:1005600040F00100F86000F0DDF84FF48071009178
:10057000022201920021029103910491012205922D
:1005800000F0CBF8142200F0D6F80120FFF735FE7A
:100590004021ADF800100022FF2102910192039248
:1005A00069464FF0804000F0EDFA4FF08041086856
:1005B00020F0800008608A68A44802408A604A6887
:1005C000A34D22F070024A600C22886820F080005F
:1005D000886000F0B0F81822002103A800F054F958
:1005E000102200210FA800F04FF91822002109A8BD
:1005F00000F04AF94046FFF7FDFD00F093F80220B5
:10060000032109900A9100220D9209A94FF0904010
:1006100000F0E2F90020009001900290694628461F
:1006200000F073FC0021039104910591CDF818802E
:1006300001210791089603A9284600F079FCA868D3
:10064000DFF81082844E8549854B08EA0000A860D7
:10065000A868304040F08050A8600A200A68B2FBC9
:10066000F3F34343B3FBF0F0002800E0401EFDD15C
:1006700000210F9110910FA97A4800F027FC286BF8
:1006800020F4F86040F4C0702863686940F4E0101A
:1006900068617548016821F040010160386A40F0E6
:1006A00001003862786C40F400407864396841F0A9
:1006B000010139600021786940F001007861ADF8EE
:1006C0000010A86808EA0000A860A96867483140DF
:1006D00041F08051A960A968014041F00041A96042
:1006E000A868C00FFCD1A868304040F00100A860A5
:1006F0002868C007FCD5A9680E4046F00406AE6025
:10070000206840F001002060FEE703210090019185
:100710000022049269467047049269464FF0904067
:1007200000F05AB9012065E5206800220021C0F3DD
:10073000022046E518220021684600F0A5B810B551
:100740004B480168C908C90041F003010160016814
:1007500001F007010329FAD14648016821F4C0617C
:1007600041F4007101604449086840F001000860EC
:1007700008688007FCD50A6842F008020A60086829
:1007800020F0F00040F060000860486820F47F40EE
:100790004860CA683948024042F4005242F00102FF
:1007A000CA60C86840F08070C8600A6842F0807211
:1007B0000A6008688001FCD58A6842F003028A60FA
:1007C000886800F00C000C28FAD188682C4C20F0C6
:1007D000F0008860886820F4E060886020468A68BD
:1007E00022F460528A6000F0D3FB204600F0DCFB6C
:1007F0002448016821F00C01016010BD00E100E017
:1008000000E400E018ED00E04C10024058100240F7
:1008100060100240000000200CED00E00003FA052B
:10082000140001400008004800040048001C004873
:100830004810024000440040A80002401C00024052
:10084000EFBFFFFF342C0140002C0140F8BFFEFF3A
:1008500000000450C0FFFF5FC0FFFF7F24000020A6
:10086000400D030000030450B0000450C0FFFF3FE0
:100870000020024000700040001002408C80FFF910
:100880000090D0038810024010B5044610460A4676
:100890000146204600F090FB204610BD30B5027A9C
:1008A00003684C4C0021002A00F08080002B3CD0D3
:1008B000427A1AB1022A0ED009D314E0656825EAFB
:1008C0000303636023680268134323600CE0256818
:1008D00025EA030301E025682B432360636802686F
:1008E0001343636000E00121827AF2B1012A04D04F
:1008F00019D3032A0ED009D315E0E36802689343A5
:10090000E360A36802681343A3600EE0A368026873
:10091000934302E0A36802681343A360E36802689C
:100920001343E36001E041F002014268002A4DD028
:10093000437A1BB1022B0ED009D314E0656A25EA75
:1009400002026262236A4268134323620DE0236A53
:1009500023EA020201E0236A1A432262656A4268BE
:100960001543656201E041F00401827A72B3012A05
:1009700004D019D3032A0ED009D315E0E36A4268E4
:100980009343E362A36A40680343A3621EE0A36A41
:100990004268934302E0A36A42681343A362E36A96
:1009A00040680343E36211E001210FE0256825EA76
:1009B000030323606368026893436360236A4268A9
:1009C00093432362636A406883436362084630BD91
:1009D0000000000000040140F0B50B460246186814
:1009E00090FAA0F0B0FA80F60F2403253EE0090A41
:1009F00000F04DF8576A00F051F8506235E00120E0
:100A0000B040014031D05868176800F053F84FEA01
:100A10004C0E00FA0EF0384310605868012818BFD9
:100A2000022809D19868976800F044F84FEA4C0E04
:100A300000FA0EF03843906091FAA1FC1869D7686B
:100A400000F03AF84FEA4C0E00FA0EF03843D0604E
:100A50005868022809D15869B1F5807FC7D200F0E3
:100A600016F8176A00F01AF81062761C196831FA45
:100A700006F0C4D15868012818BF022805D154686F
:100A8000D8688C434143214351600020F0BD91FA66
:100A9000A1FCBCFA8CFC91FAA1F170474FEA8C0CD6
:100AA000B1FA81F104FA0CFC890027EA0C078840AE
:100AB0003843704791FAA1FCBCFA8CFC4FEA4C0C0D
:100AC00005FA0CFC27EA0C0791FAA1FCBCFA8CFC95
:100AD0007047000070B504460E4620680125C10726
:100AE00044D42268264871680240F0680A4331699C
:100AF0000243B0690A43024322606168B06821F48E
:100B0000405101436160A168706921F44071014363
:100B1000A16018498C4208BF032008D016498C42B6
:100B200008BF0C2003D0154884421FD1302000F0AC
:100B300077FA00281CBF3168002917D0B369002557
:100B40004A08B3F5004F0CD102EB4002B2FBF1F0C2
:100B500080B24FF6F0710140C0F342000143E16002
:100B600004E01018B0FBF1F080B2E060284670BDE0
:100B700000000000003801400044004000480040F0
:100B8000F369FFEF70B5DFF828630368DFF82843E7
:100B9000DFF82053B04218BFB0F1804F01BF23F0FF
:100BA00070034A681343B04205D0B0F1804F1CBFB8
:100BB000A842A04203D1CA6823F4407313430360E0
:100BC000B0428A68C2621CBFA842A0420A88826200
:100BD00001D109690163416941F0010141610020CE
:100BE00070BDF0B5034601200129DFF8D072DFF8AF
:100BF000D0C2DFF8C442DFF8BC52DFF8B46211D0D3
:100C0000102943D0B1F5807F77D0B1F5805F00F037
:100C1000A880B1F5803F00F0CC80B1F5801F00F0D6
:100C2000EF80F0BD186A400840001862D3F820C079
:100C3000D3F804E0996910680F40074311692CF05C
:100C40000200084341085068B3421CBFAB42A342B4
:100C500040EA410C12D150692CF0080141EA8000B1
:100C600020F00401906841EA800C90692EF48071B4
:100C70000843D16920F4007040EA410EC3F804E053
:100C80009F61D0685863C3F820C0DEE0186A20F086
:100C900010001862B342186A59689F69D2F800E0E0
:100CA0000CEA070747EA0E2C176920F0200040EAFB
:100CB0000710576820F010001CBFAB42A34240EA67
:100CC000071013D1546920F0800040EA8410946822
:100CD00020F0400040EA8410946921F4806141EAE8
:100CE0008401D46921F4006141EAC4015960C3F868
:100CF00018C0D16899631862A7E0186A20F4807060
:100D00001862196AD3F804C0D8690740106807430D
:100D1000106921F4007141EA00215068B34221F4C6
:100D200080711CBFAB42A34241EA002113D150693C
:100D300021F4006141EA8021906821F4806141EA58
:100D4000802190692CF4805444EA001020F400546F
:100D5000D06944EA401CC3F804C0DF61D068D8639E
:100D600025E0186A20F480501862B342196A586866
:100D7000DF69D2F800E00CEA070747EA0E2C176992
:100D800021F4005141EA0731576821F480511CBF1A
:100D9000AB42A34241EA073104D1946920F4804078
:100DA00040EA84105860C3F81CC0D0681864196207
:100DB0004BE0186A434920F4803018621F6A586D6E
:100DC0000140106840EA010C1169506827F40037AF
:100DD00047EA0147B34227F480371CBFAB42A34226
:100DE00047EA004706D15868916920F4803040EA0C
:100DF00001205860C3F854C0D068996D986523E00D
:100E0000186A20F4801018621F6A596D2E4801403C
:100E1000106841EA0021106927F4001747EA0057DB
:100E20005068B34227F480171CBFAB42A34247EA85
:100E3000005706D15868946920F4802040EA842045
:100E400058605965D068D8651F620020F0BD30B584
:100E50000C7B8A684B684D6A144324F480641C43FD
:100E60000A68CB8924F40064144324F480541C439E
:100E70000A690F4B24F40054144324F480442C4397
:100E800024F400442C4398420FD14A690B6A24F49D
:100E90007024144324F470041C438A69C96924F043
:100EA0008074144324F000740C434464002030BD6B
:100EB000002C014000400140004401408CFFFEFF37
:100EC000FF8CFFFE8FFFFEFFFF8FFFFE70B52B4BE9
:100ED0002B4C1B68246800222343DB0712D44B6889
:100EE0000C68284D4BB1866835402C4323438C68F1
:100EF000C96823430B43836005E081680D402C43A0
:100F0000846000E00122104670BD70B502460020EA
:100F10009368DB070AD4D6681B4D0C684B68896858
:100F20002E4026431E430E43D66070BD012070BD87
:100F3000F0B583680022DC071DD44C690D69CE68CA
:100F40000F684B68DFF844C033B1C3680CEA030391
:100F50001F438B681F4303E0C3680CEA03031F436E
:100F60003E4335432C43C460036B49681B0941EA87
:100F70000313036300E001221046F0BD0800045093
:100F800008010450E030C0FFC7BFFFFF3CC0F0FFC6
:100F90004FF47A720649B0FBF2F0401E486000231D
:100FA0008B600520086070470249086070470000A8
:100FB00010E000E02400002062F30F2262F31F42E1
:100FC000401810F0030308D0C91A1FD3DB0748BF2D
:100FD00000F8012D28BF20F8022D130030B414466C
:100FE0001546103928BF20E93C00FAD8490728BF28
:100FF00020E90C0048BF40F8042D890028BF20F8E4
:10100000022D48BF00F8012D30BC7047C91818BF29
:1010100000F8012DCB0728BF00F8012D7047000014
:1010200070B5014600200329DFF8C021DFF8B44184
:10103000DFF8AC514FF4004315D1296801F00301EA
:1010400041F440314FF44036891B05D0491E2DD064
:10105000491E2ED0491E16E000F03DF800F068F859
:10106000BDE8704072E00C290FD1296801F00C0135
:1010700041F440214FF44026891B24D0091F15D08C
:10108000091F16D0091F19D070BD302922D1296837
:1010900001F0300141F440114FF44016891B12D089
:1010A000103903D0103904D01039ECE7BDE8704096
:1010B00011E0216849050DD5104670BDA968890762
:1010C00008D5184670BD00F006F800F031F8BDE80C
:1010D000704033E070BD434945488B68424A13F085
:1010E0000C030BD0042B04D0082B04D00C2B04D001
:1010F00004E03E4870473F4870472DE00B681B07EF
:101100000B6809D41B0747BF096801F0F00111689B
:1011100001F47061090A08E01B0747BF096801F084
:10112000F001116801F47061090950F8210070475D
:101130003149324A0968C1F3031104E02E49304AAB
:101140000968C1F30221515CC84070472A492C4A02
:101150000968C1F3C221F6E710B500F038F807D0EE
:1011600006D3032B02D003D220491AE0214918E00C
:1011700003681B07036809D41B0747BF026802F016
:10118000F002126802F47062120A08E01B0747BFFF
:10119000026802F0F002126802F47062120951F85B
:1011A000221000F008F8C4F34160FFE7401C400043
:1011B000B1FBF0F010BDC268C368C468C2F302108E
:1011C000401CB1FBF0F1C3F30620414370470548D2
:1011D0000749C368044A03F00303012B704700006A
:1011E0008810024000100240941002400024F400D5
:1011F000E8120008001BB700081002405012000857
:10120000D81300080E48016841F470010160002203
:101210000C49086840F0010008608A604FF4805271
:101220000B68094803400B60CA6000200B68074A3E
:1012300023F480230B6088614FF0006111607047D8
:1012400088ED00E000100240FFFFF6EA08ED00E044
:101250000000000000000000010203040607080966
:101260007047FEE7FEE7FEE7FEE77047704770470E
:1012700070470D480168890702D501224260704716
:101280000068704708480168890203D54FF480124E
:10129000426070470068704704480168890444BF91
:1012A0004FF40052026070470000024014040140F5
:1012B00030B5016884684218416802EB5103C907E0
:1012C00003D54C4401E0491C05D19A420AD012F9D9
:1012D000011B12F8015B002904F8015BF3D4491EDD
:1012E000F7D5F2E70C3030BDA0860100400D0300B9
:1012F000801A060000350C0040420F0080841E005A
:1013000000093D0000127A000024F40000366E014E
:101310000048E801006CDC0210B507497944183137
:10132000064C7C44163404E00A68081D11448847C2
:101330000146A142F8D110BD2C0000003800000089
:101340004EF68851CEF20001086840F47000086043
:10135000BFF34F8FBFF36F8F4FF00070E1EE100AB5
:10136000704700004DFFFFFF4C0100001600000019
:101370000000002000F00DF8002801D0FFF7CCFF9E
:10138000AFF300800020AFF30080FEF745FF00F0D0
:1013900002F80120704700F001B800000746384607
:1013A00000F002F8FBE7000080B5AFF30080024ACE
:1013B00011001820ABBEFBE7260002000148804761
:1013C0000148004705120008CD130008AFF3008064
:1013D000FFF7B6FFFFF7CEFF000000000102030495
:1013E000FFF7FEBFFFF7FEBFFFF7FEBFFFF7FEBF31
:1013F000FFF7FEBFFFF7FEBFFFF7FEBFFFF7FEBF21
:10140000FFF7FEBFFFF7FEBFFFF7FEBFFFF7FEBF10
:10141000FFF7FEBFFFF7FEBFFFF7FEBFFFF7FEBF00
:10142000FFF7FEBFFFF7FEBFFFF7FEBFFFF7FEBFF0
:10143000FFF7FEBFFFF7FEBFFFF7FEBFFFF7FEBFE0
:10144000FFF7FEBFFFF7FEBFFFF7FEBFFFF7FEBFD0
:10145000FFF7FEBFFFF7FEBFFFF7FEBFFFF7FEBFC0
:10146000FFF7FEBFFFF7FEBFFFF7FEBFFFF7FEBFB0
:10147000FFF7FEBFFFF7FEBFFFF7FEBFFFF7FEBFA0
:10148000FFF7FEBFFFF7FEBFFFF7FEBFFFF7FEBF90
:10149000FFF7FEBFFFF7FEBFFFF7FEBFFFF7FEBF80
:1014A000FFF7FEBFFFF7FEBFFFF7FEBFFFF7FEBF70
:0F14B000FFF7FEBFE000018813FD0002093D00B9
:04000005080013CD0F
:00000001FF
