:020000040800F2
:1000000008040020ED0F00081D0F00081F0F000856
:10001000210F0008230F0008250F00080000000032
:10002000000000000000000000000000270F000892
:10003000290F0008000000002B0F00082D0F0008FA
:100040001110000815100008191000081D100008F4
:100050002110000825100008291000082D100008A4
:100060003110000835100008391000083D10000854
:100070004110000845100008491000084D10000804
:100080005110000855100008591000080000000029
:100090000000000000000000000000005D100008EB
:1000A0006110000865100008691000086D10000854
:1000B000711000080000000000000000751000082A
:1000C000791000087D1000088110000885100008D4
:1000D000891000088D100008911000089510000884
:1000E000991000089D1000080000000000000000AA
:1000F0000000000000000000000000000000000000
:1001000000000000000000000000000000000000EF
:100110000000000000000000A11000080000000026
:10012000A5100008A9100008AD100008B1100008C3
:10013000B5100008000000000000000000000000F2
:10014000B91000082F0F0008BD100008C1100008EA
:10015000C5100008C9100008CD100008D110000813
:10016000D5100008D91000080000000000000000B1
:1001700000000000DD10000800000000000000008A
:10018000E1100008E5100008E9100008DFF804029B
:100190000068C00800F001007047DFF8F80100684F
:1001A00000F0F0007047DFF8F001006800F47060C4
:1001B0007047DFF8EC01006800F003007047DFF8DB
:1001C000E0010168C1F306207047DFF8D401006840
:1001D00000F07000704710B5044600F067F820602A
:1001E00000F0C4F8606000F0C7F8A060606800F03C
:1001F000CBF8E06010BD70B5014600200329DFF8A0
:10020000A421DFF89041DFF894514FF4004315D159
:10021000296801F0030141F440314FF44036891B55
:1002200005D0491E2DD0491E2ED0491E16E000F0E3
:100230003DF800F09BF8BDE87040A5E00C290FD117
:10024000296801F00C0141F440214FF44026891B3C
:1002500024D0091F15D0091F16D0091F19D070BD51
:10026000302922D1296801F0300141F440114FF4C6
:100270004016891B12D0103903D0103904D0103920
:10028000ECE7BDE8704011E0216849050DD5104646
:1002900070BDA968890708D5184670BD00F006F83A
:1002A00000F064F8BDE8704066E070BDF8B53F4D01
:1002B0003D4C28683B4E3E4F10F00C003CD00428CB
:1002C00052D0082802D00C2802D035E03E464BE040
:1002D000FFF76FFF012806D005D3032801D01AD3FA
:1002E00001E03E4617E0FFF751FF48B9FFF74EFF28
:1002F00010B1FFF752FF01E0FFF755FF000A08E0D9
:10030000FFF744FF10B1FFF748FF01E0FFF74BFF95
:10031000000954F82060FFF758FF0009401CB6FBA5
:10032000F0F4FFF74CFF69684443C1F34160401C9F
:100330004000B4FBF0F617E0FFF728FF48B9FFF7DD
:1003400025FF10B1FFF729FF01E0FFF72CFF000A9E
:1003500008E0FFF71BFF10B1FFF71FFF01E0FFF7F9
:1003600022FF000954F820603046F2BD0F49114ABF
:100370000968C1F3031104E00C490F4A0968C1F38D
:100380000221515CC840704708490B4A0968C1F313
:10039000C221F6E70010024094100240881002408B
:1003A0000C1002400024F400EC0E0008081002407B
:1003B00000127A00DC0E000808100008724A136868
:1003C000010C23EA014343EA004313607047F8B588
:1003D0006E486F4C81686F4D6F4E41F00101816036
:1003E0000027816801F0010100910099026842F044
:1003F000805202604FF6FF01006800F080500090CC
:100400000098226865480A400243226000F037F8ED
:1004100000F0D9F800F078F900F00EFA00F03CF99D
:10042000286840F002002860A96841F00101A96035
:100430002869000C000440F400702861A86820F0CE
:10044000060040F00200A8603068C008C00040F01C
:1004500002003060606840F00400606030BF00F06F
:100460009DF9F8B200F03AFA00F0D0F9FFB2781C2A
:10047000052190FBF1F707EB8707C71BDEE738B5CF
:1004800047480168C908C90041F0040101600168DA
:1004900001F007010429FAD13F48016821F4C06145
:1004A00041F4007101603F490A6842F480720A60B9
:1004B0000A685205FCD54B6823F0FE4343F0805395
:1004C0004B600A6842F001020A600A689207FCD594
:1004D0000B682D4C43F008030B600A6822F0F00211
:1004E00042F060020A604A6822F47F424A60036870
:1004F00043F480730360A06820F01800A060A06837
:1005000040F00100A060A0688007FCD5CA682648BA
:10051000024042F4205242F00102CA60C86840F032
:100520008070C8600A6842F080720A6008688001C2
:10053000FCD58A6842F003028A60886800F00C00EB
:100540000C28FAD18868194D20F0F000886088687E
:1005500020F4E060886028468A6822F460528A604D
:1005600000F0ECF9284600F0F5F9206820F00C00C6
:1005700040F0080020604FF03010FFF71FFFBDE88B
:1005800032404FF00C1019E788100240581002401A
:100590000CED00E0087C0040007000400003FA050C
:1005A00000200240001002408C80FFF900B4C40417
:1005B000324981B00A6802430A6009680840009025
:1005C000009801B0704730B589B00C22002106A810
:1005D00000F0C8F918220021684600F0C3F9042091
:1005E000FFF7E6FF8020FFF7E3FF0120FFF7E0FFC2
:1005F0000220FFF7DDFF4FF09041A020204C8862E1
:100600004FF400551F48A5620122016821F0F00156
:1006100041F0200101608DF8202000210222079185
:100620008DF821108DF82220069506A800F0A4F977
:100630001548C16821F04061C1600121026822F0C3
:1006400040620260A0200090019100220292039279
:1006500000F01CF84020002100900191012200F0E0
:1006600015F8012101910022029203920492009553
:100670006946204600F01EFA09B030BD4C10024019
:100680000004004814000140000800480492694634
:100690004FF0904000F00EBA5E4881B0016841F022
:1006A00000410160002300685B4900F000400090B9
:1006B00000980A6859485A4A037002211160594843
:1006C00003685B085B000360016821F4606141F42A
:1006D00040610160026822F400120260016821F4A6
:1006E00080010160026822F400020260016821F4C6
:1006F000C021016042699208920042614169890803
:100700008900416101B0704700B587B0182200210F
:1007100001A800F027F94448016941F02001016176
:100720000223016901F0200100910099026842F062
:10073000010202601022006800F0010000904FF0FA
:1007400090400099019200210391049105910E229D
:100750000293069201A900F0ADF9344801684908F6
:1007600049000160026822F4606242F44062026063
:10077000016821F400110160026822F48002026025
:10078000016821F400010160026822F4C0220260C5
:10079000416989088900416107B000BD244841686A
:1007A00021F480114160026842F002020260816817
:1007B00041F001018160704710B51E4B9C6A240A0C
:1007C000401E40EA04209862C9035C694FF47A40F5
:1007D000240CB1FBF0F040EA04445C61D203996957
:1007E0004FF47A40090CB2FBF0F040EA0141996104
:1007F00008E0186920F0060040F00200186118684F
:100800008007FCD518680006F3D510BD094800F034
:1008100020BA0000581002400CED00E041E400E076
:1008200008E100E00C7C00404C1002400C940040B9
:10083000089400400094004010B58EB01C220021A6
:1008400007A800F08FF81822002101A800F08AF80C
:100850002048214CC16841F40031C1600223C168C5
:1008600001F4003100910099026842F00102026037
:100870000C22006800F0010000904FF090400099B9
:100880000192032100220492059203910722029310
:10089000069201A900F00EF94FF4E1300021079013
:1008A000089109910A910C220C910D910B9207A9C4
:1008B000204600F061FA606820F490406060A06813
:1008C00020F02A00A060216841F0010121600EB0F3
:1008D00010BD00BF4C10024000440040F8B5012498
:1008E000002504284FF47A764FF4FA771FD8DFE812
:1008F00000F0030512161900032411E04FF4FA6208
:100900004FF496710120FFF757FFFFF77FFFFFF7C6
:1009100045FF022404E00224FA253E4607E00524B0
:100920003D4604E002244FF496754FF4FA663246D1
:1009300029462046BDE8F840FFF73EBF4FF47A72E3
:100940000649B0FBF2F0401E486000238B60052092
:1009500008607047024908607047000010E000E03E
:100960000000002010B5044610460A460146204605
:1009700000F05AFA204610BD30B5027A03684C4C9C
:100980000021002A00F08080002B3CD0427A1AB16E
:10099000022A0ED009D314E0656825EA03036360D8
:1009A00023680268134323600CE0256825EA0303EB
:1009B00001E025682B43236063680268134363608A
:1009C00000E00121827AF2B1012A04D019D3032A6E
:1009D0000ED009D315E0E36802689343E360A3688F
:1009E00002681343A3600EE0A3680268934302E029
:1009F000A36802681343A360E36802681343E360DB
:100A000001E041F002014268002A4DD0437A1BB157
:100A1000022B0ED009D314E0656A25EA0202626255
:100A2000236A4268134323620DE0236A23EA020229
:100A300001E0236A1A432262656A426815436562CF
:100A400001E041F00401827A72B3012A04D019D383
:100A5000032A0ED009D315E0E36A42689343E362A8
:100A6000A36A40680343A3621EE0A36A42689343FB
:100A700002E0A36A42681343A362E36A4068034347
:100A8000E36211E001210FE0256825EA03032360FA
:100A90006368026893436360236A426893432362F6
:100AA000636A406883436362084630BD000000000B
:100AB00000040140F0B50B460246186890FAA0F019
:100AC000B0FA80F60F24032572E04FEA102C9CFA4E
:100AD000ACFEBEFA8EFE9CFAACFC576A4FEA8E0E54
:100AE000BCFA8CFC04FA0EFE4FEA8C0C27EA0E07C7
:100AF00001FA0CF13943516245E00121B14008404F
:100B000055D05968012918BF022914D199689768EE
:100B100090FAA0FC00F052F84FEA4C0E01FA0EF1E8
:100B20003943916019685768D3F80CC08F430CFBA8
:100B300001F13943516090FAA0FC1969D76800F0BF
:100B40003DF84FEA4C0E01FA0EF13943D160596875
:100B5000022918D15969B0F5807FB6D290FAA0FC6D
:100B6000BCFA8CFC176A4FEA8C0C04FA0CFC27EADE
:100B70000C0790FAA0FCBCFA8CFC4FEA8C0E01FA30
:100B80000EF13943116290FAA0FC5968BCFA8CFC52
:100B900090FAA0F017684FEA4C0CB0FA80F005FA12
:100BA0000CFC400027EA0C07814039431160761C99
:100BB000186830FA06F1A0D10020F0BDBCFA8CFC18
:100BC0004FEA4C0C05FA0CFC27EA0C0790FAA0FC43
:100BD000BCFA8CFC704730B40EE0026843680244F3
:100BE0000830DC0744BFA9F10104E31852F8045BA4
:100BF00043F8045B091FF9D150F8041B0029ECD11C
:100C000030BC7047534A1368010C23EA014343EA9E
:100C1000004313607047014610B500204E4B4F4A09
:100C2000994208D1116841F000411160136823F026
:100C30000043136010BD4A4CA14208D1516841F0F5
:100C400020015160516821F02001516010BD012048
:100C500010BD2DE9F84F84B00446002572B63E4A17
:100C60003C48944209D03E4A944201BF05682D0C8D
:100C700005F0300545F4401505E005682D0C05F03C
:100C80000C0545F44025D4F80890D4F80CA0D4F80D
:100C900014B0A769D4F82080A66A2046FFF7BBFFEE
:100CA0006846FFF798FA47EA0B00304343D02A49D9
:100CB0008C4203D02A498C4203D006E04FF44020F6
:100CC00001E04FF44010FFF79DFFBBF1000F0DD086
:100CD00000F04DF8C4F814B000F044F80A0701D44D
:100CE0000028F9D1606840F0080060607FB100F032
:100CF0003EF8A7616846FFF76EFA00F033F8CA06BF
:100D000001D40028F9D1606840F0100060607EB125
:100D100000F02DF8A6626846FFF75DFA00F022F8B1
:100D2000CA0501D40028F9D1606840F48070606081
:100D30002846FFF767FF2069400840002061C4F89B
:100D40000890C4F80CA0C4F8208062B605B0BDE8D5
:100D5000F08F000088100240007C004038100240F4
:100D6000009400400098401E009021687047206960
:100D700040F001002061704770B504460E462068BF
:100D80000125C10744D42268264871680240F068F2
:100D90000A4331690243B0690A4302432260616831
:100DA000B06821F4405101436160A168706921F489
:100DB00040710143A16018498C4208BF032008D04C
:100DC00016498C4208BF0C2003D0154884421FD11D
:100DD0003020FFF710FA00281CBF3168002917D017
:100DE000B36900254A08B3F5004F0CD102EB40026D
:100DF000B2FBF1F080B24FF6F0710140C0F3420057
:100E00000143E16004E01018B0FBF1F080B2E06053
:100E1000284670BD0000000000380140004400403A
:100E200000480040F369FFEF62F30F2262F31F42B4
:100E3000401810F0030308D0C91A1FD3DB0748BFBE
:100E400000F8012D28BF20F8022D130030B41446FD
:100E50001546103928BF20E93C00FAD8490728BFB9
:100E600020E90C0048BF40F8042D890028BF20F875
:100E7000022D48BF00F8012D30BC7047C91818BFBB
:100E800000F8012DCB0728BF00F8012D70470000A6
:100E90000E48016841F47001016000220C490868A5
:100EA00040F0010008608A604FF480520B680948E6
:100EB00003400B60CA6000200B68074A23F48023BC
:100EC0000B6088614FF000611160704788ED00E0B1
:100ED00000100240FFFFF6EA08ED00E0000000000D
:100EE000000000000102030406070809A0860100B3
:100EF000400D0300801A060000350C0040420F0030
:100F000080841E0000093D0000127A000024F400D5
:100F100000366E010048E801006CDC027047FEE715
:100F2000FEE7FEE7FEE770477047704770470448EA
:100F30000168890703D5426842F0020242607047A7
:100F4000007C004010B5074979441831064C7C44B8
:100F5000163404E00A68081D114488470146A1427E
:100F6000F8D110BD2C0000003C0000004EF6885166
:100F7000CEF20001086840F470000860BFF34F8FA4
:100F8000BFF36F8F4FF00070E1EE100A7047000062
:100F900047FCFFFF04000000540100000000002097
:100FA0000000000000F00DF8002801D0FFF7CAFF94
:100FB000AFF300800020AFF30080FFF708FA00F0E5
:100FC00002F80120704700F001B8000007463846DB
:100FD00000F002F8FBE7000080B5AFF30080024AA2
:100FE00011001820ABBEFBE7260002000148804735
:100FF00001480047910E0008FD0F0008AFF3008084
:10100000FFF7B4FFFFF7CEFF00000000010203046A
:10101000FFF7FEBFFFF7FEBFFFF7FEBFFFF7FEBF04
:10102000FFF7FEBFFFF7FEBFFFF7FEBFFFF7FEBFF4
:10103000FFF7FEBFFFF7FEBFFFF7FEBFFFF7FEBFE4
:10104000FFF7FEBFFFF7FEBFFFF7FEBFFFF7FEBFD4
:10105000FFF7FEBFFFF7FEBFFFF7FEBFFFF7FEBFC4
:10106000FFF7FEBFFFF7FEBFFFF7FEBFFFF7FEBFB4
:10107000FFF7FEBFFFF7FEBFFFF7FEBFFFF7FEBFA4
:10108000FFF7FEBFFFF7FEBFFFF7FEBFFFF7FEBF94
:10109000FFF7FEBFFFF7FEBFFFF7FEBFFFF7FEBF84
:1010A000FFF7FEBFFFF7FEBFFFF7FEBFFFF7FEBF74
:1010B000FFF7FEBFFFF7FEBFFFF7FEBFFFF7FEBF64
:1010C000FFF7FEBFFFF7FEBFFFF7FEBFFFF7FEBF54
:1010D000FFF7FEBFFFF7FEBFFFF7FEBFFFF7FEBF44
:1010E000FFF7FEBFFFF7FEBFFFF7FEBF00093D00A1
:0400000508000FFDE3
:00000001FF
