:020000040800F2
:1000000008040020710C0008A10B0008A30B0008D5
:10001000A50B0008A70B0008A90B000800000000B2
:10002000000000000000000000000000AB0B000812
:10003000AD0B000800000000AF0B0008B10B00087A
:10004000950C0008990C00089D0C0008A10C0008F4
:10005000A50C0008A90C0008AD0C0008B10C0008A4
:10006000B50C0008B90C0008BD0C0008C10C000854
:10007000C50C0008C90C0008CD0C0008D10C000804
:10008000D50C0008D90C0008DD0C000800000000A9
:10009000000000000000000000000000E10C00086B
:1000A000E50C0008E90C0008ED0C0008F10C000854
:1000B000F50C00080000000000000000F90C00082A
:1000C000FD0C0008010D0008050D0008090D0008D1
:1000D0000D0D0008110D0008150D0008190D000880
:1000E0001D0D0008210D00080000000000000000A8
:1000F0000000000000000000000000000000000000
:1001000000000000000000000000000000000000EF
:100110000000000000000000250D000800000000A5
:10012000290D00082D0D0008310D0008350D0008BF
:10013000390D000800000000000000000000000071
:100140003D0D0008410D0008B30B0008450D0008E7
:10015000490D00084D0D0008510D0008550D00080F
:10016000590D00085D0D00080000000000000000AF
:1001700000000000610D0008000000000000000009
:10018000650D0008690D00086D0D000870B5014689
:1001900000200329DFF8C021DFF8B441DFF8AC51BB
:1001A0004FF4004315D1296801F0030141F44031B7
:1001B0004FF44036891B05D0491E2DD0491E2ED044
:1001C000491E16E000F03DF800F068F8BDE8704008
:1001D00072E00C290FD1296801F00C0141F4402193
:1001E0004FF44026891B24D0091F15D0091F16D0B3
:1001F000091F19D070BD302922D1296801F03001C2
:1002000041F440114FF44016891B12D0103903D02D
:10021000103904D01039ECE7BDE8704011E02168D6
:1002200049050DD5104670BDA968890708D518463F
:1002300070BD00F006F800F031F8BDE8704033E022
:1002400070BD434945488B68424A13F00C030BD0FC
:10025000042B04D0082B04D00C2B04D004E03E481F
:1002600070473F4870472DE00B681B070B6809D4A7
:100270001B0747BF096801F0F001116801F47061C4
:10028000090A08E01B0747BF096801F0F00111687F
:1002900001F47061090950F8210070473149324A70
:1002A0000968C1F3031104E02E49304A0968C1F31B
:1002B0000221515CC84070472A492C4A0968C1F3A1
:1002C000C221F6E710B500F038F807D006D3032BAB
:1002D00002D003D220491AE0214918E003681B0725
:1002E000036809D41B0747BF026802F0F0021268D6
:1002F00002F47062120A08E01B0747BF026802F0AE
:10030000F002126802F47062120951F8221000F033
:1003100008F8C4F34160FFE7401C4000B1FBF0F077
:1003200010BDC268C368C468C2F30210401CB1FBB0
:10033000F0F1C3F306204143704705480749C368FD
:10034000044A03F00303012B7047000088100240A9
:1003500000100240941002400024F400700B0008CA
:1003600000127A0008100240600B00088C0C000894
:1003700080B55048816841F001018160816801F0D9
:10038000010100910099026842F0805202604FF62C
:10039000FF010068484A00F0805000900098136800
:1003A00046480B400343136000F009F800F09FF843
:1003B00000F006F900F080F900F052F9FEE738B5D8
:1003C0003F480168C908C90041F0040101600168A3
:1003D00001F007010429FAD13A48016821F4C0610B
:1003E00041F4007101603849086840F48070086089
:1003F00008684005FCD54A68344C22F0FE4242F0C1
:1004000080524A60E06840F00100E060E0688007E8
:10041000FCD50A6842F001020A6008688007FCD532
:100420000A6842F008020A60086820F0F00040F014
:1004300060000860486820F47F404860CA6824482B
:10044000024042F4205242F00102CA60C86840F003
:100450008070C8600A6842F080720A600868800193
:10046000FCD58A6842F003028A60886800F00C00BC
:100470000C28FAD18868174D20F0F0008860886851
:1004800020F4E060886028468A6822F460528A601E
:1004900000F064F9284600F06DF9206820F00C00A7
:1004A00040F008002060216821F4401141F48011DF
:1004B000216031BD581002400CED00E00003FA0548
:1004C00000200240007000400010024088100240EE
:1004D0008C80FFF900B4C404324981B00A68024339
:1004E0000A60096808400090009801B0704730B574
:1004F00089B00C22002106A800F044F9182200213E
:10050000684600F03FF90420FFF7E6FF8020FFF780
:10051000E3FF0120FFF7E0FF0220FFF7DDFF4FF0D0
:100520009041A020204C88624FF400551F48A562DE
:100530000122016821F0F00141F0200101608DF8F5
:1005400020200021022207918DF821108DF8222011
:10055000069506A800F020F91548C16821F0406111
:10056000C1600121026822F040620260A020009078
:10057000019100220292039200F01CF84020002119
:1005800000900191012200F015F801210191002253
:1005900002920392049200956946204600F09AF96F
:1005A00009B030BD4C100240000400481400014066
:1005B00000080048049269464FF0904000F08AB964
:1005C00000B587B01822002101A800F0DBF83448FC
:1005D000016941F0200101610223016901F020015C
:1005E00000910099026842F0010202601022006846
:1005F00000F0010000904FF090400099019200211E
:100600000391049105910E220293069201A900F034
:1006100061F92448244B0168244900221A700420FF
:10062000086023480268520852000260016821F401
:1006300060610160026822F400120260016821F426
:1006400080010160026842F400020260016821F446
:10065000C0210160426992089200426107B000BD6A
:100660001448416821F480114160026842F002029E
:100670000260816841F001018160C168090C0904D0
:1006800041F47A51C1600169090C090441F4FA414D
:100690000161816821F0060141F004018160704729
:1006A0004C1002400CED00E042E400E008E100E004
:1006B0000C9400400894004010B58EB01C2200211C
:1006C00007A800F05FF81822002101A800F05AF8EE
:1006D0002048214CC16841F40031C1600223C16847
:1006E00001F4003100910099026842F001020260B9
:1006F0000C22006800F0010000904FF0904000993B
:100700000192032100220492059203910722029391
:10071000069201A900F0DEF84FF4E13000210790C5
:10072000089109910A910C220C910D910B9207A945
:10073000204600F063F9606820F490406060A06893
:1007400020F02A00A060216841F0010121600EB074
:1007500010BD00BF4C100240004400404FF47A72BC
:100760000649B0FBF2F0401E486000238B60052074
:1007700008607047024908607047000010E000E020
:100780000000002010B5044610460A4601462046E7
:1007900000F08CF9204610BD30B5027A03684C4C4D
:1007A0000021002A00F08080002B3CD0427A1AB150
:1007B000022A0ED009D314E0656825EA03036360BA
:1007C00023680268134323600CE0256825EA0303CD
:1007D00001E025682B43236063680268134363606C
:1007E00000E00121827AF2B1012A04D019D3032A50
:1007F0000ED009D315E0E36802689343E360A36871
:1008000002681343A3600EE0A3680268934302E00A
:10081000A36802681343A360E36802681343E360BC
:1008200001E041F002014268002A4DD0437A1BB139
:10083000022B0ED009D314E0656A25EA0202626237
:10084000236A4268134323620DE0236A23EA02020B
:1008500001E0236A1A432262656A426815436562B1
:1008600001E041F00401827A72B3012A04D019D365
:10087000032A0ED009D315E0E36A42689343E3628A
:10088000A36A40680343A3621EE0A36A42689343DD
:1008900002E0A36A42681343A362E36A4068034329
:1008A000E36211E001210FE0256825EA03032360DC
:1008B0006368026893436360236A426893432362D8
:1008C000636A406883436362084630BD00000000ED
:1008D00000040140F0B50B460246186890FAA0F0FB
:1008E000B0FA80F60F2403253EE0090A00F04DF827
:1008F000576A00F051F8506235E00120B0400140E5
:1009000031D05868176800F053F84FEA4C0E00FADF
:100910000EF0384310605868012818BF022809D12A
:100920009868976800F044F84FEA4C0E00FA0EF011
:100930003843906091FAA1FC1869D76800F03AF842
:100940004FEA4C0E00FA0EF03843D0605868022887
:1009500009D15869B1F5807FC7D200F016F8176A3F
:1009600000F01AF81062761C196831FA06F0C4D14A
:100970005868012818BF022805D15468D8688C43EC
:100980004143214351600020F0BD91FAA1FCBCFA23
:100990008CFC91FAA1F170474FEA8C0CB1FA81F10D
:1009A00004FA0CFC890027EA0C078840384370479A
:1009B00091FAA1FCBCFA8CFC4FEA4C0C05FA0CFC39
:1009C00027EA0C0791FAA1FCBCFA8CFC704730B402
:1009D0000EE00268436802440830DC0744BFA9F116
:1009E0000104E31852F8045B43F8045B091FF9D1D2
:1009F00050F8041B0029ECD130BC704770B5044698
:100A00000E4620680125C10744D422682648716833
:100A10000240F0680A4331690243B0690A43024365
:100A200022606168B06821F4405101436160A168AF
:100A3000706921F440710143A16018498C4208BFDC
:100A4000032008D016498C4208BF0C2003D015485B
:100A500084421FD13020FFF799FB00281CBF31686A
:100A6000002917D0B36900254A08B3F5004F0CD10F
:100A700002EB4002B2FBF1F080B24FF6F0710140A0
:100A8000C0F342000143E16004E01018B0FBF1F054
:100A900080B2E060284670BD0000000000380140D0
:100AA0000044004000480040F369FFEF62F30F226A
:100AB00062F31F42401810F0030308D0C91A1FD375
:100AC000DB0748BF00F8012D28BF20F8022D1300D6
:100AD00030B414461546103928BF20E93C00FAD836
:100AE000490728BF20E90C0048BF40F8042D8900C1
:100AF00028BF20F8022D48BF00F8012D30BC7047F8
:100B0000C91818BF00F8012DCB0728BF00F8012D28
:100B1000704700000E48016841F470010160002236
:100B20000C49086840F0010008608A604FF4805268
:100B30000B68094803400B60CA6000200B68074A35
:100B400023F480230B6088614FF0006111607047CF
:100B500088ED00E000100240FFFFF6EA08ED00E03B
:100B6000000000000000000001020304060708095D
:100B7000A0860100400D0300801A060000350C001D
:100B800040420F0080841E0000093D0000127A00E0
:100B90000024F40000366E010048E801006CDC021D
:100BA0007047FEE7FEE7FEE7FEE7704770477047D5
:100BB000704704480168890703D5426842F0020281
:100BC000426070470094004010B5074979441831DD
:100BD000064C7C44163404E00A68081D114488471A
:100BE0000146A142F8D110BD2C0000003C000000DD
:100BF0004EF68851CEF20001086840F4700008609B
:100C0000BFF34F8FBFF36F8F4FF00070E1EE100A0C
:100C100070470000BBFDFFFF04000000540100000E
:100C2000000000200000000000F00DF8002801D0B6
:100C3000FFF7CAFFAFF300800020AFF30080FFF79B
:100C400097FB00F002F80120704700F001B80000A7
:100C50000746384600F002F8FBE7000080B5AFF326
:100C60000080024A11001820ABBEFBE726000200FC
:100C70000148804701480047150B0008810C000817
:100C8000AFF30080FFF7B4FFFFF7CEFF00000000D6
:100C900001020304FFF7FEBFFFF7FEBFFFF7FEBF31
:100CA000FFF7FEBFFFF7FEBFFFF7FEBFFFF7FEBF78
:100CB000FFF7FEBFFFF7FEBFFFF7FEBFFFF7FEBF68
:100CC000FFF7FEBFFFF7FEBFFFF7FEBFFFF7FEBF58
:100CD000FFF7FEBFFFF7FEBFFFF7FEBFFFF7FEBF48
:100CE000FFF7FEBFFFF7FEBFFFF7FEBFFFF7FEBF38
:100CF000FFF7FEBFFFF7FEBFFFF7FEBFFFF7FEBF28
:100D0000FFF7FEBFFFF7FEBFFFF7FEBFFFF7FEBF17
:100D1000FFF7FEBFFFF7FEBFFFF7FEBFFFF7FEBF07
:100D2000FFF7FEBFFFF7FEBFFFF7FEBFFFF7FEBFF7
:100D3000FFF7FEBFFFF7FEBFFFF7FEBFFFF7FEBFE7
:100D4000FFF7FEBFFFF7FEBFFFF7FEBFFFF7FEBFD7
:100D5000FFF7FEBFFFF7FEBFFFF7FEBFFFF7FEBFC7
:100D6000FFF7FEBFFFF7FEBFFFF7FEBFFFF7FEBFB7
:040D700000093D0039
:0400000508000C8162
:00000001FF
