:020000040800F2
:1000000008040020FD0E0008CD0D0008CF0D0008EB
:10001000D10D0008D30D0008D50D00080000000028
:10002000000000000000000000000000D70D0008E4
:10003000D90D000800000000DB0D0008DD0D0008F0
:10004000210F0008250F0008290F00082D0F0008B8
:10005000310F0008350F0008390F00083D0F000868
:10006000410F0008450F0008490F00084D0F000818
:10007000510F0008550F0008590F00085D0F0008C8
:10008000610F0008650F0008690F000800000000FC
:100090000000000000000000000000006D0F0008DC
:1000A000710F0008750F0008790F00087D0F000818
:1000B000810F00080000000000000000850F00080C
:1000C000890F00088D0F0008910F0008950F000898
:1000D000990F00089D0F0008A10F0008A50F000848
:1000E000A90F0008AD0F000800000000000000008C
:1000F0000000000000000000000000000000000000
:1001000000000000000000000000000000000000EF
:100110000000000000000000B10F00080000000017
:10012000B50F0008B90F0008BD0F0008C10F000887
:10013000C50F0008000000000000000000000000E3
:10014000C90F0008DF0D0008CD0F0008D10F00080F
:10015000D50F0008D90F0008DD0F0008E10F0008D7
:10016000E50F0008E90F0008000000000000000093
:1001700000000000ED0F000800000000000000007B
:10018000F10F0008F50F0008F90F000810B504463C
:1001900000F067F8206000F091F8606000F094F8DB
:1001A000A060606800F098F8E06010BD70B501468E
:1001B00000200329DFF8C021DFF8B441DFF8AC519B
:1001C0004FF4004315D1296801F0030141F4403197
:1001D0004FF44036891B05D0491E2DD0491E2ED024
:1001E000491E16E000F03DF800F068F8BDE87040E8
:1001F00072E00C290FD1296801F00C0141F4402173
:100200004FF44026891B24D0091F15D0091F16D092
:10021000091F19D070BD302922D1296801F03001A1
:1002200041F440114FF44016891B12D0103903D00D
:10023000103904D01039ECE7BDE8704011E02168B6
:1002400049050DD5104670BDA968890708D518461F
:1002500070BD00F006F800F031F8BDE8704033E002
:1002600070BD434945488B68424A13F00C030BD0DC
:10027000042B04D0082B04D00C2B04D004E03E48FF
:1002800070473F4870472DE00B681B070B6809D487
:100290001B0747BF096801F0F001116801F47061A4
:1002A000090A08E01B0747BF096801F0F00111685F
:1002B00001F47061090950F8210070473149324A50
:1002C0000968C1F3031104E02E49304A0968C1F3FB
:1002D0000221515CC84070472A492C4A0968C1F381
:1002E000C221F6E710B500F038F807D006D3032B8B
:1002F00002D003D220491AE0214918E003681B0705
:10030000036809D41B0747BF026802F0F0021268B5
:1003100002F47062120A08E01B0747BF026802F08D
:10032000F002126802F47062120951F8221000F013
:1003300008F8C4F34160FFE7401C4000B1FBF0F057
:1003400010BDC268C368C468C2F30210401CB1FB90
:10035000F0F1C3F306204143704705480749C368DD
:10036000044A03F00303012B704700008810024089
:1003700000100240941002400024F400240E0008F3
:1003800000127A0008100240BC0D0008180F000887
:10039000654A1368010C23EA014343EA00431360F2
:1003A00070471CB56148624C816841F00101816071
:1003B000816801F0010100910099026842F08052C9
:1003C00002604FF6FF01006800F080500090009836
:1003D000226858480A400243226000F02AF800F0E0
:1003E000C6F800F05BF900F0DBF900F029F952489B
:1003F000016841F002010160826842F001028260FE
:100400000169090C090441F4FA410161816821F094
:10041000060141F00401816048480168C908C9002B
:1004200041F002010160606840F00400606030BF8C
:10043000FEE738B542480168C908C90041F0040127
:100440000160016801F007010429FAD13B48016805
:1004500021F4C06141F4007101603A49086840F438
:100460008070086008684005FCD54A682E4C22F070
:10047000FE4242F080524A60E06840F00100E060D5
:10048000E0688007FCD50A6842F001020A6008684B
:100490008007FCD50A6842F008020A60086820F06C
:1004A000F00040F060000860486820F47F40486039
:1004B000CA682548024042F4205242F00102CA6054
:1004C000C86840F08070C8600A6842F080720A60B4
:1004D00008688001FCD58A6842F003028A60886857
:1004E00000F00C000C28FAD18868184D20F0F000BC
:1004F0008860886820F4E060886028468A6822F472
:1005000060528A6000F09EF9284600F0A7F9206842
:1005100020F00C0040F0080020600D48FFF738FF85
:10052000BDE832400B4833E78810024058100240C3
:100530000CED00E00003FA05087C0040007000406C
:1005400000200240001002408C80FFF900B4C40477
:100550001000300004000C00324981B00A680243E8
:100560000A60096808400090009801B0704730B5F3
:1005700089B00C22002106A800F078F91822002189
:10058000684600F073F90420FFF7E6FF8020FFF7CC
:10059000E3FF0120FFF7E0FF0220FFF7DDFF4FF050
:1005A0009041A020204C88624FF400551F48A5625E
:1005B0000122016821F0F00141F0200101608DF875
:1005C00020200021022207918DF821108DF8222091
:1005D000069506A800F054F91548C16821F040615D
:1005E000C1600121026822F040620260A0200090F8
:1005F000019100220292039200F01CF84020002199
:1006000000900191012200F015F8012101910022D2
:1006100002920392049200956946204600F0CEF9BA
:1006200009B030BD4C1002400004004814000140E5
:1006300000080048049269464FF0904000F0BEB9AF
:100640004F4881B0016841F000410160002300681B
:100650004C4900F00040009000980A684A484B4A14
:100660000370022111604A4803685B085B00036065
:10067000016821F460610160026822F400120260E6
:10068000016821F480010160026822F40002026026
:10069000016821F4C021016001B0704700B587B046
:1006A0001822002101A800F0E1F83A48016941F060
:1006B000200101610223016901F0200100910099EC
:1006C000026842F0010202601022006800F001009E
:1006D00000904FF090400099019200210391049105
:1006E00005910E220293069201A900F067F92A48AB
:1006F0000168490849000160026822F460620260F2
:10070000016821F400110160026822F48002026095
:10071000016821F400010160026822F4C022026035
:10072000416989088900416107B000BD1B48C16863
:1007300021F48011C160816841F00201816001698A
:1007400041F001010161816A090A090241F00401D5
:1007500081624169090C090441F47A51416181695E
:10076000090C090441F4FA418161016921F0060193
:1007700041F00401016101680906FCD500F0D9B916
:10078000581002400CED00E041E400E008E100E018
:100790000C7C00404C1002400C940040009400403F
:1007A00010B58EB01C22002107A800F05FF81822B7
:1007B000002101A800F05AF82048214CC16841F4FA
:1007C0000031C1600223C16801F400310091009939
:1007D000026842F0010202600C22006800F0010091
:1007E00000904FF090400099019203210022049262
:1007F0000592039107220293069201A900F0DEF808
:100800004FF4E13000210790089109910A910C22E0
:100810000C910D910B9207A9204600F01DFA60681B
:1008200020F490406060A06820F02A00A060216859
:1008300041F0010121600EB010BD00BF4C1002401C
:10084000004400404FF47A720649B0FBF2F0401EBB
:10085000486000238B6005200860704702490860EB
:100860007047000010E000E00000002010B50446D2
:1008700010460A460146204600F046FA204610BDC2
:1008800030B5027A03684C4C0021002A00F08080C9
:10089000002B3CD0427A1AB1022A0ED009D314E0C0
:1008A000656825EA030363602368026813432360D5
:1008B0000CE0256825EA030301E025682B4323604B
:1008C000636802681343636000E00121827AF2B139
:1008D000012A04D019D3032A0ED009D315E0E36806
:1008E00002689343E360A36802681343A3600EE0C9
:1008F000A3680268934302E0A36802681343A360FD
:10090000E36802681343E36001E041F002014268DA
:10091000002A4DD0437A1BB1022B0ED009D314E02C
:10092000656A25EA02026262236A4268134323620F
:100930000DE0236A23EA020201E0236A1A432262DD
:10094000656A42681543656201E041F00401827AFC
:1009500072B3012A04D019D3032A0ED009D315E0AB
:10096000E36A42689343E362A36A40680343A36275
:100970001EE0A36A4268934302E0A36A42681343FD
:10098000A362E36A40680343E36211E001210FE0E0
:10099000256825EA03032360636802689343636064
:1009A000236A426893432362636A406883436362B5
:1009B000084630BD0000000000040140F0B50B46C1
:1009C0000246186890FAA0F0B0FA80F60F240325CA
:1009D0003EE0090A00F04DF8576A00F051F8506205
:1009E00035E00120B040014031D05868176800F070
:1009F00053F84FEA4C0E00FA0EF038431060586876
:100A0000012818BF022809D19868976800F044F8B7
:100A10004FEA4C0E00FA0EF03843906091FAA1FCB8
:100A20001869D76800F03AF84FEA4C0E00FA0EF059
:100A30003843D0605868022809D15869B1F5807FE1
:100A4000C7D200F016F8176A00F01AF81062761C88
:100A5000196831FA06F0C4D15868012818BF022875
:100A600005D15468D8688C4341432143516000202C
:100A7000F0BD91FAA1FCBCFA8CFC91FAA1F170478F
:100A80004FEA8C0CB1FA81F104FA0CFC890027EAD8
:100A90000C0788403843704791FAA1FCBCFA8CFCE3
:100AA0004FEA4C0C05FA0CFC27EA0C0791FAA1FC62
:100AB000BCFA8CFC704730B40EE002684368024414
:100AC0000830DC0744BFA9F10104E31852F8045BC5
:100AD00043F8045B091FF9D150F8041B0029ECD13D
:100AE00030BC7047534A1368010C23EA014343EAC0
:100AF000004313607047014610B500204E4B4F4A2B
:100B0000994208D1116841F000411160136823F047
:100B10000043136010BD4A4CA14208D1516841F016
:100B200020015160516821F02001516010BD012069
:100B300010BD2DE9F84F84B00446002572B63E4A38
:100B40003C48944209D03E4A944201BF05682D0CAE
:100B500005F0300545F4401505E005682D0C05F05D
:100B60000C0545F44025D4F80890D4F80CA0D4F82E
:100B700014B0A769D4F82080A66A2046FFF7BBFF0F
:100B80006846FFF703FB47EA0B00304343D02A498E
:100B90008C4203D02A498C4203D006E04FF4402017
:100BA00001E04FF44010FFF79DFFBBF1000F0DD0A7
:100BB00000F04DF8C4F814B000F044F80A0701D46E
:100BC0000028F9D1606840F0080060607FB100F053
:100BD0003EF8A7616846FFF7D9FA00F033F8CA0675
:100BE00001D40028F9D1606840F0100060607EB147
:100BF00000F02DF8A6626846FFF7C8FA00F022F868
:100C0000CA0501D40028F9D1606840F480706060A2
:100C10002846FFF767FF2069400840002061C4F8BC
:100C20000890C4F80CA0C4F8208062B605B0BDE8F6
:100C3000F08F000088100240007C00403810024015
:100C4000009400400098401E009021687047206981
:100C500040F001002061704770B504460E462068E0
:100C60000125C10744D42268264871680240F06813
:100C70000A4331690243B0690A4302432260616852
:100C8000B06821F4405101436160A168706921F4AA
:100C900040710143A16018498C4208BF032008D06D
:100CA00016498C4208BF0C2003D0154884421FD13E
:100CB0003020FFF77BFA00281CBF3168002917D0CD
:100CC000B36900254A08B3F5004F0CD102EB40028E
:100CD000B2FBF1F080B24FF6F0710140C0F3420078
:100CE0000143E16004E01018B0FBF1F080B2E06075
:100CF000284670BD0000000000380140004400405C
:100D000000480040F369FFEF62F30F2262F31F42D5
:100D1000401810F0030308D0C91A1FD3DB0748BFDF
:100D200000F8012D28BF20F8022D130030B414461E
:100D30001546103928BF20E93C00FAD8490728BFDA
:100D400020E90C0048BF40F8042D890028BF20F896
:100D5000022D48BF00F8012D30BC7047C91818BFDC
:100D600000F8012DCB0728BF00F8012D70470000C7
:100D70000E48016841F47001016000220C490868C6
:100D800040F0010008608A604FF480520B68094807
:100D900003400B60CA6000200B68074A23F48023DD
:100DA0000B6088614FF000611160704788ED00E0D2
:100DB00000100240FFFFF6EA08ED00E0000000002E
:100DC0000000000001020304060708097047FEE75F
:100DD000FEE7FEE7FEE7704770477047704710B5C3
:100DE0000D4C2068800715D5FFF7A0FC606840F027
:100DF0000200606009480168C908C90041F00201A9
:100E000001600748016841F004010160026842F096
:100E10000202026010BD0000007C00400070004033
:100E200010ED00E0A0860100400D0300801A0600CE
:100E300000350C0040420F0080841E0000093D0078
:100E400000127A000024F40000366E010048E80128
:100E5000006CDC0210B5074979441831064C7C441B
:100E6000163404E00A68081D114488470146A1426F
:100E7000F8D110BD2C0000003C0000004EF6885157
:100E8000CEF20001086840F470000860BFF34F8F95
:100E9000BFF36F8F4FF00070E1EE100A7047000053
:100EA00017FCFFFF040000005401000000000020B8
:100EB0000000000000F00DF8002801D0FFF7CAFF85
:100EC000AFF300800020AFF30080FFF76AFA00F074
:100ED00002F80120704700F001B8000007463846CC
:100EE00000F002F8FBE7000080B5AFF30080024A93
:100EF00011001820ABBEFBE7260002000148804726
:100F000001480047710D00080D0F0008AFF3008085
:100F1000FFF7B4FFFFF7CEFF00000000010203045B
:100F2000FFF7FEBFFFF7FEBFFFF7FEBFFFF7FEBFF5
:100F3000FFF7FEBFFFF7FEBFFFF7FEBFFFF7FEBFE5
:100F4000FFF7FEBFFFF7FEBFFFF7FEBFFFF7FEBFD5
:100F5000FFF7FEBFFFF7FEBFFFF7FEBFFFF7FEBFC5
:100F6000FFF7FEBFFFF7FEBFFFF7FEBFFFF7FEBFB5
:100F7000FFF7FEBFFFF7FEBFFFF7FEBFFFF7FEBFA5
:100F8000FFF7FEBFFFF7FEBFFFF7FEBFFFF7FEBF95
:100F9000FFF7FEBFFFF7FEBFFFF7FEBFFFF7FEBF85
:100FA000FFF7FEBFFFF7FEBFFFF7FEBFFFF7FEBF75
:100FB000FFF7FEBFFFF7FEBFFFF7FEBFFFF7FEBF65
:100FC000FFF7FEBFFFF7FEBFFFF7FEBFFFF7FEBF55
:100FD000FFF7FEBFFFF7FEBFFFF7FEBFFFF7FEBF45
:100FE000FFF7FEBFFFF7FEBFFFF7FEBFFFF7FEBF35
:100FF000FFF7FEBFFFF7FEBFFFF7FEBF00093D0092
:0400000508000F0DD3
:00000001FF
