:020000040800F2
:1000000008040020890F00086D0E00086F0E00081C
:10001000710E0008730E0008750E00080000000045
:10002000000000000000000000000000770E000843
:10003000790E0008000000007B0E00087D0E00080D
:10004000B50F0008B90F0008BD0F0008C10F000868
:10005000C50F0008C90F0008CD0F0008D10F000818
:10006000D50F0008D90F0008DD0F0008E10F0008C8
:10007000E50F0008E90F0008ED0F0008F10F000878
:10008000F50F0008F90F0008FD0F00080000000040
:100090000000000000000000000000000110000847
:1000A00005100008091000080D10000811100008C4
:1000B00015100008000000000000000019100008E2
:1000C0001D10000821100008251000082910000844
:1000D0002D100008311000083510000839100008F4
:1000E0003D10000841100008000000000000000062
:1000F0000000000000000000000000000000000000
:1001000000000000000000000000000000000000EF
:100110000000000000000000451000080000000082
:10012000491000084D100008511000085510000833
:10013000591000080000000000000000000000004E
:100140005D1000087F0E0008910E00086110000885
:1001500065100008691000086D1000087110000893
:100160007510000879100008000000000000000071
:10017000000000007D1000080000000000000000EA
:10018000811000088510000889100008010007D4BC
:10019000012200F01F017E4B8A40400943F82020D5
:1001A00070470901020002D47A48815470477A4BA3
:1001B00002F00F021A4402F8041C704730B500F038
:1001C00007000123C0F10704052C2EBF0F2403FAFA
:1001D00004F4641E051D072D34BF0020C01E2140FD
:1001E000814003FA00F0401E1040084330BD80B546
:1001F0006A486B4B016841F00041016000220068D1
:1002000000F000400090002100981868C0F3022020
:10021000FFF7D4FF01464120FFF7C3FF4120FFF75E
:10022000B5FF60480168490849000160026822F48E
:10023000606242F440620260016821F400110160D2
:10024000026822F480020260016821F4000101606A
:10025000026822F4C0220260416989088900416174
:10026000416989088900416101BD000000B587B07E
:100270001822002101A800F0A1F84B48016941F0C3
:10028000200101610223016901F020010091009920
:10029000026842F0010202601022006800F00100D2
:1002A00000904FF090400099019200210391049139
:1002B00005910E220293069201A900F089F83848B0
:1002C000006800220021C0F30220FFF777FF0146FB
:1002D0004220FFF766FF3549042008603448026871
:1002E000520852000260016821F4606141F44061EB
:1002F0000160026822F400120260016821F48001AA
:100300000160026822F400020260016821F4C02149
:100310000160426992089200426107B000BD254821
:10032000016821F0060141F0020101607047224896
:10033000416821F480114160026842F002020260CB
:10034000816841F001018160704730B5184B1C682D
:10035000640A012504F0070405FA04F44FF47A72E4
:100360009D685443C0032D0CB0FBF4F040EA0545F2
:100370009D60C903DA68120CB1FBF4F040EA024256
:10038000DA60596821F0060141F00201596030BD80
:1003900000E100E000E400E018ED00E05810024049
:1003A0000CED00E00C7C00404C10024008E100E045
:1003B0000C940040107C00400894004010B50446A6
:1003C00010460A460146204600F0AAF8204610BD15
:1003D000F0B50B460246186890FAA0F0B0FA80F625
:1003E0000F24032572E04FEA102C9CFAACFEBEFAF3
:1003F0008EFE9CFAACFC576A4FEA8E0EBCFA8CFC5F
:1004000004FA0EFE4FEA8C0C27EA0E0701FA0CF1F3
:100410003943516245E00121B140084055D0596847
:10042000012918BF022914D19968976890FAA0FC95
:1004300000F052F84FEA4C0E01FA0EF13943916088
:1004400019685768D3F80CC08F430CFB01F139438E
:10045000516090FAA0FC1969D76800F03DF84FEAA6
:100460004C0E01FA0EF13943D1605968022918D1B6
:100470005969B0F5807FB6D290FAA0FCBCFA8CFC2A
:10048000176A4FEA8C0C04FA0CFC27EA0C0790FA66
:10049000A0FCBCFA8CFC4FEA8C0E01FA0EF1394339
:1004A000116290FAA0FC5968BCFA8CFC90FAA0F09A
:1004B00017684FEA4C0CB0FA80F005FA0CFC4000CB
:1004C00027EA0C07814039431160761C186830FA1E
:1004D00006F1A0D10020F0BDBCFA8CFC4FEA4C0C18
:1004E00005FA0CFC27EA0C0790FAA0FCBCFA8CFC7D
:1004F000704730B40EE00268436802440830DC07FD
:1005000044BFA9F10104E31852F8045B43F8045B0B
:10051000091FF9D150F8041B0029ECD130BC7047F9
:1005200062F30F2262F31F42401810F0030308D059
:10053000C91A1FD3DB0748BF00F8012D28BF20F8D8
:10054000022D130030B414461546103928BF20E997
:100550003C00FAD8490728BF20E90C0048BF40F802
:10056000042D890028BF20F8022D48BF00F8012D76
:1005700030BC7047C91818BF00F8012DCB0728BF41
:1005800000F8012D70470000DFF8E4010068C008A2
:1005900000F001007047DFF8D801006800F0F000BB
:1005A0007047DFF8D001006800F470607047DFF832
:1005B000CC01006800F003007047DFF8C00101685B
:1005C000C1F306207047DFF8B401006800F0700046
:1005D000704770B5014600200329DFF8A421DFF839
:1005E0009041DFF894514FF4004315D1296801F090
:1005F000030141F440314FF44036891B05D0491EB8
:100600002DD0491E2ED0491E16E000F03DF800F016
:100610009BF8BDE87040A5E00C290FD1296801F0D6
:100620000C0141F440214FF44026891B24D0091FBE
:1006300015D0091F16D0091F19D070BD302922D13D
:10064000296801F0300141F440114FF44016891B34
:1006500012D0103903D0103904D01039ECE7BDE8BE
:10066000704011E0216849050DD5104670BDA9689C
:10067000890708D5184670BD00F006F800F064F848
:10068000BDE8704066E070BDF8B53F4D3D4C286850
:100690003B4E3E4F10F00C003CD0042852D00828AE
:1006A00002D00C2802D035E03E464BE0FFF77FFF3A
:1006B000012806D005D3032801D01AD301E03E4615
:1006C00017E0FFF761FF48B9FFF75EFF10B1FFF7D2
:1006D00062FF01E0FFF765FF000A08E0FFF754FF43
:1006E00010B1FFF758FF01E0FFF75BFF000954F876
:1006F0002060FFF768FF0009401CB6FBF0F4FFF72D
:100700005CFF69684443C1F34160401C4000B4FB96
:10071000F0F617E0FFF738FF48B9FFF735FF10B1E3
:10072000FFF739FF01E0FFF73CFF000A08E0FFF7A1
:100730002BFF10B1FFF72FFF01E0FFF732FF000999
:1007400054F820603046F2BD0F49114A0968C1F3E0
:10075000031104E00C490F4A0968C1F30221515CFE
:10076000C840704708490B4A0968C1F3C221F6E73F
:100770000010024094100240881002400C10024009
:100780000024F400B00E00080810024000127A00A5
:100790005C0E0008A40F0008714A1368010C23EADC
:1007A000014343EA00431360704738B56D486E4C0F
:1007B000816841F0010181600125816801F001013A
:1007C00000910099026842F0805202604FF6FF01EA
:1007D000006800F0805000900098226863480A404A
:1007E0000243226000F037F800F0D9F8FFF73EFD31
:1007F00000F03EF9FFF7FBFC5D4948680A6842F0EB
:1008000002020A60400A8B6843F001038B6000F02B
:1008100007000A694FF4004305FA00F0120CB3FB1D
:10082000F0F040EA02420A61524D8A6822F0060264
:1008300042F002028A602868C008C00040F002004E
:100840002860606840F00400606030BF00F062F92A
:10085000FFF765FDEFE738B547480168C908C900EB
:1008600041F004010160016801F007010429FAD197
:100870004048016821F4C06141F4007101603F49C2
:100880000A6842F480720A600A685205FCD54B6817
:1008900023F0FE4343F080534B600A6842F00102AC
:1008A0000A600A689207FCD50B682D4C43F00803D8
:1008B0000B600A6822F0F00242F060020A604A68A7
:1008C00022F47F424A60036843F480730360A068A7
:1008D00020F01800A060A06840F00100A060A068AF
:1008E0008007FCD5CA682648024042F4205242F0F4
:1008F0000102CA60C86840F08070C8600A6842F0AF
:1009000080720A6008688001FCD58A6842F00302A0
:100910008A60886800F00C000C28FAD18868194DAC
:1009200020F0F0008860886820F4E0608860284645
:100930008A6822F460528A6000F060F9284600F06C
:1009400069F9206820F00C0040F0080020604FF0AA
:100950003010FFF721FFBDE832404FF00C101BE7CD
:1009600088100240581002400CED00E00003FA0528
:10097000087C00400070004000200240001002404F
:100980008C80FFF900B4C404324981B00A68024384
:100990000A60096808400090009801B0704730B5BF
:1009A00089B00C22002106A8FFF708FD18220021BB
:1009B0006846FFF703FD0420FFF7E6FF8020FFF7FE
:1009C000E3FF0120FFF7E0FF0220FFF7DDFF4FF01C
:1009D0009041A020204C88624FF400551F48A5622A
:1009E0000122016821F0F00141F0200101608DF841
:1009F00020200021022207918DF821108DF822205D
:100A0000069506A800F00EF91548C16821F040616E
:100A1000C1600121026822F040620260A0200090C3
:100A2000019100220292039200F01CF84020002164
:100A300000900191012200F015F80121019100229E
:100A4000029203920492009569462046FFF7C0FC8B
:100A500009B030BD4C1002400004004814000140B1
:100A600000080048049269464FF09040FFF7B0BC80
:100A700010B58EB01C22002107A8FFF79FFC18229A
:100A8000002101A8FFF79AFC2048214CC16841F4DD
:100A90000031C1600223C16801F400310091009966
:100AA000026842F0010202600C22006800F00100BE
:100AB00000904FF09040009901920321002204928F
:100AC0000592039107220293069201A9FFF780FC89
:100AD0004FF4E13000210790089109910A910C220E
:100AE0000C910D910B9207A9204600F039F960682E
:100AF00020F490406060A06820F02A00A060216887
:100B000041F0010121600EB010BD00BF4C10024049
:100B1000004400402DE9F041374CA07801285AD11B
:100B20000021A1700025FFF702FCE77863784FF4FD
:100B30007A76092FB0469E464FF4FA704FF4FA6168
:100B40004FF4967241D8DFE807F005081214181B1D
:100B5000232B2E37032121700DE00323BEF1010F5B
:100B600023701546884630DD0546B0462DE002214B
:100B700017E005222270054627E00220207018E0C9
:100B8000FA250423BEF1030F237080461DDD10E01B
:100B90000421022B2170054615D0042B15D112E03B
:100BA000042121700FE00223BEF1010F23700546DE
:100BB0000BDD1546884608E0042525709B1E022B98
:100BC0001546884601D2FA25804641462846BDE8AA
:100BD000F041FFF7BABBBDE8F081074841780278E1
:100BE000914204D0491C41700121817092E701219A
:100BF0000222417082707047040000204FF47A7224
:100C00000649B0FBF2F0401E486000238B600520CF
:100C100008607047024908607047000010E000E07B
:100C20000000002030B5027A03684C4C0021002AF5
:100C300000F08080002B3CD0427A1AB1022A0ED0FC
:100C400009D314E0656825EA03036360236802683A
:100C5000134323600CE0256825EA030301E02568BF
:100C60002B432360636802681343636000E0012143
:100C7000827AF2B1012A04D019D3032A0ED009D303
:100C800015E0E36802689343E360A36802681343D6
:100C9000A3600EE0A3680268934302E0A3680268C1
:100CA0001343A360E36802681343E36001E041F08B
:100CB00002014268002A4DD0437A1BB1022B0ED0AC
:100CC00009D314E0656A25EA02026262236A426877
:100CD000134323620DE0236A23EA020201E0236A40
:100CE0001A432262656A42681543656201E041F079
:100CF0000401827A72B3012A04D019D3032A0ED0D8
:100D000009D315E0E36A42689343E362A36A40684B
:100D10000343A3621EE0A36A4268934302E0A36A0E
:100D200042681343A362E36A40680343E36211E04D
:100D300001210FE0256825EA030323606368026848
:100D400093436360236A426893432362636A406803
:100D500083436362084630BD000000000004014088
:100D600070B504460E4620680125C10744D42268A8
:100D7000264871680240F0680A4331690243B0694D
:100D80000A43024322606168B06821F44051014384
:100D90006160A168706921F440710143A160184944
:100DA0008C4208BF032008D016498C4208BF0C2093
:100DB00003D0154884421FD13020FFF70AFC0028D9
:100DC0001CBF3168002917D0B36900254A08B3F564
:100DD000004F0CD102EB4002B2FBF1F080B24FF6B3
:100DE000F0710140C0F342000143E16004E01018DB
:100DF000B0FBF1F080B2E060284670BD000000005A
:100E0000003801400044004000480040F369FFEF13
:100E10000E48016841F47001016000220C49086825
:100E200040F0010008608A604FF480520B68094866
:100E300003400B60CA6000200B68074A23F480233C
:100E40000B6088614FF000611160704788ED00E031
:100E500000100240FFFFF6EA08ED00E0000000008D
:100E60000000000001020304060708097047FEE7BE
:100E7000FEE7FEE7FEE770477047704770470A4895
:100E80000168890703D5426842F002024260704758
:100E900006480168890705D5426842F002024260AF
:100EA000FFF79BBE70470000007C004000940040AC
:100EB000A0860100400D0300801A060000350C00DA
:100EC00040420F0080841E0000093D0000127A009D
:100ED0000024F40000366E010048E801006CDC02DA
:100EE00010B5074979441831064C7C44163404E0A7
:100EF0000A68081D114488470146A142F8D110BD77
:100F00002C0000003C0000004EF68851CEF200019B
:100F1000086840F470000860BFF34F8FBFF36F8F15
:100F20004FF00070E1EE100A70470000C7F5FFFFB8
:100F30000800000078000000000000200000000011
:100F400000F00DF8002801D0FFF7CAFFAFF30080D2
:100F50000020AFF30080FFF728FC00F002F801202A
:100F6000704700F001B800000746384600F002F86C
:100F7000FBE7000080B5AFF30080024A11001820A3
:100F8000ABBEFBE72600020001488047014800474E
:100F9000110E0008990F0008AFF30080FFF7B4FFAF
:100FA000FFF7CEFF000000000102030400093D002E
:100FB00001010100FFF7FEBFFFF7FEBFFFF7FEBF15
:100FC000FFF7FEBFFFF7FEBFFFF7FEBFFFF7FEBF55
:100FD000FFF7FEBFFFF7FEBFFFF7FEBFFFF7FEBF45
:100FE000FFF7FEBFFFF7FEBFFFF7FEBFFFF7FEBF35
:100FF000FFF7FEBFFFF7FEBFFFF7FEBFFFF7FEBF25
:10100000FFF7FEBFFFF7FEBFFFF7FEBFFFF7FEBF14
:10101000FFF7FEBFFFF7FEBFFFF7FEBFFFF7FEBF04
:10102000FFF7FEBFFFF7FEBFFFF7FEBFFFF7FEBFF4
:10103000FFF7FEBFFFF7FEBFFFF7FEBFFFF7FEBFE4
:10104000FFF7FEBFFFF7FEBFFFF7FEBFFFF7FEBFD4
:10105000FFF7FEBFFFF7FEBFFFF7FEBFFFF7FEBFC4
:10106000FFF7FEBFFFF7FEBFFFF7FEBFFFF7FEBFB4
:10107000FFF7FEBFFFF7FEBFFFF7FEBFFFF7FEBFA4
:0C108000FFF7FEBFFFF7FEBFFFF7FEBF4B
:0400000508000F9947
:00000001FF
